01000000130014E200000012024100901000000000000000000000000000OPTU TRAVEL BENEFITSOTB201104EU3      00000000000000000000000000000000000000000000000000000000000000000000000000000000000000000000000000000000000000000000000000000000000000000000000000000000000000000000000000000000000000
02000000230010000000000365000000000000000000000000000000000051202410091270300004027665780138179FLORENTINO VALLE SOTO                   opt154977__6976380_54                   FLORENTINO VALLE SOTO                   00000000000000000022755AGENCIA TRAVEL BENEFITS000000000000000000000000000000000000000
02000000330010000000000109500000000000000000000000000000000051202410091270300005512382420864979LISSETH SALAZAR MENDOZA                 opt197040__6940746_59                   LISSETH SALAZAR MENDOZA                 00000000000000000022755AGENCIA TRAVEL BENEFITS000000000000000000000000000000000000000
02000000430010000000000109500000000000000000000000000000000051202410091270300005512382420864979LISSETH SALAZAR MENDOZA                 opt197040__6940747_60                   LISSETH SALAZAR MENDOZA                 00000000000000000022755AGENCIA TRAVEL BENEFITS000000000000000000000000000000000000000
02000000530010000000000109500000000000000000000000000000000051202410091270300005512382420864979LISSETH SALAZAR MENDOZA                 opt197040__6940748_61                   LISSETH SALAZAR MENDOZA                 00000000000000000022755AGENCIA TRAVEL BENEFITS000000000000000000000000000000000000000
02000000630010000000000219000000000000000000000000000000000051202410091270300005512382420530646JULIO CESAR MORALES GOMEZ               opt198491__6929809_40                   JULIO CESAR MORALES GOMEZ               00000000000000000022755AGENCIA TRAVEL BENEFITS000000000000000000000000000000000000000
02000000730010000000000219000000000000000000000000000000000051202410091270300005512382420530646JULIO CESAR MORALES GOMEZ               opt198491__6929810_41                   JULIO CESAR MORALES GOMEZ               00000000000000000022755AGENCIA TRAVEL BENEFITS000000000000000000000000000000000000000
02000000830010000000000219000000000000000000000000000000000051202410091274000127180013477795495JESSICA JANETTE MENA MORGAN             opt198951__7169518_41                   JESSICA JANETTE MENA MORGAN             00000000000000000022755AGENCIA TRAVEL BENEFITS000000000000000000000000000000000000000
02000000930010000000000219000000000000000000000000000000000051202410091274000127180013477795495JESSICA JANETTE MENA MORGAN             opt198951__7169519_42                   JESSICA JANETTE MENA MORGAN             00000000000000000022755AGENCIA TRAVEL BENEFITS000000000000000000000000000000000000000
02000001030010000000000219000000000000000000000000000000000051202410091274000127180013477795495JESSICA JANETTE MENA MORGAN             opt198952__6367893_35                   JESSICA JANETTE MENA MORGAN             00000000000000000022755AGENCIA TRAVEL BENEFITS000000000000000000000000000000000000000
02000001130010000000000219000000000000000000000000000000000051202410091274000127180013477795495JESSICA JANETTE MENA MORGAN             opt198952__6367894_36                   JESSICA JANETTE MENA MORGAN             00000000000000000022755AGENCIA TRAVEL BENEFITS000000000000000000000000000000000000000
02000001230010000000000219000000000000000000000000000000000051202410091274000127180013477795495JESSICA JANETTE MENA MORGAN             opt198953__7169553_41                   JESSICA JANETTE MENA MORGAN             00000000000000000022755AGENCIA TRAVEL BENEFITS000000000000000000000000000000000000000
02000001330010000000000219000000000000000000000000000000000051202410091274000127180013477795495JESSICA JANETTE MENA MORGAN             opt198953__7169554_42                   JESSICA JANETTE MENA MORGAN             00000000000000000022755AGENCIA TRAVEL BENEFITS000000000000000000000000000000000000000
02000001430010000000000219000000000000000000000000000000000051202410091274000127180013477795495JESSICA JANETTE MENA MORGAN             opt198954__7169530_41                   JESSICA JANETTE MENA MORGAN             00000000000000000022755AGENCIA TRAVEL BENEFITS000000000000000000000000000000000000000
02000001530010000000000219000000000000000000000000000000000051202410091274000127180013477795495JESSICA JANETTE MENA MORGAN             opt198954__7169531_42                   JESSICA JANETTE MENA MORGAN             00000000000000000022755AGENCIA TRAVEL BENEFITS000000000000000000000000000000000000000
02000001630010000000000193000000000000000000000000000000000051202410091274000127180001128927980OLGAAA LIDIA RODRIGUEZ DE LOS SANTOS    opt199012__6372369_36                   OLGAAA LIDIA RODRIGUEZ DE LOS SANTOS    00000000000000000022755AGENCIA TRAVEL BENEFITS000000000000000000000000000000000000000
02000001730010000000000193000000000000000000000000000000000051202410091274000127180001128927980OLGAAA LIDIA RODRIGUEZ DE LOS SANTOS    opt199012__6433735_37                   OLGAAA LIDIA RODRIGUEZ DE LOS SANTOS    00000000000000000022755AGENCIA TRAVEL BENEFITS000000000000000000000000000000000000000
02000001830010000000000383000000000000000000000000000000000051202410091270300005263540129638033MARIA DEL ROCIO GARCIA VILLEDA          opt200793__7188400_38                   MARIA DEL ROCIO GARCIA VILLEDA          00000000000000000022755AGENCIA TRAVEL BENEFITS000000000000000000000000000000000000000
02000001930010000000000383000000000000000000000000000000000051202410091270300005263540129638033MARIA DEL ROCIO GARCIA VILLEDA          opt200793__7188401_39                   MARIA DEL ROCIO GARCIA VILLEDA          00000000000000000022755AGENCIA TRAVEL BENEFITS000000000000000000000000000000000000000
02000002030010000000000277000000000000000000000000000000000051202410091270300005512382374136838DIANA ARMENTA RUIZ                      opt200815__6450756_25                   DIANA ARMENTA RUIZ                      00000000000000000022755AGENCIA TRAVEL BENEFITS000000000000000000000000000000000000000
02000002130010000000000277000000000000000000000000000000000051202410091270300005512382374136838DIANA ARMENTA RUIZ                      opt200815__6450757_26                   DIANA ARMENTA RUIZ                      00000000000000000022755AGENCIA TRAVEL BENEFITS000000000000000000000000000000000000000
02000002230010000000000383000000000000000000000000000000000051202410091270300004027665002266253GONZALEZ ZUNIGA MAYRA EDITH             opt200976__6459799_33                   GONZALEZ ZUNIGA MAYRA EDITH             00000000000000000022755AGENCIA TRAVEL BENEFITS000000000000000000000000000000000000000
02000002330010000000000383000000000000000000000000000000000051202410091270300004027665002266253GONZALEZ ZUNIGA MAYRA EDITH             opt200976__6459800_34                   GONZALEZ ZUNIGA MAYRA EDITH             00000000000000000022755AGENCIA TRAVEL BENEFITS000000000000000000000000000000000000000
02000002430010000000000277000000000000000000000000000000000051202410091270300005512382374136838DIANA ARMENTA RUIZ                      opt201004__6459429_25                   DIANA ARMENTA RUIZ                      00000000000000000022755AGENCIA TRAVEL BENEFITS000000000000000000000000000000000000000
02000002530010000000000277000000000000000000000000000000000051202410091270300005512382374136838DIANA ARMENTA RUIZ                      opt201004__6459430_26                   DIANA ARMENTA RUIZ                      00000000000000000022755AGENCIA TRAVEL BENEFITS000000000000000000000000000000000000000
02000002630010000000000219000000000000000000000000000000000051202410091274000127790001107134113MARIA DEL CARMEN GALAN CANO             opt201046__6477611_36                   MARIA DEL CARMEN GALAN CANO             00000000000000000022755AGENCIA TRAVEL BENEFITS000000000000000000000000000000000000000
02000002730010000000000219000000000000000000000000000000000051202410091274000127790001107134113MARIA DEL CARMEN GALAN CANO             opt201047__6477538_36                   MARIA DEL CARMEN GALAN CANO             00000000000000000022755AGENCIA TRAVEL BENEFITS000000000000000000000000000000000000000
02000002830010000000000219000000000000000000000000000000000051202410091270300004027665828208208ANA KAREN AVILA BARRAZA                 opt201130__6463237_35                   ANA KAREN AVILA BARRAZA                 00000000000000000022755AGENCIA TRAVEL BENEFITS000000000000000000000000000000000000000
02000002930010000000000219000000000000000000000000000000000051202410091270300004027665828208208ANA KAREN AVILA BARRAZA                 opt201130__6463238_36                   ANA KAREN AVILA BARRAZA                 00000000000000000022755AGENCIA TRAVEL BENEFITS000000000000000000000000000000000000000
02000003030010000000000277000000000000000000000000000000000051202410091274000127180013612403937ANDY GUILLERMO DANIEL GONZALEZ          opt201188__6467653_31                   ANDY GUILLERMO DANIEL GONZALEZ          00000000000000000022755AGENCIA TRAVEL BENEFITS000000000000000000000000000000000000000
02000003130010000000000277000000000000000000000000000000000051202410091274000127180013612403937ANDY GUILLERMO DANIEL GONZALEZ          opt201188__6467654_32                   ANDY GUILLERMO DANIEL GONZALEZ          00000000000000000022755AGENCIA TRAVEL BENEFITS000000000000000000000000000000000000000
02000003230010000000000277000000000000000000000000000000000051202410091274000127180013612403937ANDY GUILLERMO DANIEL GONZALEZ          opt201189__6467690_31                   ANDY GUILLERMO DANIEL GONZALEZ          00000000000000000022755AGENCIA TRAVEL BENEFITS000000000000000000000000000000000000000
02000003330010000000000277000000000000000000000000000000000051202410091274000127180013612403937ANDY GUILLERMO DANIEL GONZALEZ          opt201189__6467691_32                   ANDY GUILLERMO DANIEL GONZALEZ          00000000000000000022755AGENCIA TRAVEL BENEFITS000000000000000000000000000000000000000
02000003430010000000000277000000000000000000000000000000000051202410091270300005263540122874288MARIA SUSANA GOROSTIETA LEGORRETA       opt201240__6890967_37                   MARIA SUSANA GOROSTIETA LEGORRETA       00000000000000000022755AGENCIA TRAVEL BENEFITS000000000000000000000000000000000000000
02000003530010000000000277000000000000000000000000000000000051202410091270300005263540122874288MARIA SUSANA GOROSTIETA LEGORRETA       opt201241__6468528_36                   MARIA SUSANA GOROSTIETA LEGORRETA       00000000000000000022755AGENCIA TRAVEL BENEFITS000000000000000000000000000000000000000
02000003630010000000000277000000000000000000000000000000000051202410091270300005263540122874288MARIA SUSANA GOROSTIETA LEGORRETA       opt201241__6890974_37                   MARIA SUSANA GOROSTIETA LEGORRETA       00000000000000000022755AGENCIA TRAVEL BENEFITS000000000000000000000000000000000000000
02000003730010000000000193000000000000000000000000000000000051202410091270300004027665787397091JOAN JESúS PéREZ MARTíNEZ            opt201254__6470556_36                   JOAN JESúS PéREZ MARTíNEZ            00000000000000000022755AGENCIA TRAVEL BENEFITS000000000000000000000000000000000000000
02000003830010000000000193000000000000000000000000000000000051202410091270300004027665787397091JOAN JESúS PéREZ MARTíNEZ            opt201255__6470641_36                   JOAN JESúS PéREZ MARTíNEZ            00000000000000000022755AGENCIA TRAVEL BENEFITS000000000000000000000000000000000000000
02000003930010000000000277000000000000000000000000000000000051202410091270300004027665768590169CESAR URIEL ESPINOSA OVIEDO             opt201442__6475946_36                   CESAR URIEL ESPINOSA OVIEDO             00000000000000000022755AGENCIA TRAVEL BENEFITS000000000000000000000000000000000000000
02000004030010000000000383000000000000000000000000000000000051202410091274000127233001152469044EVA GEORGINA CRUZ FRIAS                 opt201538__6481099_35                   EVA GEORGINA CRUZ FRIAS                 00000000000000000022755AGENCIA TRAVEL BENEFITS000000000000000000000000000000000000000
02000004130010000000000187770000000000000000000000000000000051202410091274000127180001218225039SONIA ALEJANDRA NARANJO GOMEZ           opt201643__6484266_35                   SONIA ALEJANDRA NARANJO GOMEZ           00000000000000000022755AGENCIA TRAVEL BENEFITS000000000000000000000000000000000000000
02000004230010000000000219000000000000000000000000000000000051202410091274000127420001616295392AARGELIA ACOSTA ANDRES                  opt201849__6490859_36                   AARGELIA ACOSTA ANDRES                  00000000000000000022755AGENCIA TRAVEL BENEFITS000000000000000000000000000000000000000
02000004330010000000000219000000000000000000000000000000000051202410091274000127420001616295392AARGELIA ACOSTA ANDRES                  opt201850__6490896_36                   AARGELIA ACOSTA ANDRES                  00000000000000000022755AGENCIA TRAVEL BENEFITS000000000000000000000000000000000000000
02000004430010000000000193000000000000000000000000000000000051202410091270300004027665815427688NANCY CORAL HERNANDEZ BACA              opt201879__6492335_36                   NANCY CORAL HERNANDEZ BACA              00000000000000000022755AGENCIA TRAVEL BENEFITS000000000000000000000000000000000000000
02000004530010000000000193000000000000000000000000000000000051202410091270300004027665796687219SAUL CRUZ TAPIA                         opt201916__6493649_36                   SAUL CRUZ TAPIA                         00000000000000000022755AGENCIA TRAVEL BENEFITS000000000000000000000000000000000000000
02000004630010000000000277000000000000000000000000000000000051202410091270300004027665739076264MARIA GUADALUPE RICO HERNANDEZ          opt201942__6494661_30                   MARIA GUADALUPE RICO HERNANDEZ          00000000000000000022755AGENCIA TRAVEL BENEFITS000000000000000000000000000000000000000
02000004730010000000000277000000000000000000000000000000000051202410091270300004027665739076264MARIA GUADALUPE RICO HERNANDEZ          opt201942__6494662_31                   MARIA GUADALUPE RICO HERNANDEZ          00000000000000000022755AGENCIA TRAVEL BENEFITS000000000000000000000000000000000000000
02000004830010000000000277000000000000000000000000000000000051202410091270300004027665818433501ROSALBA ISABEL GARCIA JUAREZ            opt202158__6502674_36                   ROSALBA ISABEL GARCIA JUAREZ            00000000000000000022755AGENCIA TRAVEL BENEFITS000000000000000000000000000000000000000
02000004930010000000000277000000000000000000000000000000000051202410091270300004027665818433501ROSALBA ISABEL GARCIA JUAREZ            opt202159__6502711_36                   ROSALBA ISABEL GARCIA JUAREZ            00000000000000000022755AGENCIA TRAVEL BENEFITS000000000000000000000000000000000000000
02000005030010000000000219000000000000000000000000000000000051202410091274000127180016620724786LUDWIG ENRIQUE BUENTELLO HUANOSTA       opt202215__6505781_36                   LUDWIG ENRIQUE BUENTELLO HUANOSTA       00000000000000000022755AGENCIA TRAVEL BENEFITS000000000000000000000000000000000000000
02000005130010000000000193000000000000000000000000000000000051202410091274000127180001414619591JUAN ANTONIO GONZALEZ HERNANDEZ         opt202344__6512267_19                   JUAN ANTONIO GONZALEZ HERNANDEZ         00000000000000000022755AGENCIA TRAVEL BENEFITS000000000000000000000000000000000000000
02000005230010000000000277000000000000000000000000000000000051202410091274000127650013294690504RICARDO JESUS GONZALEZ CHANTRES         opt202602__6521000_32                   RICARDO JESUS GONZALEZ CHANTRES         00000000000000000022755AGENCIA TRAVEL BENEFITS000000000000000000000000000000000000000
02000005330010000000000277000000000000000000000000000000000051202410091274000127650013294690504RICARDO JESUS GONZALEZ CHANTRES         opt202602__6521001_33                   RICARDO JESUS GONZALEZ CHANTRES         00000000000000000022755AGENCIA TRAVEL BENEFITS000000000000000000000000000000000000000
02000005430010000000000277000000000000000000000000000000000051202410091274000127650013294690504RICARDO JESUS GONZALEZ CHANTRES         opt202603__6521037_32                   RICARDO JESUS GONZALEZ CHANTRES         00000000000000000022755AGENCIA TRAVEL BENEFITS000000000000000000000000000000000000000
02000005530010000000000277000000000000000000000000000000000051202410091274000127650013294690504RICARDO JESUS GONZALEZ CHANTRES         opt202603__6521038_33                   RICARDO JESUS GONZALEZ CHANTRES         00000000000000000022755AGENCIA TRAVEL BENEFITS000000000000000000000000000000000000000
02000005630010000000000193000000000000000000000000000000000051202410091274000127180013321615346CESAR ARTURO MORALES VIDAL              opt203110__6540704_22                   CESAR ARTURO MORALES VIDAL              00000000000000000022755AGENCIA TRAVEL BENEFITS000000000000000000000000000000000000000
02000005730010000000000193000000000000000000000000000000000051202410091274000127180013321615346CESAR ARTURO MORALES VIDAL              opt203110__6540705_23                   CESAR ARTURO MORALES VIDAL              00000000000000000022755AGENCIA TRAVEL BENEFITS000000000000000000000000000000000000000
02000005830010000000000193000000000000000000000000000000000051202410091270300004027665764402633LAURA ALEJANDRA ALVARADO CHAVEZ         opt203122__6540320_32                   LAURA ALEJANDRA ALVARADO CHAVEZ         00000000000000000022755AGENCIA TRAVEL BENEFITS000000000000000000000000000000000000000
02000005930010000000000193000000000000000000000000000000000051202410091270300004027665764402633LAURA ALEJANDRA ALVARADO CHAVEZ         opt203122__6540321_33                   LAURA ALEJANDRA ALVARADO CHAVEZ         00000000000000000022755AGENCIA TRAVEL BENEFITS000000000000000000000000000000000000000
02000006030010000000000193000000000000000000000000000000000051202410091274000127180016455465838VICTOR HUGO RIVERA RIVERA               opt203146__6541716_35                   VICTOR HUGO RIVERA RIVERA               00000000000000000022755AGENCIA TRAVEL BENEFITS000000000000000000000000000000000000000
02000006130010000000000193000000000000000000000000000000000051202410091274000127180016455465838VICTOR HUGO RIVERA RIVERA               opt203146__6541717_36                   VICTOR HUGO RIVERA RIVERA               00000000000000000022755AGENCIA TRAVEL BENEFITS000000000000000000000000000000000000000
02000006230010000000000277000000000000000000000000000000000051202410091274000127180013708895572SORAYA MARTINEZ CADENA                  opt203346__6549762_32                   SORAYA MARTINEZ CADENA                  00000000000000000022755AGENCIA TRAVEL BENEFITS000000000000000000000000000000000000000
02000006330010000000000277000000000000000000000000000000000051202410091274000127180013708895572SORAYA MARTINEZ CADENA                  opt203346__6549763_33                   SORAYA MARTINEZ CADENA                  00000000000000000022755AGENCIA TRAVEL BENEFITS000000000000000000000000000000000000000
02000006430010000000000277000000000000000000000000000000000051202410091274000127180013708895572SORAYA MARTINEZ CADENA                  opt203347__6549725_32                   SORAYA MARTINEZ CADENA                  00000000000000000022755AGENCIA TRAVEL BENEFITS000000000000000000000000000000000000000
02000006530010000000000277000000000000000000000000000000000051202410091274000127180013708895572SORAYA MARTINEZ CADENA                  opt203347__6549726_33                   SORAYA MARTINEZ CADENA                  00000000000000000022755AGENCIA TRAVEL BENEFITS000000000000000000000000000000000000000
02000006630010000000000383000000000000000000000000000000000051202410091274000127320013211302710JORGE ALBERTO MONTERO RUELAS            opt203376__6550530_33                   JORGE ALBERTO MONTERO RUELAS            00000000000000000022755AGENCIA TRAVEL BENEFITS000000000000000000000000000000000000000
02000006730010000000000383000000000000000000000000000000000051202410091274000127320013211302710JORGE ALBERTO MONTERO RUELAS            opt203376__6550531_34                   JORGE ALBERTO MONTERO RUELAS            00000000000000000022755AGENCIA TRAVEL BENEFITS000000000000000000000000000000000000000
02000006830010000000000383000000000000000000000000000000000051202410091274000127320013211302710JORGE ALBERTO MONTERO RUELAS            opt203377__6550567_33                   JORGE ALBERTO MONTERO RUELAS            00000000000000000022755AGENCIA TRAVEL BENEFITS000000000000000000000000000000000000000
02000006930010000000000383000000000000000000000000000000000051202410091274000127320013211302710JORGE ALBERTO MONTERO RUELAS            opt203377__6550568_34                   JORGE ALBERTO MONTERO RUELAS            00000000000000000022755AGENCIA TRAVEL BENEFITS000000000000000000000000000000000000000
02000007030010000000000277000000000000000000000000000000000051202410091274000127180016656019410TANIA HAMARA BUSTILLOS GUTIERREZ        opt203402__6551496_34                   TANIA HAMARA BUSTILLOS GUTIERREZ        00000000000000000022755AGENCIA TRAVEL BENEFITS000000000000000000000000000000000000000
02000007130010000000000252000000000000000000000000000000000051202410091270300005512382411603386GERARDO GONZALEZ PALMA                  opt203465__6554033_34                   GERARDO GONZALEZ PALMA                  00000000000000000022755AGENCIA TRAVEL BENEFITS000000000000000000000000000000000000000
02000007230010000000000252000000000000000000000000000000000051202410091270300005512382411603386GERARDO GONZALEZ PALMA                  opt203465__6554034_35                   GERARDO GONZALEZ PALMA                  00000000000000000022755AGENCIA TRAVEL BENEFITS000000000000000000000000000000000000000
02000007330010000000000252000000000000000000000000000000000051202410091270300005512382411603386GERARDO GONZALEZ PALMA                  opt203467__6553959_34                   GERARDO GONZALEZ PALMA                  00000000000000000022755AGENCIA TRAVEL BENEFITS000000000000000000000000000000000000000
02000007430010000000000252000000000000000000000000000000000051202410091270300005512382411603386GERARDO GONZALEZ PALMA                  opt203467__6553960_35                   GERARDO GONZALEZ PALMA                  00000000000000000022755AGENCIA TRAVEL BENEFITS000000000000000000000000000000000000000
02000007530010000000000138500000000000000000000000000000000051202410091270300005263540143961072ARTURO LOPEZ MONTES                     opt203613__6653578_68                   ARTURO LOPEZ MONTES                     00000000000000000022755AGENCIA TRAVEL BENEFITS000000000000000000000000000000000000000
02000007630010000000000138500000000000000000000000000000000051202410091270300005263540143961072ARTURO LOPEZ MONTES                     opt203613__6653579_69                   ARTURO LOPEZ MONTES                     00000000000000000022755AGENCIA TRAVEL BENEFITS000000000000000000000000000000000000000
02000007730010000000000138500000000000000000000000000000000051202410091270300005263540143961072ARTURO LOPEZ MONTES                     opt203613__6653580_70                   ARTURO LOPEZ MONTES                     00000000000000000022755AGENCIA TRAVEL BENEFITS000000000000000000000000000000000000000
02000007830010000000000138500000000000000000000000000000000051202410091270300005263540143961072ARTURO LOPEZ MONTES                     opt203614__6653612_68                   ARTURO LOPEZ MONTES                     00000000000000000022755AGENCIA TRAVEL BENEFITS000000000000000000000000000000000000000
02000007930010000000000138500000000000000000000000000000000051202410091270300005263540143961072ARTURO LOPEZ MONTES                     opt203614__6653613_69                   ARTURO LOPEZ MONTES                     00000000000000000022755AGENCIA TRAVEL BENEFITS000000000000000000000000000000000000000
02000008030010000000000138500000000000000000000000000000000051202410091270300005263540143961072ARTURO LOPEZ MONTES                     opt203614__6653614_70                   ARTURO LOPEZ MONTES                     00000000000000000022755AGENCIA TRAVEL BENEFITS000000000000000000000000000000000000000
02000008130010000000000277000000000000000000000000000000000051202410091274000127180013784412461VICTOR DANIEL BERNAL RAMIREZ            opt203717__6563784_32                   VICTOR DANIEL BERNAL RAMIREZ            00000000000000000022755AGENCIA TRAVEL BENEFITS000000000000000000000000000000000000000
02000008230010000000000277000000000000000000000000000000000051202410091274000127180013784412461VICTOR DANIEL BERNAL RAMIREZ            opt203717__6563785_33                   VICTOR DANIEL BERNAL RAMIREZ            00000000000000000022755AGENCIA TRAVEL BENEFITS000000000000000000000000000000000000000
02000008330010000000000277000000000000000000000000000000000051202410091274000127180013784412461VICTOR DANIEL BERNAL RAMIREZ            opt203718__6563821_32                   VICTOR DANIEL BERNAL RAMIREZ            00000000000000000022755AGENCIA TRAVEL BENEFITS000000000000000000000000000000000000000
02000008430010000000000277000000000000000000000000000000000051202410091274000127180013784412461VICTOR DANIEL BERNAL RAMIREZ            opt203718__6563822_33                   VICTOR DANIEL BERNAL RAMIREZ            00000000000000000022755AGENCIA TRAVEL BENEFITS000000000000000000000000000000000000000
02000008530010000000000277000000000000000000000000000000000051202410091270300005263540107034171ELVIA BECERRA CRUZ                      opt203859__6569493_34                   ELVIA BECERRA CRUZ                      00000000000000000022755AGENCIA TRAVEL BENEFITS000000000000000000000000000000000000000
02000008630010000000000277000000000000000000000000000000000051202410091270300005263540107034171ELVIA BECERRA CRUZ                      opt203859__6569494_35                   ELVIA BECERRA CRUZ                      00000000000000000022755AGENCIA TRAVEL BENEFITS000000000000000000000000000000000000000
02000008730010000000000554000000000000000000000000000000000051202410091270300004027665798014040JUAN MANUEL RANGEL GARCIA               opt203882__6569817_16                   JUAN MANUEL RANGEL GARCIA               00000000000000000022755AGENCIA TRAVEL BENEFITS000000000000000000000000000000000000000
02000008830010000000000554000000000000000000000000000000000051202410091270300004027665798014040JUAN MANUEL RANGEL GARCIA               opt203883__6569798_16                   JUAN MANUEL RANGEL GARCIA               00000000000000000022755AGENCIA TRAVEL BENEFITS000000000000000000000000000000000000000
02000008930010000000000277000000000000000000000000000000000051202410091270300004027665753043927RICARDO GARCIA CALDERON                 opt204143__6580058_35                   RICARDO GARCIA CALDERON                 00000000000000000022755AGENCIA TRAVEL BENEFITS000000000000000000000000000000000000000
02000009030010000000000383000000000000000000000000000000000051202410091270300004027665311987003RICARDO RUIZ CRUZ                       opt204186__6581731_33                   RICARDO RUIZ CRUZ                       00000000000000000022755AGENCIA TRAVEL BENEFITS000000000000000000000000000000000000000
02000009130010000000000383000000000000000000000000000000000051202410091270300004027665311987003RICARDO RUIZ CRUZ                       opt204186__6581732_34                   RICARDO RUIZ CRUZ                       00000000000000000022755AGENCIA TRAVEL BENEFITS000000000000000000000000000000000000000
02000009230010000000000277000000000000000000000000000000000051202410091274000127150001296167864MARIA DE LOS ANGELES BUITIMEA ENRIQUEZ  opt204203__6596922_28                   MARIA DE LOS ANGELES BUITIMEA ENRIQUEZ  00000000000000000022755AGENCIA TRAVEL BENEFITS000000000000000000000000000000000000000
02000009330010000000000277000000000000000000000000000000000051202410091274000127150001296167864MARIA DE LOS ANGELES BUITIMEA ENRIQUEZ  opt204203__6596923_29                   MARIA DE LOS ANGELES BUITIMEA ENRIQUEZ  00000000000000000022755AGENCIA TRAVEL BENEFITS000000000000000000000000000000000000000
02000009430010000000000277000000000000000000000000000000000051202410091274000127150001296167864MARIA DE LOS ANGELES BUITIMEA ENRIQUEZ  opt204214__6582895_15                   MARIA DE LOS ANGELES BUITIMEA ENRIQUEZ  00000000000000000022755AGENCIA TRAVEL BENEFITS000000000000000000000000000000000000000
02000009530010000000000193000000000000000000000000000000000051202410091270300005512382380625451GONZALEZ MARTINEZ KATYA                 opt204253__6584246_25                   GONZALEZ MARTINEZ KATYA                 00000000000000000022755AGENCIA TRAVEL BENEFITS000000000000000000000000000000000000000
02000009630010000000000193000000000000000000000000000000000051202410091270300005512382380625451GONZALEZ MARTINEZ KATYA                 opt204253__6584247_26                   GONZALEZ MARTINEZ KATYA                 00000000000000000022755AGENCIA TRAVEL BENEFITS000000000000000000000000000000000000000
02000009730010000000000193000000000000000000000000000000000051202410091270300005512382392834117GUADALUPE ELENA AMBROSIO LOPEZ          opt204314__6586539_33                   GUADALUPE ELENA AMBROSIO LOPEZ          00000000000000000022755AGENCIA TRAVEL BENEFITS000000000000000000000000000000000000000
02000009830010000000000193000000000000000000000000000000000051202410091270300005512382392834117GUADALUPE ELENA AMBROSIO LOPEZ          opt204314__6586540_34                   GUADALUPE ELENA AMBROSIO LOPEZ          00000000000000000022755AGENCIA TRAVEL BENEFITS000000000000000000000000000000000000000
02000009930010000000000383000000000000000000000000000000000051202410091274000127180001966792885TONALLI GONZALEZ VARGAS                 opt204320__6586762_33                   TONALLI GONZALEZ VARGAS                 00000000000000000022755AGENCIA TRAVEL BENEFITS000000000000000000000000000000000000000
02000010030010000000000383000000000000000000000000000000000051202410091274000127180001966792885TONALLI GONZALEZ VARGAS                 opt204321__6586799_33                   TONALLI GONZALEZ VARGAS                 00000000000000000022755AGENCIA TRAVEL BENEFITS000000000000000000000000000000000000000
02000010130010000000000277000000000000000000000000000000000051202410091274000127308013011971952PAULINA FRIAS NAVA                      opt204399__6590495_31                   PAULINA FRIAS NAVA                      00000000000000000022755AGENCIA TRAVEL BENEFITS000000000000000000000000000000000000000
02000010230010000000000277000000000000000000000000000000000051202410091274000127308013011971952PAULINA FRIAS NAVA                      opt204399__6590496_32                   PAULINA FRIAS NAVA                      00000000000000000022755AGENCIA TRAVEL BENEFITS000000000000000000000000000000000000000
02000010330010000000000277000000000000000000000000000000000051202410091270300004198220034302198CHRISTIAN ERNESTO SAUCEDO RAMIREZ       opt204491__6593494_31                   CHRISTIAN ERNESTO SAUCEDO RAMIREZ       00000000000000000022755AGENCIA TRAVEL BENEFITS000000000000000000000000000000000000000
02000010430010000000000277000000000000000000000000000000000051202410091270300004198220034302198CHRISTIAN ERNESTO SAUCEDO RAMIREZ       opt204491__6593495_32                   CHRISTIAN ERNESTO SAUCEDO RAMIREZ       00000000000000000022755AGENCIA TRAVEL BENEFITS000000000000000000000000000000000000000
02000010530010000000000219000000000000000000000000000000000051202410091270300004027665870391407WENDOLYN GARCIA RAMOS                   opt204596__6597354_33                   WENDOLYN GARCIA RAMOS                   00000000000000000022755AGENCIA TRAVEL BENEFITS000000000000000000000000000000000000000
02000010630010000000000219000000000000000000000000000000000051202410091270300004027665870391407WENDOLYN GARCIA RAMOS                   opt204596__6597355_34                   WENDOLYN GARCIA RAMOS                   00000000000000000022755AGENCIA TRAVEL BENEFITS000000000000000000000000000000000000000
02000010730010000000000193000000000000000000000000000000000051202410091274000127164013092123659JAVIER GONZALEZ VALDEZ                  opt204760__6603408_33                   JAVIER GONZALEZ VALDEZ                  00000000000000000022755AGENCIA TRAVEL BENEFITS000000000000000000000000000000000000000
02000010830010000000000277000000000000000000000000000000000051202410091270300004027665793940421ANGELA CAROLINA ARREOLA VARGAS          opt204771__6604167_33                   ANGELA CAROLINA ARREOLA VARGAS          00000000000000000022755AGENCIA TRAVEL BENEFITS000000000000000000000000000000000000000
02000010930010000000000277000000000000000000000000000000000051202410091270300004027665793940421ANGELA CAROLINA ARREOLA VARGAS          opt204772__6604203_32                   ANGELA CAROLINA ARREOLA VARGAS          00000000000000000022755AGENCIA TRAVEL BENEFITS000000000000000000000000000000000000000
02000011030010000000000277000000000000000000000000000000000051202410091270300004027665793940421ANGELA CAROLINA ARREOLA VARGAS          opt204772__6604204_33                   ANGELA CAROLINA ARREOLA VARGAS          00000000000000000022755AGENCIA TRAVEL BENEFITS000000000000000000000000000000000000000
02000011130010000000000277000000000000000000000000000000000051202410091274000127180001149408187EDUARDO CAYETANO MARCELO                opt204776__6604016_30                   EDUARDO CAYETANO MARCELO                00000000000000000022755AGENCIA TRAVEL BENEFITS000000000000000000000000000000000000000
02000011230010000000000277000000000000000000000000000000000051202410091274000127180001149408187EDUARDO CAYETANO MARCELO                opt204776__6604017_31                   EDUARDO CAYETANO MARCELO                00000000000000000022755AGENCIA TRAVEL BENEFITS000000000000000000000000000000000000000
02000011330010000000000277000000000000000000000000000000000051202410091270300004027665309411461DAYANARA LIZBET HUERTA VIDAL            opt204780__6603870_32                   DAYANARA LIZBET HUERTA VIDAL            00000000000000000022755AGENCIA TRAVEL BENEFITS000000000000000000000000000000000000000
02000011430010000000000277000000000000000000000000000000000051202410091270300004027665309411461DAYANARA LIZBET HUERTA VIDAL            opt204780__6603871_33                   DAYANARA LIZBET HUERTA VIDAL            00000000000000000022755AGENCIA TRAVEL BENEFITS000000000000000000000000000000000000000
02000011530010000000000219000000000000000000000000000000000051202410091274000127095013738867885MAYRA SELENE HERMOSILLO FLORIAN         opt204828__6606305_33                   MAYRA SELENE HERMOSILLO FLORIAN         00000000000000000022755AGENCIA TRAVEL BENEFITS000000000000000000000000000000000000000
02000011630010000000000219000000000000000000000000000000000051202410091274000127095013738867885MAYRA SELENE HERMOSILLO FLORIAN         opt204828__6606306_34                   MAYRA SELENE HERMOSILLO FLORIAN         00000000000000000022755AGENCIA TRAVEL BENEFITS000000000000000000000000000000000000000
02000011730010000000000219000000000000000000000000000000000051202410091274000127095013738867885MAYRA SELENE HERMOSILLO FLORIAN         opt204829__6606267_33                   MAYRA SELENE HERMOSILLO FLORIAN         00000000000000000022755AGENCIA TRAVEL BENEFITS000000000000000000000000000000000000000
02000011830010000000000219000000000000000000000000000000000051202410091274000127095013738867885MAYRA SELENE HERMOSILLO FLORIAN         opt204829__6606268_34                   MAYRA SELENE HERMOSILLO FLORIAN         00000000000000000022755AGENCIA TRAVEL BENEFITS000000000000000000000000000000000000000
02000011930010000000000219000000000000000000000000000000000051202410091274000127095013738867885MAYRA SELENE HERMOSILLO FLORIAN         opt204831__6606230_33                   MAYRA SELENE HERMOSILLO FLORIAN         00000000000000000022755AGENCIA TRAVEL BENEFITS000000000000000000000000000000000000000
02000012030010000000000219000000000000000000000000000000000051202410091274000127095013738867885MAYRA SELENE HERMOSILLO FLORIAN         opt204831__6606231_34                   MAYRA SELENE HERMOSILLO FLORIAN         00000000000000000022755AGENCIA TRAVEL BENEFITS000000000000000000000000000000000000000
02000012130010000000000277000000000000000000000000000000000051202410091274000127180016536064080VIRIDIANA DEL CARMEN RUIZ RODRIGUEZ     opt205009__6612974_31                   VIRIDIANA DEL CARMEN RUIZ RODRIGUEZ     00000000000000000022755AGENCIA TRAVEL BENEFITS000000000000000000000000000000000000000
02000012230010000000000277000000000000000000000000000000000051202410091274000127180016536064080VIRIDIANA DEL CARMEN RUIZ RODRIGUEZ     opt205009__6612975_32                   VIRIDIANA DEL CARMEN RUIZ RODRIGUEZ     00000000000000000022755AGENCIA TRAVEL BENEFITS000000000000000000000000000000000000000
02000012330010000000000219000000000000000000000000000000000051202410091270300005263540126124482LUIS ENRIQUE ROJAS SANCHEZ              opt205090__6616106_32                   LUIS ENRIQUE ROJAS SANCHEZ              00000000000000000022755AGENCIA TRAVEL BENEFITS000000000000000000000000000000000000000
02000012430010000000000277000000000000000000000000000000000051202410091274000127180013328267768IGNACIO LARA MENDEZ                     opt205240__6621696_31                   IGNACIO LARA MENDEZ                     00000000000000000022755AGENCIA TRAVEL BENEFITS000000000000000000000000000000000000000
02000012530010000000000277000000000000000000000000000000000051202410091274000127180013328267768IGNACIO LARA MENDEZ                     opt205240__6621697_32                   IGNACIO LARA MENDEZ                     00000000000000000022755AGENCIA TRAVEL BENEFITS000000000000000000000000000000000000000
02000012630010000000000193000000000000000000000000000000000051202410091270300005263540115526200ADRIAN CALDERON SANCHEZ                 opt205355__6626329_32                   ADRIAN CALDERON SANCHEZ                 00000000000000000022755AGENCIA TRAVEL BENEFITS000000000000000000000000000000000000000
02000012730010000000000193000000000000000000000000000000000051202410091270300005263540115526200ADRIAN CALDERON SANCHEZ                 opt205355__6626330_33                   ADRIAN CALDERON SANCHEZ                 00000000000000000022755AGENCIA TRAVEL BENEFITS000000000000000000000000000000000000000
02000012830010000000000193000000000000000000000000000000000051202410091270300005263540115526200ADRIAN CALDERON SANCHEZ                 opt205356__6626366_32                   ADRIAN CALDERON SANCHEZ                 00000000000000000022755AGENCIA TRAVEL BENEFITS000000000000000000000000000000000000000
02000012930010000000000193000000000000000000000000000000000051202410091270300005263540115526200ADRIAN CALDERON SANCHEZ                 opt205356__6626367_33                   ADRIAN CALDERON SANCHEZ                 00000000000000000022755AGENCIA TRAVEL BENEFITS000000000000000000000000000000000000000
02000013030010000000000277000000000000000000000000000000000051202410091270300004027665810875147MONICA EUGENIA VILLA GARCIA             opt205510__6632012_30                   MONICA EUGENIA VILLA GARCIA             00000000000000000022755AGENCIA TRAVEL BENEFITS000000000000000000000000000000000000000
02000013130010000000000277000000000000000000000000000000000051202410091270300004027665810875147MONICA EUGENIA VILLA GARCIA             opt205510__6632013_31                   MONICA EUGENIA VILLA GARCIA             00000000000000000022755AGENCIA TRAVEL BENEFITS000000000000000000000000000000000000000
02000013230010000000000277000000000000000000000000000000000051202410091270300004027664173271945MIRIAM FABIOLA MARTINEZ GONZALEZ        opt205610__6635982_26                   MIRIAM FABIOLA MARTINEZ GONZALEZ        00000000000000000022755AGENCIA TRAVEL BENEFITS000000000000000000000000000000000000000
02000013330010000000000277000000000000000000000000000000000051202410091270300004027664173271945MIRIAM FABIOLA MARTINEZ GONZALEZ        opt205610__6635983_27                   MIRIAM FABIOLA MARTINEZ GONZALEZ        00000000000000000022755AGENCIA TRAVEL BENEFITS000000000000000000000000000000000000000
02000013430010000000000277000000000000000000000000000000000051202410091274000127180001397663758ANDREA PENA CHAVEZ                      opt205711__6640053_32                   ANDREA PENA CHAVEZ                      00000000000000000022755AGENCIA TRAVEL BENEFITS000000000000000000000000000000000000000
02000013530010000000000193000000000000000000000000000000000051202410091270300004027665733096599MARIA DE LOS ANGELES AHUMADA GONZALEZ   opt205750__6641545_21                   MARIA DE LOS ANGELES AHUMADA GONZALEZ   00000000000000000022755AGENCIA TRAVEL BENEFITS000000000000000000000000000000000000000
02000013630010000000000193000000000000000000000000000000000051202410091270300004027665733096599MARIA DE LOS ANGELES AHUMADA GONZALEZ   opt205750__6641546_22                   MARIA DE LOS ANGELES AHUMADA GONZALEZ   00000000000000000022755AGENCIA TRAVEL BENEFITS000000000000000000000000000000000000000
02000013730010000000000193000000000000000000000000000000000051202410091270300004027665733096599MARIA DE LOS ANGELES AHUMADA GONZALEZ   opt205751__6641589_28                   MARIA DE LOS ANGELES AHUMADA GONZALEZ   00000000000000000022755AGENCIA TRAVEL BENEFITS000000000000000000000000000000000000000
02000013830010000000000193000000000000000000000000000000000051202410091270300004027665733096599MARIA DE LOS ANGELES AHUMADA GONZALEZ   opt205751__6641590_29                   MARIA DE LOS ANGELES AHUMADA GONZALEZ   00000000000000000022755AGENCIA TRAVEL BENEFITS000000000000000000000000000000000000000
02000013930010000000000193000000000000000000000000000000000051202410091270300005512382404042394OSCAR IVAN GARCIA GUERRERO              opt205752__6641628_30                   OSCAR IVAN GARCIA GUERRERO              00000000000000000022755AGENCIA TRAVEL BENEFITS000000000000000000000000000000000000000
02000014030010000000000193000000000000000000000000000000000051202410091270300005512382404042394OSCAR IVAN GARCIA GUERRERO              opt205752__6641629_31                   OSCAR IVAN GARCIA GUERRERO              00000000000000000022755AGENCIA TRAVEL BENEFITS000000000000000000000000000000000000000
02000014130010000000000373950000000000000000000000000000000051202410091274000127180013967840591MANUEL GARCIA BALTAZAR                  opt205988__6650837_24                   MANUEL GARCIA BALTAZAR                  00000000000000000022755AGENCIA TRAVEL BENEFITS000000000000000000000000000000000000000
02000014230010000000000383000000000000000000000000000000000051202410091270300004027665783133441JUAN ISAAC CENTENO ROJAS                opt206044__6652940_27                   JUAN ISAAC CENTENO ROJAS                00000000000000000022755AGENCIA TRAVEL BENEFITS000000000000000000000000000000000000000
02000014330010000000000383000000000000000000000000000000000051202410091270300004027665783133441JUAN ISAAC CENTENO ROJAS                opt206044__6652941_28                   JUAN ISAAC CENTENO ROJAS                00000000000000000022755AGENCIA TRAVEL BENEFITS000000000000000000000000000000000000000
02000014430010000000000383000000000000000000000000000000000051202410091270300004027665783133441JUAN ISAAC CENTENO ROJAS                opt206045__6652977_27                   JUAN ISAAC CENTENO ROJAS                00000000000000000022755AGENCIA TRAVEL BENEFITS000000000000000000000000000000000000000
02000014530010000000000383000000000000000000000000000000000051202410091270300004027665783133441JUAN ISAAC CENTENO ROJAS                opt206045__6652978_28                   JUAN ISAAC CENTENO ROJAS                00000000000000000022755AGENCIA TRAVEL BENEFITS000000000000000000000000000000000000000
02000014630010000000000219000000000000000000000000000000000051202410091270300004027665828208208ANA KAREN AVILA BARRAZA                 opt206046__6653015_28                   ANA KAREN AVILA BARRAZA                 00000000000000000022755AGENCIA TRAVEL BENEFITS000000000000000000000000000000000000000
02000014730010000000000219000000000000000000000000000000000051202410091270300004027665828208208ANA KAREN AVILA BARRAZA                 opt206046__6653016_29                   ANA KAREN AVILA BARRAZA                 00000000000000000022755AGENCIA TRAVEL BENEFITS000000000000000000000000000000000000000
02000014830010000000000219000000000000000000000000000000000051202410091270300004027665828208208ANA KAREN AVILA BARRAZA                 opt206047__6653052_28                   ANA KAREN AVILA BARRAZA                 00000000000000000022755AGENCIA TRAVEL BENEFITS000000000000000000000000000000000000000
02000014930010000000000219000000000000000000000000000000000051202410091270300004027665828208208ANA KAREN AVILA BARRAZA                 opt206047__6653053_29                   ANA KAREN AVILA BARRAZA                 00000000000000000022755AGENCIA TRAVEL BENEFITS000000000000000000000000000000000000000
02000015030010000000000219000000000000000000000000000000000051202410091270300004027665828208208ANA KAREN AVILA BARRAZA                 opt206049__6653089_28                   ANA KAREN AVILA BARRAZA                 00000000000000000022755AGENCIA TRAVEL BENEFITS000000000000000000000000000000000000000
02000015130010000000000219000000000000000000000000000000000051202410091270300004027665828208208ANA KAREN AVILA BARRAZA                 opt206049__6653090_29                   ANA KAREN AVILA BARRAZA                 00000000000000000022755AGENCIA TRAVEL BENEFITS000000000000000000000000000000000000000
02000015230010000000000277000000000000000000000000000000000051202410091270300004027665770255207ARTURO LOPEZ BARROSO                    opt206070__6654116_31                   ARTURO LOPEZ BARROSO                    00000000000000000022755AGENCIA TRAVEL BENEFITS000000000000000000000000000000000000000
02000015330010000000000277000000000000000000000000000000000051202410091270300004027665770255207ARTURO LOPEZ BARROSO                    opt206070__6654117_32                   ARTURO LOPEZ BARROSO                    00000000000000000022755AGENCIA TRAVEL BENEFITS000000000000000000000000000000000000000
02000015430010000000000193000000000000000000000000000000000051202410091270300004027665721499375MA ESTHELA NAVARRETE LEON               opt206119__6656030_30                   MA ESTHELA NAVARRETE LEON               00000000000000000022755AGENCIA TRAVEL BENEFITS000000000000000000000000000000000000000
02000015530010000000000193000000000000000000000000000000000051202410091270300004027665721499375MA ESTHELA NAVARRETE LEON               opt206119__6656031_31                   MA ESTHELA NAVARRETE LEON               00000000000000000022755AGENCIA TRAVEL BENEFITS000000000000000000000000000000000000000
02000015630010000000000277000000000000000000000000000000000051202410091274000127180017017174414ALBERTO NAVA ENCISO                     opt206164__6657559_29                   ALBERTO NAVA ENCISO                     00000000000000000022755AGENCIA TRAVEL BENEFITS000000000000000000000000000000000000000
02000015730010000000000277000000000000000000000000000000000051202410091274000127180017017174414ALBERTO NAVA ENCISO                     opt206164__6657560_30                   ALBERTO NAVA ENCISO                     00000000000000000022755AGENCIA TRAVEL BENEFITS000000000000000000000000000000000000000
02000015830010000000000277000000000000000000000000000000000051202410091270300004027665824817937VERONICA RUBIO SANCHEZ                  opt206174__6658003_27                   VERONICA RUBIO SANCHEZ                  00000000000000000022755AGENCIA TRAVEL BENEFITS000000000000000000000000000000000000000
02000015930010000000000277000000000000000000000000000000000051202410091270300004027665824817937VERONICA RUBIO SANCHEZ                  opt206174__6658004_28                   VERONICA RUBIO SANCHEZ                  00000000000000000022755AGENCIA TRAVEL BENEFITS000000000000000000000000000000000000000
02000016030010000000000193000000000000000000000000000000000051202410091270300004027665787255141SUSANA GINES ZEFERINO                   opt206369__6665206_29                   SUSANA GINES ZEFERINO                   00000000000000000022755AGENCIA TRAVEL BENEFITS000000000000000000000000000000000000000
02000016130010000000000193000000000000000000000000000000000051202410091270300004027665787255141SUSANA GINES ZEFERINO                   opt206369__6665207_30                   SUSANA GINES ZEFERINO                   00000000000000000022755AGENCIA TRAVEL BENEFITS000000000000000000000000000000000000000
02000016230010000000000193000000000000000000000000000000000051202410091270300004027665787255141SUSANA GINES ZEFERINO                   opt206370__6665243_29                   SUSANA GINES ZEFERINO                   00000000000000000022755AGENCIA TRAVEL BENEFITS000000000000000000000000000000000000000
02000016330010000000000193000000000000000000000000000000000051202410091270300004027665787255141SUSANA GINES ZEFERINO                   opt206370__6665244_30                   SUSANA GINES ZEFERINO                   00000000000000000022755AGENCIA TRAVEL BENEFITS000000000000000000000000000000000000000
02000016430010000000000193000000000000000000000000000000000051202410091274000127180001327268518ESLIE DANAHE LOZANO GARCIA              opt206457__6668697_30                   ESLIE DANAHE LOZANO GARCIA              00000000000000000022755AGENCIA TRAVEL BENEFITS000000000000000000000000000000000000000
02000016530010000000000277000000000000000000000000000000000051202410091270300004027665004658762FIDEL TRUJILLO LOPEZ                    opt206507__6669929_31                   FIDEL TRUJILLO LOPEZ                    00000000000000000022755AGENCIA TRAVEL BENEFITS000000000000000000000000000000000000000
02000016630010000000000277000000000000000000000000000000000051202410091274000127180013302950321SANDRA CAROLINA ESQUIVEL SERAFIN        opt206537__6671475_27                   SANDRA CAROLINA ESQUIVEL SERAFIN        00000000000000000022755AGENCIA TRAVEL BENEFITS000000000000000000000000000000000000000
02000016730010000000000277000000000000000000000000000000000051202410091274000127180013302950321SANDRA CAROLINA ESQUIVEL SERAFIN        opt206537__6671476_28                   SANDRA CAROLINA ESQUIVEL SERAFIN        00000000000000000022755AGENCIA TRAVEL BENEFITS000000000000000000000000000000000000000
02000016830010000000000277000000000000000000000000000000000051202410091274000127180013302950321SANDRA CAROLINA ESQUIVEL SERAFIN        opt206538__6671512_27                   SANDRA CAROLINA ESQUIVEL SERAFIN        00000000000000000022755AGENCIA TRAVEL BENEFITS000000000000000000000000000000000000000
02000016930010000000000277000000000000000000000000000000000051202410091274000127180013302950321SANDRA CAROLINA ESQUIVEL SERAFIN        opt206538__6671513_28                   SANDRA CAROLINA ESQUIVEL SERAFIN        00000000000000000022755AGENCIA TRAVEL BENEFITS000000000000000000000000000000000000000
02000017030010000000000277000000000000000000000000000000000051202410091274000127180013302950321SANDRA CAROLINA ESQUIVEL SERAFIN        opt206539__6671549_27                   SANDRA CAROLINA ESQUIVEL SERAFIN        00000000000000000022755AGENCIA TRAVEL BENEFITS000000000000000000000000000000000000000
02000017130010000000000277000000000000000000000000000000000051202410091274000127180013302950321SANDRA CAROLINA ESQUIVEL SERAFIN        opt206539__6671550_28                   SANDRA CAROLINA ESQUIVEL SERAFIN        00000000000000000022755AGENCIA TRAVEL BENEFITS000000000000000000000000000000000000000
02000017230010000000000277000000000000000000000000000000000051202410091274000127180013302950321SANDRA CAROLINA ESQUIVEL SERAFIN        opt206540__6671586_27                   SANDRA CAROLINA ESQUIVEL SERAFIN        00000000000000000022755AGENCIA TRAVEL BENEFITS000000000000000000000000000000000000000
02000017330010000000000277000000000000000000000000000000000051202410091274000127180013302950321SANDRA CAROLINA ESQUIVEL SERAFIN        opt206540__6671587_28                   SANDRA CAROLINA ESQUIVEL SERAFIN        00000000000000000022755AGENCIA TRAVEL BENEFITS000000000000000000000000000000000000000
02000017430010000000000277000000000000000000000000000000000051202410091274000127180013302950321SANDRA CAROLINA ESQUIVEL SERAFIN        opt206541__6671623_27                   SANDRA CAROLINA ESQUIVEL SERAFIN        00000000000000000022755AGENCIA TRAVEL BENEFITS000000000000000000000000000000000000000
02000017530010000000000277000000000000000000000000000000000051202410091274000127180013302950321SANDRA CAROLINA ESQUIVEL SERAFIN        opt206541__6671624_28                   SANDRA CAROLINA ESQUIVEL SERAFIN        00000000000000000022755AGENCIA TRAVEL BENEFITS000000000000000000000000000000000000000
02000017630010000000000277000000000000000000000000000000000051202410091274000127180013302950321SANDRA CAROLINA ESQUIVEL SERAFIN        opt206542__6671660_27                   SANDRA CAROLINA ESQUIVEL SERAFIN        00000000000000000022755AGENCIA TRAVEL BENEFITS000000000000000000000000000000000000000
02000017730010000000000277000000000000000000000000000000000051202410091274000127180013302950321SANDRA CAROLINA ESQUIVEL SERAFIN        opt206542__6671661_28                   SANDRA CAROLINA ESQUIVEL SERAFIN        00000000000000000022755AGENCIA TRAVEL BENEFITS000000000000000000000000000000000000000
02000017830010000000000219000000000000000000000000000000000051202410091270300004027665002266253GONZALEZ ZUNIGA MAYRA EDITH             opt206572__6673108_28                   GONZALEZ ZUNIGA MAYRA EDITH             00000000000000000022755AGENCIA TRAVEL BENEFITS000000000000000000000000000000000000000
02000017930010000000000373950000000000000000000000000000000051202410091270300005512382421076821NESTOR MAURICIO PALOMINO ARENA          opt206582__7018625_26                   NESTOR MAURICIO PALOMINO ARENA          00000000000000000022755AGENCIA TRAVEL BENEFITS000000000000000000000000000000000000000
02000018030010000000000373950000000000000000000000000000000051202410091270300005512382421076821NESTOR MAURICIO PALOMINO ARENA          opt206582__7018626_27                   NESTOR MAURICIO PALOMINO ARENA          00000000000000000022755AGENCIA TRAVEL BENEFITS000000000000000000000000000000000000000
02000018130010000000000277000000000000000000000000000000000051202410091274000127180016644665944HOMEROO ANDRES CASTILLO RAMIREZ         opt206633__6674783_27                   HOMEROO ANDRES CASTILLO RAMIREZ         00000000000000000022755AGENCIA TRAVEL BENEFITS000000000000000000000000000000000000000
02000018230010000000000277000000000000000000000000000000000051202410091274000127180016644665944HOMEROO ANDRES CASTILLO RAMIREZ         opt206634__6674746_27                   HOMEROO ANDRES CASTILLO RAMIREZ         00000000000000000022755AGENCIA TRAVEL BENEFITS000000000000000000000000000000000000000
02000018330010000000000193000000000000000000000000000000000051202410091270300004027665757091278JOSE MARTIN GAMEZ GAMI                  opt206869__6684145_25                   JOSE MARTIN GAMEZ GAMI                  00000000000000000022755AGENCIA TRAVEL BENEFITS000000000000000000000000000000000000000
02000018430010000000000219000000000000000000000000000000000051202410091274000127180001016577002IRAM GIOVANNI ELíAS BAUTISTA           opt206911__6685749_26                   IRAM GIOVANNI ELíAS BAUTISTA           00000000000000000022755AGENCIA TRAVEL BENEFITS000000000000000000000000000000000000000
02000018530010000000000219000000000000000000000000000000000051202410091274000127180001016577002IRAM GIOVANNI ELíAS BAUTISTA           opt206911__6685750_27                   IRAM GIOVANNI ELíAS BAUTISTA           00000000000000000022755AGENCIA TRAVEL BENEFITS000000000000000000000000000000000000000
02000018630010000000000219000000000000000000000000000000000051202410091274000127180001016577002IRAM GIOVANNI ELíAS BAUTISTA           opt206912__6685786_26                   IRAM GIOVANNI ELíAS BAUTISTA           00000000000000000022755AGENCIA TRAVEL BENEFITS000000000000000000000000000000000000000
02000018730010000000000219000000000000000000000000000000000051202410091274000127180001016577002IRAM GIOVANNI ELíAS BAUTISTA           opt206912__6685787_27                   IRAM GIOVANNI ELíAS BAUTISTA           00000000000000000022755AGENCIA TRAVEL BENEFITS000000000000000000000000000000000000000
02000018830010000000000277000000000000000000000000000000000051202410091270300005263540107034171ELVIA BECERRA CRUZ                      opt206940__6686694_26                   ELVIA BECERRA CRUZ                      00000000000000000022755AGENCIA TRAVEL BENEFITS000000000000000000000000000000000000000
02000018930010000000000277000000000000000000000000000000000051202410091270300005263540107034171ELVIA BECERRA CRUZ                      opt206940__6686695_27                   ELVIA BECERRA CRUZ                      00000000000000000022755AGENCIA TRAVEL BENEFITS000000000000000000000000000000000000000
02000019030010000000000219000000000000000000000000000000000051202410091270300005512382420915912BERTHA VALENCIA ANRUBIO                 opt206963__6687563_30                   BERTHA VALENCIA ANRUBIO                 00000000000000000022755AGENCIA TRAVEL BENEFITS000000000000000000000000000000000000000
02000019130010000000000277000000000000000000000000000000000051202410091270300005263540112833682ZELEN ESTRELLA MENDOZA GODINEZ          opt207018__6689829_27                   ZELEN ESTRELLA MENDOZA GODINEZ          00000000000000000022755AGENCIA TRAVEL BENEFITS000000000000000000000000000000000000000
02000019230010000000000277000000000000000000000000000000000051202410091270300005263540112833682ZELEN ESTRELLA MENDOZA GODINEZ          opt207018__6689830_28                   ZELEN ESTRELLA MENDOZA GODINEZ          00000000000000000022755AGENCIA TRAVEL BENEFITS000000000000000000000000000000000000000
02000019330010000000000277000000000000000000000000000000000051202410091274000127180001506642308LUIS ANTONIO MUñOZ MORALES             opt207114__6693536_24                   LUIS ANTONIO MUñOZ MORALES             00000000000000000022755AGENCIA TRAVEL BENEFITS000000000000000000000000000000000000000
02000019430010000000000277000000000000000000000000000000000051202410091274000127180001506642308LUIS ANTONIO MUñOZ MORALES             opt207114__6693537_25                   LUIS ANTONIO MUñOZ MORALES             00000000000000000022755AGENCIA TRAVEL BENEFITS000000000000000000000000000000000000000
02000019530010000000000219000000000000000000000000000000000051202410091274000127180016052169472ROCIO MARISOL MORA CABRERO              opt207128__6693993_28                   ROCIO MARISOL MORA CABRERO              00000000000000000022755AGENCIA TRAVEL BENEFITS000000000000000000000000000000000000000
02000019630010000000000219000000000000000000000000000000000051202410091274000127180016052169472ROCIO MARISOL MORA CABRERO              opt207128__6693994_29                   ROCIO MARISOL MORA CABRERO              00000000000000000022755AGENCIA TRAVEL BENEFITS000000000000000000000000000000000000000
02000019730010000000000277000000000000000000000000000000000051202410091270300005343810208131596ELSA MILLAN HERNANDEZ                   opt207202__6697067_26                   ELSA MILLAN HERNANDEZ                   00000000000000000022755AGENCIA TRAVEL BENEFITS000000000000000000000000000000000000000
02000019830010000000000277000000000000000000000000000000000051202410091270300004027665798452372JORGE IGNACIO VEGA LOZANO               opt207511__6709131_26                   JORGE IGNACIO VEGA LOZANO               00000000000000000022755AGENCIA TRAVEL BENEFITS000000000000000000000000000000000000000
02000019930010000000000277000000000000000000000000000000000051202410091270300004027665798452372JORGE IGNACIO VEGA LOZANO               opt207511__6709132_27                   JORGE IGNACIO VEGA LOZANO               00000000000000000022755AGENCIA TRAVEL BENEFITS000000000000000000000000000000000000000
02000020030010000000000193000000000000000000000000000000000051202410091270300004198220040153627EDUARDO GONZALEZ BRISENO                opt207523__6709557_28                   EDUARDO GONZALEZ BRISENO                00000000000000000022755AGENCIA TRAVEL BENEFITS000000000000000000000000000000000000000
02000020130010000000000193000000000000000000000000000000000051202410091270300004198220040153627EDUARDO GONZALEZ BRISENO                opt207523__6709558_29                   EDUARDO GONZALEZ BRISENO                00000000000000000022755AGENCIA TRAVEL BENEFITS000000000000000000000000000000000000000
02000020230010000000000193000000000000000000000000000000000051202410091270300005512382421271828DIEGO ARAMIS GONZALEZ ANGUIANO          opt207625__6713806_28                   DIEGO ARAMIS GONZALEZ ANGUIANO          00000000000000000022755AGENCIA TRAVEL BENEFITS000000000000000000000000000000000000000
02000020330010000000000193000000000000000000000000000000000051202410091270300005512382421271828DIEGO ARAMIS GONZALEZ ANGUIANO          opt207625__6713807_29                   DIEGO ARAMIS GONZALEZ ANGUIANO          00000000000000000022755AGENCIA TRAVEL BENEFITS000000000000000000000000000000000000000
02000020430010000000000193000000000000000000000000000000000051202410091270300005512382421271828DIEGO ARAMIS GONZALEZ ANGUIANO          opt207626__6713769_28                   DIEGO ARAMIS GONZALEZ ANGUIANO          00000000000000000022755AGENCIA TRAVEL BENEFITS000000000000000000000000000000000000000
02000020530010000000000193000000000000000000000000000000000051202410091270300005512382421271828DIEGO ARAMIS GONZALEZ ANGUIANO          opt207626__6713770_29                   DIEGO ARAMIS GONZALEZ ANGUIANO          00000000000000000022755AGENCIA TRAVEL BENEFITS000000000000000000000000000000000000000
02000020630010000000000193000000000000000000000000000000000051202410091270300005512382421271828DIEGO ARAMIS GONZALEZ ANGUIANO          opt207627__6713732_28                   DIEGO ARAMIS GONZALEZ ANGUIANO          00000000000000000022755AGENCIA TRAVEL BENEFITS000000000000000000000000000000000000000
02000020730010000000000193000000000000000000000000000000000051202410091270300005512382421271828DIEGO ARAMIS GONZALEZ ANGUIANO          opt207627__6713733_29                   DIEGO ARAMIS GONZALEZ ANGUIANO          00000000000000000022755AGENCIA TRAVEL BENEFITS000000000000000000000000000000000000000
02000020830010000000000193000000000000000000000000000000000051202410091270300005512382421271828DIEGO ARAMIS GONZALEZ ANGUIANO          opt207628__6713695_28                   DIEGO ARAMIS GONZALEZ ANGUIANO          00000000000000000022755AGENCIA TRAVEL BENEFITS000000000000000000000000000000000000000
02000020930010000000000193000000000000000000000000000000000051202410091270300005512382421271828DIEGO ARAMIS GONZALEZ ANGUIANO          opt207628__6713696_29                   DIEGO ARAMIS GONZALEZ ANGUIANO          00000000000000000022755AGENCIA TRAVEL BENEFITS000000000000000000000000000000000000000
02000021030010000000000219000000000000000000000000000000000051202410091274000127320001491733425ANA MARIA CASILLAS CARRILLO             opt207919__6724549_27                   ANA MARIA CASILLAS CARRILLO             00000000000000000022755AGENCIA TRAVEL BENEFITS000000000000000000000000000000000000000
02000021130010000000000219000000000000000000000000000000000051202410091274000127320001491733425ANA MARIA CASILLAS CARRILLO             opt207919__6724550_28                   ANA MARIA CASILLAS CARRILLO             00000000000000000022755AGENCIA TRAVEL BENEFITS000000000000000000000000000000000000000
02000021230010000000000219000000000000000000000000000000000051202410091274000127320001491733425ANA MARIA CASILLAS CARRILLO             opt207920__6724586_27                   ANA MARIA CASILLAS CARRILLO             00000000000000000022755AGENCIA TRAVEL BENEFITS000000000000000000000000000000000000000
02000021330010000000000219000000000000000000000000000000000051202410091274000127320001491733425ANA MARIA CASILLAS CARRILLO             opt207920__6724587_28                   ANA MARIA CASILLAS CARRILLO             00000000000000000022755AGENCIA TRAVEL BENEFITS000000000000000000000000000000000000000
02000021430010000000000383000000000000000000000000000000000051202410091270300005263540133426953ESTEBAN ALVAREZ DEL CASTILLO            opt207932__6725010_28                   ESTEBAN ALVAREZ DEL CASTILLO            00000000000000000022755AGENCIA TRAVEL BENEFITS000000000000000000000000000000000000000
02000021530010000000000383000000000000000000000000000000000051202410091270300005263540133426953ESTEBAN ALVAREZ DEL CASTILLO            opt207932__6725011_29                   ESTEBAN ALVAREZ DEL CASTILLO            00000000000000000022755AGENCIA TRAVEL BENEFITS000000000000000000000000000000000000000
02000021630010000000000373950000000000000000000000000000000051202410091270300004198220016864462OSMARA ITZEL GUZMáN MORGA              opt207960__6725963_24                   OSMARA ITZEL GUZMáN MORGA              00000000000000000022755AGENCIA TRAVEL BENEFITS000000000000000000000000000000000000000
02000021730010000000000138500000000000000000000000000000000051202410091270300004027665820525898JEZABEL MARTíNEZ GALLEGOS              opt207984__6878292_49                   JEZABEL MARTíNEZ GALLEGOS              00000000000000000022755AGENCIA TRAVEL BENEFITS000000000000000000000000000000000000000
02000021830010000000000138500000000000000000000000000000000051202410091270300004027665820525898JEZABEL MARTíNEZ GALLEGOS              opt207984__6878293_50                   JEZABEL MARTíNEZ GALLEGOS              00000000000000000022755AGENCIA TRAVEL BENEFITS000000000000000000000000000000000000000
02000021930010000000000138500000000000000000000000000000000051202410091270300004027665820525898JEZABEL MARTíNEZ GALLEGOS              opt207984__6878294_51                   JEZABEL MARTíNEZ GALLEGOS              00000000000000000022755AGENCIA TRAVEL BENEFITS000000000000000000000000000000000000000
02000022030010000000000138500000000000000000000000000000000051202410091270300004027665820525898JEZABEL MARTíNEZ GALLEGOS              opt207985__6878323_46                   JEZABEL MARTíNEZ GALLEGOS              00000000000000000022755AGENCIA TRAVEL BENEFITS000000000000000000000000000000000000000
02000022130010000000000138500000000000000000000000000000000051202410091270300004027665820525898JEZABEL MARTíNEZ GALLEGOS              opt207985__6878324_47                   JEZABEL MARTíNEZ GALLEGOS              00000000000000000022755AGENCIA TRAVEL BENEFITS000000000000000000000000000000000000000
02000022230010000000000138500000000000000000000000000000000051202410091270300004027665820525898JEZABEL MARTíNEZ GALLEGOS              opt207985__6878325_48                   JEZABEL MARTíNEZ GALLEGOS              00000000000000000022755AGENCIA TRAVEL BENEFITS000000000000000000000000000000000000000
02000022330010000000000138500000000000000000000000000000000051202410091270300004027665820525898JEZABEL MARTíNEZ GALLEGOS              opt207985__6878326_49                   JEZABEL MARTíNEZ GALLEGOS              00000000000000000022755AGENCIA TRAVEL BENEFITS000000000000000000000000000000000000000
02000022430010000000000277000000000000000000000000000000000051202410091270300004027665715944162DARVIN LOPEZ GONZALEZ                   opt208056__6730174_24                   DARVIN LOPEZ GONZALEZ                   00000000000000000022755AGENCIA TRAVEL BENEFITS000000000000000000000000000000000000000
02000022530010000000000277000000000000000000000000000000000051202410091270300004027665715944162DARVIN LOPEZ GONZALEZ                   opt208056__6730175_25                   DARVIN LOPEZ GONZALEZ                   00000000000000000022755AGENCIA TRAVEL BENEFITS000000000000000000000000000000000000000
02000022630010000000000277000000000000000000000000000000000051202410091270300004027665715944162DARVIN LOPEZ GONZALEZ                   opt208057__6730137_24                   DARVIN LOPEZ GONZALEZ                   00000000000000000022755AGENCIA TRAVEL BENEFITS000000000000000000000000000000000000000
02000022730010000000000277000000000000000000000000000000000051202410091270300004027665715944162DARVIN LOPEZ GONZALEZ                   opt208057__6730138_25                   DARVIN LOPEZ GONZALEZ                   00000000000000000022755AGENCIA TRAVEL BENEFITS000000000000000000000000000000000000000
02000022830010000000000277000000000000000000000000000000000051202410091270300004027665715944162DARVIN LOPEZ GONZALEZ                   opt208058__6730100_24                   DARVIN LOPEZ GONZALEZ                   00000000000000000022755AGENCIA TRAVEL BENEFITS000000000000000000000000000000000000000
02000022930010000000000277000000000000000000000000000000000051202410091270300004027665715944162DARVIN LOPEZ GONZALEZ                   opt208058__6730101_25                   DARVIN LOPEZ GONZALEZ                   00000000000000000022755AGENCIA TRAVEL BENEFITS000000000000000000000000000000000000000
02000023030010000000000277000000000000000000000000000000000051202410091270300004027665715944162DARVIN LOPEZ GONZALEZ                   opt208059__6730063_24                   DARVIN LOPEZ GONZALEZ                   00000000000000000022755AGENCIA TRAVEL BENEFITS000000000000000000000000000000000000000
02000023130010000000000277000000000000000000000000000000000051202410091270300004027665715944162DARVIN LOPEZ GONZALEZ                   opt208059__6730064_25                   DARVIN LOPEZ GONZALEZ                   00000000000000000022755AGENCIA TRAVEL BENEFITS000000000000000000000000000000000000000
02000023230010000000000277000000000000000000000000000000000051202410091270300004027665005607289HEIDI AGUILAR CLEMENTE                  opt208078__6730585_26                   HEIDI AGUILAR CLEMENTE                  00000000000000000022755AGENCIA TRAVEL BENEFITS000000000000000000000000000000000000000
02000023330010000000000277000000000000000000000000000000000051202410091270300004027665005607289HEIDI AGUILAR CLEMENTE                  opt208080__6730659_26                   HEIDI AGUILAR CLEMENTE                  00000000000000000022755AGENCIA TRAVEL BENEFITS000000000000000000000000000000000000000
02000023430010000000000277000000000000000000000000000000000051202410091270300004027665005700472GLORIA MARLEN ROMO MALDONADO            opt208111__6731880_27                   GLORIA MARLEN ROMO MALDONADO            00000000000000000022755AGENCIA TRAVEL BENEFITS000000000000000000000000000000000000000
02000023530010000000000277000000000000000000000000000000000051202410091274000127180016613056225LAURA YOLANDA RODRIGUEZ JUAREZ          opt208133__6732619_24                   LAURA YOLANDA RODRIGUEZ JUAREZ          00000000000000000022755AGENCIA TRAVEL BENEFITS000000000000000000000000000000000000000
02000023630010000000000277000000000000000000000000000000000051202410091274000127180016613056225LAURA YOLANDA RODRIGUEZ JUAREZ          opt208133__6732620_25                   LAURA YOLANDA RODRIGUEZ JUAREZ          00000000000000000022755AGENCIA TRAVEL BENEFITS000000000000000000000000000000000000000
02000023730010000000000193000000000000000000000000000000000051202410091274000127180016164835403JORGE LUIS SANCHEZ VERGARA              opt208186__6735500_27                   JORGE LUIS SANCHEZ VERGARA              00000000000000000022755AGENCIA TRAVEL BENEFITS000000000000000000000000000000000000000
02000023830010000000000193000000000000000000000000000000000051202410091274000127180016164835403JORGE LUIS SANCHEZ VERGARA              opt208186__6735501_28                   JORGE LUIS SANCHEZ VERGARA              00000000000000000022755AGENCIA TRAVEL BENEFITS000000000000000000000000000000000000000
02000023930010000000000193000000000000000000000000000000000051202410091274000127180016164835403JORGE LUIS SANCHEZ VERGARA              opt208187__6735537_27                   JORGE LUIS SANCHEZ VERGARA              00000000000000000022755AGENCIA TRAVEL BENEFITS000000000000000000000000000000000000000
02000024030010000000000193000000000000000000000000000000000051202410091274000127180016164835403JORGE LUIS SANCHEZ VERGARA              opt208187__6735538_28                   JORGE LUIS SANCHEZ VERGARA              00000000000000000022755AGENCIA TRAVEL BENEFITS000000000000000000000000000000000000000
02000024130010000000000277000000000000000000000000000000000051202410091270300004027665004208725ROBERTO LENIN GRANADO REYES             opt208334__6743061_28                   ROBERTO LENIN GRANADO REYES             00000000000000000022755AGENCIA TRAVEL BENEFITS000000000000000000000000000000000000000
02000024230010000000000260550000000000000000000000000000000051202410091270300004027665830215894MARTIN ALVAREZ HERBERT                  opt208503__6750345_23                   MARTIN ALVAREZ HERBERT                  00000000000000000022755AGENCIA TRAVEL BENEFITS000000000000000000000000000000000000000
02000024330010000000000260550000000000000000000000000000000051202410091270300004027665830215894MARTIN ALVAREZ HERBERT                  opt208503__6750346_24                   MARTIN ALVAREZ HERBERT                  00000000000000000022755AGENCIA TRAVEL BENEFITS000000000000000000000000000000000000000
02000024430010000000000260550000000000000000000000000000000051202410091270300004027665830215894MARTIN ALVAREZ HERBERT                  opt208504__6750371_23                   MARTIN ALVAREZ HERBERT                  00000000000000000022755AGENCIA TRAVEL BENEFITS000000000000000000000000000000000000000
02000024530010000000000260550000000000000000000000000000000051202410091270300004027665830215894MARTIN ALVAREZ HERBERT                  opt208504__6750372_24                   MARTIN ALVAREZ HERBERT                  00000000000000000022755AGENCIA TRAVEL BENEFITS000000000000000000000000000000000000000
02000024630010000000000277000000000000000000000000000000000051202410091274000127180013054690256MONICA DIAZ MARTINEZ                    opt208657__6756392_24                   MONICA DIAZ MARTINEZ                    00000000000000000022755AGENCIA TRAVEL BENEFITS000000000000000000000000000000000000000
02000024730010000000000277000000000000000000000000000000000051202410091274000127180013054690256MONICA DIAZ MARTINEZ                    opt208657__6756393_25                   MONICA DIAZ MARTINEZ                    00000000000000000022755AGENCIA TRAVEL BENEFITS000000000000000000000000000000000000000
02000024830010000000000277000000000000000000000000000000000051202410091270300004027665853801604EDUARDO ESPINOZA VEGA                   opt208764__6792644_20                   EDUARDO ESPINOZA VEGA                   00000000000000000022755AGENCIA TRAVEL BENEFITS000000000000000000000000000000000000000
02000024930010000000000277000000000000000000000000000000000051202410091270300004027665853801604EDUARDO ESPINOZA VEGA                   opt208764__6792645_21                   EDUARDO ESPINOZA VEGA                   00000000000000000022755AGENCIA TRAVEL BENEFITS000000000000000000000000000000000000000
02000025030010000000000277000000000000000000000000000000000051202410091270300004027665853801604EDUARDO ESPINOZA VEGA                   opt208765__6792663_20                   EDUARDO ESPINOZA VEGA                   00000000000000000022755AGENCIA TRAVEL BENEFITS000000000000000000000000000000000000000
02000025130010000000000277000000000000000000000000000000000051202410091270300004027665853801604EDUARDO ESPINOZA VEGA                   opt208765__6792664_21                   EDUARDO ESPINOZA VEGA                   00000000000000000022755AGENCIA TRAVEL BENEFITS000000000000000000000000000000000000000
02000025230010000000000193000000000000000000000000000000000051202410091274000127180013359318013LORENA CARRANCO NúñEZ                 opt208780__6761535_26                   LORENA CARRANCO NúñEZ                 00000000000000000022755AGENCIA TRAVEL BENEFITS000000000000000000000000000000000000000
02000025330010000000000193000000000000000000000000000000000051202410091274000127180013359318013LORENA CARRANCO NúñEZ                 opt208780__6761536_27                   LORENA CARRANCO NúñEZ                 00000000000000000022755AGENCIA TRAVEL BENEFITS000000000000000000000000000000000000000
02000025430010000000000277000000000000000000000000000000000051202410091270300004027665815442133CARLOS JESúS PéREZ CRUZ               opt208814__6762469_22                   CARLOS JESúS PéREZ CRUZ               00000000000000000022755AGENCIA TRAVEL BENEFITS000000000000000000000000000000000000000
02000025530010000000000277000000000000000000000000000000000051202410091270300004027665815442133CARLOS JESúS PéREZ CRUZ               opt208814__6762470_23                   CARLOS JESúS PéREZ CRUZ               00000000000000000022755AGENCIA TRAVEL BENEFITS000000000000000000000000000000000000000
02000025630010000000000193000000000000000000000000000000000051202410091270300004027665003307015LUIS HORACIO LUNA MEDIA                 opt208874__6765483_25                   LUIS HORACIO LUNA MEDIA                 00000000000000000022755AGENCIA TRAVEL BENEFITS000000000000000000000000000000000000000
02000025730010000000000193000000000000000000000000000000000051202410091270300004027665003307015LUIS HORACIO LUNA MEDIA                 opt208874__6765484_26                   LUIS HORACIO LUNA MEDIA                 00000000000000000022755AGENCIA TRAVEL BENEFITS000000000000000000000000000000000000000
02000025830010000000000193000000000000000000000000000000000051202410091270300004027665003307015LUIS HORACIO LUNA MEDIA                 opt208876__6765446_25                   LUIS HORACIO LUNA MEDIA                 00000000000000000022755AGENCIA TRAVEL BENEFITS000000000000000000000000000000000000000
02000025930010000000000193000000000000000000000000000000000051202410091270300004027665003307015LUIS HORACIO LUNA MEDIA                 opt208876__6765447_26                   LUIS HORACIO LUNA MEDIA                 00000000000000000022755AGENCIA TRAVEL BENEFITS000000000000000000000000000000000000000
02000026030010000000000193000000000000000000000000000000000051202410091274000127180001267118676FRANCISCO JAVIER DIAZ VAZQUEZ           opt208895__6766223_25                   FRANCISCO JAVIER DIAZ VAZQUEZ           00000000000000000022755AGENCIA TRAVEL BENEFITS000000000000000000000000000000000000000
02000026130010000000000193000000000000000000000000000000000051202410091274000127180001267118676FRANCISCO JAVIER DIAZ VAZQUEZ           opt208895__6766224_26                   FRANCISCO JAVIER DIAZ VAZQUEZ           00000000000000000022755AGENCIA TRAVEL BENEFITS000000000000000000000000000000000000000
02000026230010000000000219000000000000000000000000000000000051202410091274000127180016235740618SILVIA DURAN GUTIéRREZ                 opt208953__6768878_22                   SILVIA DURAN GUTIéRREZ                 00000000000000000022755AGENCIA TRAVEL BENEFITS000000000000000000000000000000000000000
02000026330010000000000219000000000000000000000000000000000051202410091274000127180016235740618SILVIA DURAN GUTIéRREZ                 opt208953__6768879_23                   SILVIA DURAN GUTIéRREZ                 00000000000000000022755AGENCIA TRAVEL BENEFITS000000000000000000000000000000000000000
02000026430010000000000277000000000000000000000000000000000051202410091270300004027665842024847MARICELA CONTRERAS ROMERO               opt209058__6773401_26                   MARICELA CONTRERAS ROMERO               00000000000000000022755AGENCIA TRAVEL BENEFITS000000000000000000000000000000000000000
02000026530010000000000277000000000000000000000000000000000051202410091270300004027665842024847MARICELA CONTRERAS ROMERO               opt209058__6773402_27                   MARICELA CONTRERAS ROMERO               00000000000000000022755AGENCIA TRAVEL BENEFITS000000000000000000000000000000000000000
02000026630010000000000766000000000000000000000000000000000051202410091270300005263540121043430GLORIA ASENCION VILLANUEVA GAONA        opt209164__6776897_14                   GLORIA ASENCION VILLANUEVA GAONA        00000000000000000022755AGENCIA TRAVEL BENEFITS000000000000000000000000000000000000000
02000026730010000000000193000000000000000000000000000000000051202410091270300005512382420123814OLGA LIDIA RODRIGUEZ DE LOS SANTOS      opt209211__6778737_26                   OLGA LIDIA RODRIGUEZ DE LOS SANTOS      00000000000000000022755AGENCIA TRAVEL BENEFITS000000000000000000000000000000000000000
02000026830010000000000193000000000000000000000000000000000051202410091270300005512382420123814OLGA LIDIA RODRIGUEZ DE LOS SANTOS      opt209211__6778738_27                   OLGA LIDIA RODRIGUEZ DE LOS SANTOS      00000000000000000022755AGENCIA TRAVEL BENEFITS000000000000000000000000000000000000000
02000026930010000000000260550000000000000000000000000000000051202410091274000127180001199342934JAVIER CASTILLO GALICIA                 opt209254__6780171_24                   JAVIER CASTILLO GALICIA                 00000000000000000022755AGENCIA TRAVEL BENEFITS000000000000000000000000000000000000000
02000027030010000000000109500000000000000000000000000000000051202410091270300005512382420864979LISSETH SALAZAR MENDOZA                 opt209279__6948880_40                   LISSETH SALAZAR MENDOZA                 00000000000000000022755AGENCIA TRAVEL BENEFITS000000000000000000000000000000000000000
02000027130010000000000109500000000000000000000000000000000051202410091270300005512382420864979LISSETH SALAZAR MENDOZA                 opt209279__6948881_41                   LISSETH SALAZAR MENDOZA                 00000000000000000022755AGENCIA TRAVEL BENEFITS000000000000000000000000000000000000000
02000027230010000000000109500000000000000000000000000000000051202410091270300005512382420864979LISSETH SALAZAR MENDOZA                 opt209279__6948882_42                   LISSETH SALAZAR MENDOZA                 00000000000000000022755AGENCIA TRAVEL BENEFITS000000000000000000000000000000000000000
02000027330010000000000109500000000000000000000000000000000051202410091270300005512382420864979LISSETH SALAZAR MENDOZA                 opt209279__6948883_43                   LISSETH SALAZAR MENDOZA                 00000000000000000022755AGENCIA TRAVEL BENEFITS000000000000000000000000000000000000000
02000027430010000000000109500000000000000000000000000000000051202410091270300005512382420864979LISSETH SALAZAR MENDOZA                 opt209282__6948916_40                   LISSETH SALAZAR MENDOZA                 00000000000000000022755AGENCIA TRAVEL BENEFITS000000000000000000000000000000000000000
02000027530010000000000109500000000000000000000000000000000051202410091270300005512382420864979LISSETH SALAZAR MENDOZA                 opt209282__6948917_41                   LISSETH SALAZAR MENDOZA                 00000000000000000022755AGENCIA TRAVEL BENEFITS000000000000000000000000000000000000000
02000027630010000000000109500000000000000000000000000000000051202410091270300005512382420864979LISSETH SALAZAR MENDOZA                 opt209282__6948918_42                   LISSETH SALAZAR MENDOZA                 00000000000000000022755AGENCIA TRAVEL BENEFITS000000000000000000000000000000000000000
02000027730010000000000109500000000000000000000000000000000051202410091270300005512382420864979LISSETH SALAZAR MENDOZA                 opt209282__6948919_43                   LISSETH SALAZAR MENDOZA                 00000000000000000022755AGENCIA TRAVEL BENEFITS000000000000000000000000000000000000000
02000027830010000000000373950000000000000000000000000000000051202410091270300005512382365047770SILVIA ARIADNA AVILA ORTEGA             opt209299__6782240_23                   SILVIA ARIADNA AVILA ORTEGA             00000000000000000022755AGENCIA TRAVEL BENEFITS000000000000000000000000000000000000000
02000027930010000000000373950000000000000000000000000000000051202410091270300005512382365047770SILVIA ARIADNA AVILA ORTEGA             opt209299__6782241_24                   SILVIA ARIADNA AVILA ORTEGA             00000000000000000022755AGENCIA TRAVEL BENEFITS000000000000000000000000000000000000000
02000028030010000000000373950000000000000000000000000000000051202410091270300005512382365047770SILVIA ARIADNA AVILA ORTEGA             opt209300__6782273_23                   SILVIA ARIADNA AVILA ORTEGA             00000000000000000022755AGENCIA TRAVEL BENEFITS000000000000000000000000000000000000000
02000028130010000000000373950000000000000000000000000000000051202410091270300005512382365047770SILVIA ARIADNA AVILA ORTEGA             opt209300__6782274_24                   SILVIA ARIADNA AVILA ORTEGA             00000000000000000022755AGENCIA TRAVEL BENEFITS000000000000000000000000000000000000000
02000028230010000000000219000000000000000000000000000000000051202410091270300004831120602014956MONTSERRAT VENTURA TAPIA                opt209347__6784143_23                   MONTSERRAT VENTURA TAPIA                00000000000000000022755AGENCIA TRAVEL BENEFITS000000000000000000000000000000000000000
02000028330010000000000219000000000000000000000000000000000051202410091270300004831120602014956MONTSERRAT VENTURA TAPIA                opt209347__6784144_24                   MONTSERRAT VENTURA TAPIA                00000000000000000022755AGENCIA TRAVEL BENEFITS000000000000000000000000000000000000000
02000028430010000000000219000000000000000000000000000000000051202410091270300004831120602014956MONTSERRAT VENTURA TAPIA                opt209348__6784180_23                   MONTSERRAT VENTURA TAPIA                00000000000000000022755AGENCIA TRAVEL BENEFITS000000000000000000000000000000000000000
02000028530010000000000219000000000000000000000000000000000051202410091270300004831120602014956MONTSERRAT VENTURA TAPIA                opt209348__6784181_24                   MONTSERRAT VENTURA TAPIA                00000000000000000022755AGENCIA TRAVEL BENEFITS000000000000000000000000000000000000000
02000028630010000000000373950000000000000000000000000000000051202410091270300005512382421076821NESTOR MAURICIO PALOMINO ARENA          opt209496__6789884_16                   NESTOR MAURICIO PALOMINO ARENA          00000000000000000022755AGENCIA TRAVEL BENEFITS000000000000000000000000000000000000000
02000028730010000000000373950000000000000000000000000000000051202410091270300005512382421076821NESTOR MAURICIO PALOMINO ARENA          opt209496__6789885_17                   NESTOR MAURICIO PALOMINO ARENA          00000000000000000022755AGENCIA TRAVEL BENEFITS000000000000000000000000000000000000000
02000028830010000000000277000000000000000000000000000000000051202410091274000127180001397663758ANDREA PENA CHAVEZ                      opt209516__6790504_24                   ANDREA PENA CHAVEZ                      00000000000000000022755AGENCIA TRAVEL BENEFITS000000000000000000000000000000000000000
02000028930010000000000193000000000000000000000000000000000051202410091270300004027665746572222MARIA MANUELA ALONSO PATLANI            opt209543__6791433_23                   MARIA MANUELA ALONSO PATLANI            00000000000000000022755AGENCIA TRAVEL BENEFITS000000000000000000000000000000000000000
02000029030010000000000193000000000000000000000000000000000051202410091270300004027665746572222MARIA MANUELA ALONSO PATLANI            opt209543__6791434_24                   MARIA MANUELA ALONSO PATLANI            00000000000000000022755AGENCIA TRAVEL BENEFITS000000000000000000000000000000000000000
02000029130010000000000193000000000000000000000000000000000051202410091270300004027665746572222MARIA MANUELA ALONSO PATLANI            opt209544__6791470_23                   MARIA MANUELA ALONSO PATLANI            00000000000000000022755AGENCIA TRAVEL BENEFITS000000000000000000000000000000000000000
02000029230010000000000193000000000000000000000000000000000051202410091270300004027665746572222MARIA MANUELA ALONSO PATLANI            opt209544__6791471_24                   MARIA MANUELA ALONSO PATLANI            00000000000000000022755AGENCIA TRAVEL BENEFITS000000000000000000000000000000000000000
02000029330010000000000193000000000000000000000000000000000051202410091270300004027665746572222MARIA MANUELA ALONSO PATLANI            opt209545__6791507_23                   MARIA MANUELA ALONSO PATLANI            00000000000000000022755AGENCIA TRAVEL BENEFITS000000000000000000000000000000000000000
02000029430010000000000193000000000000000000000000000000000051202410091270300004027665746572222MARIA MANUELA ALONSO PATLANI            opt209545__6791508_24                   MARIA MANUELA ALONSO PATLANI            00000000000000000022755AGENCIA TRAVEL BENEFITS000000000000000000000000000000000000000
02000029530010000000000277000000000000000000000000000000000051202410091274000127180001506642308LUIS ANTONIO MUñOZ MORALES             opt209550__6791676_23                   LUIS ANTONIO MUñOZ MORALES             00000000000000000022755AGENCIA TRAVEL BENEFITS000000000000000000000000000000000000000
02000029630010000000000277000000000000000000000000000000000051202410091274000127180001506642308LUIS ANTONIO MUñOZ MORALES             opt209550__6791677_24                   LUIS ANTONIO MUñOZ MORALES             00000000000000000022755AGENCIA TRAVEL BENEFITS000000000000000000000000000000000000000
02000029730010000000000193000000000000000000000000000000000051202410091270300004027665775774251JOSE ANGEL LOPEZ TRINIDAD               opt209656__6795643_12                   JOSE ANGEL LOPEZ TRINIDAD               00000000000000000022755AGENCIA TRAVEL BENEFITS000000000000000000000000000000000000000
02000029830010000000000193000000000000000000000000000000000051202410091270300004027665775774251JOSE ANGEL LOPEZ TRINIDAD               opt209656__6795644_13                   JOSE ANGEL LOPEZ TRINIDAD               00000000000000000022755AGENCIA TRAVEL BENEFITS000000000000000000000000000000000000000
02000029930010000000000193000000000000000000000000000000000051202410091270300004027665775774251JOSE ANGEL LOPEZ TRINIDAD               opt209657__6795678_10                   JOSE ANGEL LOPEZ TRINIDAD               00000000000000000022755AGENCIA TRAVEL BENEFITS000000000000000000000000000000000000000
02000030030010000000000193000000000000000000000000000000000051202410091270300004027665775774251JOSE ANGEL LOPEZ TRINIDAD               opt209657__6795679_11                   JOSE ANGEL LOPEZ TRINIDAD               00000000000000000022755AGENCIA TRAVEL BENEFITS000000000000000000000000000000000000000
02000030130010000000000193000000000000000000000000000000000051202410091274000127180013057693784HAYDEE MARGARITA ROMERO ORDOñEZ        opt209668__6796010_19                   HAYDEE MARGARITA ROMERO ORDOñEZ        00000000000000000022755AGENCIA TRAVEL BENEFITS000000000000000000000000000000000000000
02000030230010000000000193000000000000000000000000000000000051202410091274000127180013057693784HAYDEE MARGARITA ROMERO ORDOñEZ        opt209668__6796011_20                   HAYDEE MARGARITA ROMERO ORDOñEZ        00000000000000000022755AGENCIA TRAVEL BENEFITS000000000000000000000000000000000000000
02000030330010000000000219000000000000000000000000000000000051202410091274000127180013801761558YUDID CALIXTO SIMON                     opt209690__6796700_25                   YUDID CALIXTO SIMON                     00000000000000000022755AGENCIA TRAVEL BENEFITS000000000000000000000000000000000000000
02000030430010000000000219000000000000000000000000000000000051202410091274000127180013801761558YUDID CALIXTO SIMON                     opt209690__6796701_26                   YUDID CALIXTO SIMON                     00000000000000000022755AGENCIA TRAVEL BENEFITS000000000000000000000000000000000000000
02000030530010000000000193000000000000000000000000000000000051202410091270300004027665722311835LAURA VILLEGAS DOMINGUEZ                opt209691__6796626_26                   LAURA VILLEGAS DOMINGUEZ                00000000000000000022755AGENCIA TRAVEL BENEFITS000000000000000000000000000000000000000
02000030630010000000000295650000000000000000000000000000000051202410091274000127180013253344536MONTSERRAT GARCIA LAZCANO               opt209802__6801098_23                   MONTSERRAT GARCIA LAZCANO               00000000000000000022755AGENCIA TRAVEL BENEFITS000000000000000000000000000000000000000
02000030730010000000000295650000000000000000000000000000000051202410091274000127180013253344536MONTSERRAT GARCIA LAZCANO               opt209802__6801099_24                   MONTSERRAT GARCIA LAZCANO               00000000000000000022755AGENCIA TRAVEL BENEFITS000000000000000000000000000000000000000
02000030830010000000000295650000000000000000000000000000000051202410091274000127180013253344536MONTSERRAT GARCIA LAZCANO               opt209803__6801123_23                   MONTSERRAT GARCIA LAZCANO               00000000000000000022755AGENCIA TRAVEL BENEFITS000000000000000000000000000000000000000
02000030930010000000000295650000000000000000000000000000000051202410091274000127180013253344536MONTSERRAT GARCIA LAZCANO               opt209803__6801124_24                   MONTSERRAT GARCIA LAZCANO               00000000000000000022755AGENCIA TRAVEL BENEFITS000000000000000000000000000000000000000
02000031030010000000000138500000000000000000000000000000000051202410091274000127109001145434275BEATRIZ LAURA GUILLEN PORTILLO          opt209811__6801537_47                   BEATRIZ LAURA GUILLEN PORTILLO          00000000000000000022755AGENCIA TRAVEL BENEFITS000000000000000000000000000000000000000
02000031130010000000000138500000000000000000000000000000000051202410091274000127109001145434275BEATRIZ LAURA GUILLEN PORTILLO          opt209811__6801538_48                   BEATRIZ LAURA GUILLEN PORTILLO          00000000000000000022755AGENCIA TRAVEL BENEFITS000000000000000000000000000000000000000
02000031230010000000000138500000000000000000000000000000000051202410091274000127109001145434275BEATRIZ LAURA GUILLEN PORTILLO          opt209811__6801539_49                   BEATRIZ LAURA GUILLEN PORTILLO          00000000000000000022755AGENCIA TRAVEL BENEFITS000000000000000000000000000000000000000
02000031330010000000000138500000000000000000000000000000000051202410091274000127109001145434275BEATRIZ LAURA GUILLEN PORTILLO          opt209811__6801540_50                   BEATRIZ LAURA GUILLEN PORTILLO          00000000000000000022755AGENCIA TRAVEL BENEFITS000000000000000000000000000000000000000
02000031430010000000000193000000000000000000000000000000000051202410091270300005263540136866056LUIS ALBERTO LINARES SANCHEZ            opt209898__6804580_23                   LUIS ALBERTO LINARES SANCHEZ            00000000000000000022755AGENCIA TRAVEL BENEFITS000000000000000000000000000000000000000
02000031530010000000000193000000000000000000000000000000000051202410091270300005263540136866056LUIS ALBERTO LINARES SANCHEZ            opt209898__6804581_24                   LUIS ALBERTO LINARES SANCHEZ            00000000000000000022755AGENCIA TRAVEL BENEFITS000000000000000000000000000000000000000
02000031630010000000000193000000000000000000000000000000000051202410091270300005263540136866056LUIS ALBERTO LINARES SANCHEZ            opt209899__6804617_23                   LUIS ALBERTO LINARES SANCHEZ            00000000000000000022755AGENCIA TRAVEL BENEFITS000000000000000000000000000000000000000
02000031730010000000000193000000000000000000000000000000000051202410091270300005263540136866056LUIS ALBERTO LINARES SANCHEZ            opt209899__6804618_24                   LUIS ALBERTO LINARES SANCHEZ            00000000000000000022755AGENCIA TRAVEL BENEFITS000000000000000000000000000000000000000
02000031830010000000000219000000000000000000000000000000000051202410091270300004027665777908907BENJAMíN MENDEZ ARMENTA                opt209904__6804880_23                   BENJAMíN MENDEZ ARMENTA                00000000000000000022755AGENCIA TRAVEL BENEFITS000000000000000000000000000000000000000
02000031930010000000000219000000000000000000000000000000000051202410091270300004027665777908907BENJAMíN MENDEZ ARMENTA                opt209904__6804881_24                   BENJAMíN MENDEZ ARMENTA                00000000000000000022755AGENCIA TRAVEL BENEFITS000000000000000000000000000000000000000
02000032030010000000000383000000000000000000000000000000000051202410091270300004027665777908907BENJAMíN MENDEZ ARMENTA                opt209906__6804806_23                   BENJAMíN MENDEZ ARMENTA                00000000000000000022755AGENCIA TRAVEL BENEFITS000000000000000000000000000000000000000
02000032130010000000000383000000000000000000000000000000000051202410091270300004027665777908907BENJAMíN MENDEZ ARMENTA                opt209906__6804807_24                   BENJAMíN MENDEZ ARMENTA                00000000000000000022755AGENCIA TRAVEL BENEFITS000000000000000000000000000000000000000
02000032230010000000000193000000000000000000000000000000000051202410091270300004198220026584175LLUVIA ALMENDRA HERNANDEZ HERNANDEZ     opt209923__6805582_24                   LLUVIA ALMENDRA HERNANDEZ HERNANDEZ     00000000000000000022755AGENCIA TRAVEL BENEFITS000000000000000000000000000000000000000
02000032330010000000000193000000000000000000000000000000000051202410091270300004198220026584175LLUVIA ALMENDRA HERNANDEZ HERNANDEZ     opt209923__6805583_25                   LLUVIA ALMENDRA HERNANDEZ HERNANDEZ     00000000000000000022755AGENCIA TRAVEL BENEFITS000000000000000000000000000000000000000
02000032430010000000000747900000000000000000000000000000000051202410091270300005512382398782153SALVADOR MORENO ZALDIVAR                opt209941__6806161_12                   SALVADOR MORENO ZALDIVAR                00000000000000000022755AGENCIA TRAVEL BENEFITS000000000000000000000000000000000000000
02000032530010000000000747900000000000000000000000000000000051202410091270300005512382398782153SALVADOR MORENO ZALDIVAR                opt209942__6806174_12                   SALVADOR MORENO ZALDIVAR                00000000000000000022755AGENCIA TRAVEL BENEFITS000000000000000000000000000000000000000
02000032630010000000000277000000000000000000000000000000000051202410091270300004198220035853348MARIANA NAPOLES PALENCIA                opt210004__6808808_22                   MARIANA NAPOLES PALENCIA                00000000000000000022755AGENCIA TRAVEL BENEFITS000000000000000000000000000000000000000
02000032730010000000000277000000000000000000000000000000000051202410091270300004198220035853348MARIANA NAPOLES PALENCIA                opt210004__6808809_23                   MARIANA NAPOLES PALENCIA                00000000000000000022755AGENCIA TRAVEL BENEFITS000000000000000000000000000000000000000
02000032830010000000000517050000000000000000000000000000000051202410091270300004027665760406729BRENDA NALLELY VARGAS MARTíNEZ         opt210022__6809499_16                   BRENDA NALLELY VARGAS MARTíNEZ         00000000000000000022755AGENCIA TRAVEL BENEFITS000000000000000000000000000000000000000
02000032930010000000000517050000000000000000000000000000000051202410091270300004027665760406729BRENDA NALLELY VARGAS MARTíNEZ         opt210022__6809500_17                   BRENDA NALLELY VARGAS MARTíNEZ         00000000000000000022755AGENCIA TRAVEL BENEFITS000000000000000000000000000000000000000
02000033030010000000000277000000000000000000000000000000000051202410091274000127180001249716986VIRGILIO DE JESUS TOBILLA ESTRADA       opt210042__6810187_17                   VIRGILIO DE JESUS TOBILLA ESTRADA       00000000000000000022755AGENCIA TRAVEL BENEFITS000000000000000000000000000000000000000
02000033130010000000000277000000000000000000000000000000000051202410091274000127180001249716986VIRGILIO DE JESUS TOBILLA ESTRADA       opt210042__6810188_18                   VIRGILIO DE JESUS TOBILLA ESTRADA       00000000000000000022755AGENCIA TRAVEL BENEFITS000000000000000000000000000000000000000
02000033230010000000000277000000000000000000000000000000000051202410091274000127180001249716986VIRGILIO DE JESUS TOBILLA ESTRADA       opt210043__6810224_17                   VIRGILIO DE JESUS TOBILLA ESTRADA       00000000000000000022755AGENCIA TRAVEL BENEFITS000000000000000000000000000000000000000
