01000000130014E200000012024071201000000000000000000000000000OPTU TRAVEL BENEFITSOTB201104EU3      00000000000000000000000000000000000000000000000000000000000000000000000000000000000000000000000000000000000000000000000000000000000000000000000000000000000000000000000000000000000000
02000000230010000000000365000000000000000000000000000000000051202407121270300004027665780138179FLORENTINO VALLE SOTO                   opt154977__6976375_49                   FLORENTINO VALLE SOTO                   00000000000000000022165AGENCIA TRAVEL BENEFITS000000000000000000000000000000000000000
02000000330010000000002497860000000000000000000000000000000051202407120020300005256788224653196DAVID ALCOSER FIGUEROA                  opt220912__7202959_1                    DAVID ALCOSER FIGUEROA                  00000000000000000022165AGENCIA TRAVEL BENEFITS000000000000000000000000000000000000000
02000000430010000000002497860000000000000000000000000000000051202407120120300004152314280860852MARIA DEJESUS BRIONES CISNEROS          opt220903__7202783_1                    MARIA DEJESUS BRIONES CISNEROS          00000000000000000022165AGENCIA TRAVEL BENEFITS000000000000000000000000000000000000000
02000000530010000000001148000000000000000000000000000000000051202407120140300005579100426534143ISABEL MONSERRAT AGUILA AGUILAR         opt219971__7178451_2                    ISABEL MONSERRAT AGUILA AGUILAR         00000000000000000022165AGENCIA TRAVEL BENEFITS000000000000000000000000000000000000000
02000000630010000000001148000000000000000000000000000000000051202407120724000072680005968703805DIANA PAOLA MARTINEZ CAMARGO            opt219683__7167832_2                    DIANA PAOLA MARTINEZ CAMARGO            00000000000000000022165AGENCIA TRAVEL BENEFITS000000000000000000000000000000000000000
02000000730010000000001148000000000000000000000000000000000051202407120724000072580011845738430EUSEBIO ALBERTO DE LEóN AYALA          opt219795__7171082_2                    EUSEBIO ALBERTO DE LEóN AYALA          00000000000000000022165AGENCIA TRAVEL BENEFITS000000000000000000000000000000000000000
02000000830010000000001148000000000000000000000000000000000051202407120724000072580011845738430EUSEBIO ALBERTO DE LEóN AYALA          opt219796__7171095_2                    EUSEBIO ALBERTO DE LEóN AYALA          00000000000000000022165AGENCIA TRAVEL BENEFITS000000000000000000000000000000000000000
02000000930010000000001034100000000000000000000000000000000051202407121270300004027665826710973JESUS VALLEJO GONZALEZ                  opt213020__6925758_8                    JESUS VALLEJO GONZALEZ                  00000000000000000022165AGENCIA TRAVEL BENEFITS000000000000000000000000000000000000000
02000001030010000000001034100000000000000000000000000000000051202407121270300004027665826710973JESUS VALLEJO GONZALEZ                  opt213021__6925771_8                    JESUS VALLEJO GONZALEZ                  00000000000000000022165AGENCIA TRAVEL BENEFITS000000000000000000000000000000000000000
02000001130010000000001034100000000000000000000000000000000051202407121270300004027665826710973JESUS VALLEJO GONZALEZ                  opt213022__6925784_8                    JESUS VALLEJO GONZALEZ                  00000000000000000022165AGENCIA TRAVEL BENEFITS000000000000000000000000000000000000000
02000001230010000000001034100000000000000000000000000000000051202407121270300004027665826710973JESUS VALLEJO GONZALEZ                  opt213023__6925797_8                    JESUS VALLEJO GONZALEZ                  00000000000000000022165AGENCIA TRAVEL BENEFITS000000000000000000000000000000000000000
02000001330010000000001000000000000000000000000000000000000051202407120120300004152314280860852MARIA DEJESUS BRIONES CISNEROS          opt220902__7202774_0                    MARIA DEJESUS BRIONES CISNEROS          00000000000000000022165AGENCIA TRAVEL BENEFITS000000000000000000000000000000000000000
02000001430010000000001000000000000000000000000000000000000051202407120120300004152314280860852MARIA DEJESUS BRIONES CISNEROS          opt220903__7202782_0                    MARIA DEJESUS BRIONES CISNEROS          00000000000000000022165AGENCIA TRAVEL BENEFITS000000000000000000000000000000000000000
02000001530010000000000900000000000000000000000000000000000051202407120364000036180500401525824JORGE ARIEL QUINTERO SALINAS            opt195931__6269397_21                   JORGE ARIEL QUINTERO SALINAS            00000000000000000022165AGENCIA TRAVEL BENEFITS000000000000000000000000000000000000000
02000001630010000000000884000000000000000000000000000000000051202407120140300005579100279375917ROCIO CENTENO ROJAS                     opt190455__7032220_21                   ROCIO CENTENO ROJAS                     00000000000000000022165AGENCIA TRAVEL BENEFITS000000000000000000000000000000000000000
02000001730010000000000766000000000000000000000000000000000051202407121270300004027665856834503MA CATALINA SANCHEZ VARGAS              opt216429__7057306_5                    MA CATALINA SANCHEZ VARGAS              00000000000000000022165AGENCIA TRAVEL BENEFITS000000000000000000000000000000000000000
02000001830010000000000766000000000000000000000000000000000051202407121270300004027665856834503MA CATALINA SANCHEZ VARGAS              opt216434__7057362_5                    MA CATALINA SANCHEZ VARGAS              00000000000000000022165AGENCIA TRAVEL BENEFITS000000000000000000000000000000000000000
02000001930010000000000766000000000000000000000000000000000051202407120120300004152313947645151MARIA DE LA LUZ PRADO ALVAREZ           opt203950__6572516_13                   MARIA DE LA LUZ PRADO ALVAREZ           00000000000000000022165AGENCIA TRAVEL BENEFITS000000000000000000000000000000000000000
02000002030010000000000766000000000000000000000000000000000051202407120124000012700014396202142ALAN ALEJANDRO TELLO RODRIGUEZ          opt209405__6786271_10                   ALAN ALEJANDRO TELLO RODRIGUEZ          00000000000000000022165AGENCIA TRAVEL BENEFITS000000000000000000000000000000000000000
02000002130010000000000766000000000000000000000000000000000051202407120124000012700014396202142ALAN ALEJANDRO TELLO RODRIGUEZ          opt209407__6786315_10                   ALAN ALEJANDRO TELLO RODRIGUEZ          00000000000000000022165AGENCIA TRAVEL BENEFITS000000000000000000000000000000000000000
02000002230010000000000766000000000000000000000000000000000051202407120120300004152313539490677YAHIRA MARTINEZ CORDOVA                 opt216313__7052231_4                    YAHIRA MARTINEZ CORDOVA                 00000000000000000022165AGENCIA TRAVEL BENEFITS000000000000000000000000000000000000000
02000002330010000000000766000000000000000000000000000000000051202407120120300004152313539490677YAHIRA MARTINEZ CORDOVA                 opt216314__7052211_4                    YAHIRA MARTINEZ CORDOVA                 00000000000000000022165AGENCIA TRAVEL BENEFITS000000000000000000000000000000000000000
02000002430010000000000766000000000000000000000000000000000051202407120140300005579100314737717MARTIN ANTONIO ALAMILLA ENSASTEGUI      opt209135__6775836_10                   MARTIN ANTONIO ALAMILLA ENSASTEGUI      00000000000000000022165AGENCIA TRAVEL BENEFITS000000000000000000000000000000000000000
02000002530010000000000766000000000000000000000000000000000051202407120144000014180568266569597CHISTIAN JESUS RAMIREZ GUERRERO         opt216412__7056565_4                    CHISTIAN JESUS RAMIREZ GUERRERO         00000000000000000022165AGENCIA TRAVEL BENEFITS000000000000000000000000000000000000000
02000002630010000000000766000000000000000000000000000000000051202407120144000014910567200584327GUILLERMO EDUARDO GUZM N ASCENCIO       opt217112__7083566_4                    GUILLERMO EDUARDO GUZM N ASCENCIO       00000000000000000022165AGENCIA TRAVEL BENEFITS000000000000000000000000000000000000000
02000002730010000000000766000000000000000000000000000000000051202407120144000014910567200584327GUILLERMO EDUARDO GUZM N ASCENCIO       opt217113__7083585_4                    GUILLERMO EDUARDO GUZM N ASCENCIO       00000000000000000022165AGENCIA TRAVEL BENEFITS000000000000000000000000000000000000000
02000002830010000000000766000000000000000000000000000000000051202407120140300005579100382373502EVA CLARA SOTELO BARRIOS                opt218250__7126222_4                    EVA CLARA SOTELO BARRIOS                00000000000000000022165AGENCIA TRAVEL BENEFITS000000000000000000000000000000000000000
02000002930010000000000766000000000000000000000000000000000051202407120140300005579100382373502EVA CLARA SOTELO BARRIOS                opt218252__7126241_4                    EVA CLARA SOTELO BARRIOS                00000000000000000022165AGENCIA TRAVEL BENEFITS000000000000000000000000000000000000000
02000003030010000000000766000000000000000000000000000000000051202407120140300005579100334733944FELIPE GARCIA CORONA                    opt212114__6891025_8                    FELIPE GARCIA CORONA                    00000000000000000022165AGENCIA TRAVEL BENEFITS000000000000000000000000000000000000000
02000003130010000000000766000000000000000000000000000000000051202407120140300005579100334733944FELIPE GARCIA CORONA                    opt212115__6891044_8                    FELIPE GARCIA CORONA                    00000000000000000022165AGENCIA TRAVEL BENEFITS000000000000000000000000000000000000000
02000003230010000000000766000000000000000000000000000000000051202407120144000014910567200584327GUILLERMO EDUARDO GUZMáN ASCENCIO      opt217112__7083567_5                    GUILLERMO EDUARDO GUZMáN ASCENCIO      00000000000000000022165AGENCIA TRAVEL BENEFITS000000000000000000000000000000000000000
02000003330010000000000766000000000000000000000000000000000051202407120144000014910567200584327GUILLERMO EDUARDO GUZMáN ASCENCIO      opt217113__7083586_5                    GUILLERMO EDUARDO GUZMáN ASCENCIO      00000000000000000022165AGENCIA TRAVEL BENEFITS000000000000000000000000000000000000000
02000003430010000000000766000000000000000000000000000000000051202407120210300004213166132162904SERGIO GABRIEL HERNANDEZ BRIENO         opt204542__6595807_14                   SERGIO GABRIEL HERNANDEZ BRIENO         00000000000000000022165AGENCIA TRAVEL BENEFITS000000000000000000000000000000000000000
02000003530010000000000766000000000000000000000000000000000051202407120210300004213166132162904SERGIO GABRIEL HERNANDEZ BRIENO         opt204546__6595744_14                   SERGIO GABRIEL HERNANDEZ BRIENO         00000000000000000022165AGENCIA TRAVEL BENEFITS000000000000000000000000000000000000000
02000003630010000000000766000000000000000000000000000000000051202407120210300004213166132162904SERGIO GABRIEL HERNANDEZ BRIENO         opt204547__6595700_14                   SERGIO GABRIEL HERNANDEZ BRIENO         00000000000000000022165AGENCIA TRAVEL BENEFITS000000000000000000000000000000000000000
02000003730010000000000766000000000000000000000000000000000051202407120210300004213166132162904SERGIO GABRIEL HERNANDEZ BRIENO         opt204555__6595826_14                   SERGIO GABRIEL HERNANDEZ BRIENO         00000000000000000022165AGENCIA TRAVEL BENEFITS000000000000000000000000000000000000000
02000003830010000000000766000000000000000000000000000000000051202407120210300004213166132162904SERGIO GABRIEL HERNANDEZ BRIENO         opt204556__6595845_14                   SERGIO GABRIEL HERNANDEZ BRIENO         00000000000000000022165AGENCIA TRAVEL BENEFITS000000000000000000000000000000000000000
02000003930010000000000766000000000000000000000000000000000051202407120724000072180004554484482MIRIAM MIRANDA NAJERA                   opt216079__7043739_6                    MIRIAM MIRANDA NAJERA                   00000000000000000022165AGENCIA TRAVEL BENEFITS000000000000000000000000000000000000000
02000004030010000000000766000000000000000000000000000000000051202407120724000072180004554484482MIRIAM MIRANDA NAJERA                   opt216080__7043776_6                    MIRIAM MIRANDA NAJERA                   00000000000000000022165AGENCIA TRAVEL BENEFITS000000000000000000000000000000000000000
02000004130010000000000747900000000000000000000000000000000051202407121270300005512382398782153SALVADOR MORENO ZALDIVAR                opt209941__6806158_9                    SALVADOR MORENO ZALDIVAR                00000000000000000022165AGENCIA TRAVEL BENEFITS000000000000000000000000000000000000000
02000004230010000000000747900000000000000000000000000000000051202407121270300005512382398782153SALVADOR MORENO ZALDIVAR                opt209942__6806171_9                    SALVADOR MORENO ZALDIVAR                00000000000000000022165AGENCIA TRAVEL BENEFITS000000000000000000000000000000000000000
02000004330010000000000747900000000000000000000000000000000051202407121270300005263540121043430GLORIA ASENCION VILLANUEVA GAONA        opt212357__6900929_8                    GLORIA ASENCION VILLANUEVA GAONA        00000000000000000022165AGENCIA TRAVEL BENEFITS000000000000000000000000000000000000000
02000004430010000000000747900000000000000000000000000000000051202407120440300004043130019154844CONSUELO SALCEDO GONZALEZ               opt217806__7109362_8                    CONSUELO SALCEDO GONZALEZ               00000000000000000022165AGENCIA TRAVEL BENEFITS000000000000000000000000000000000000000
02000004530010000000000737000000000000000000000000000000000051202407120140300005579100110780770LAURA HUERTA SEGUNDO                    opt219562__7164148_4                    LAURA HUERTA SEGUNDO                    00000000000000000022165AGENCIA TRAVEL BENEFITS000000000000000000000000000000000000000
02000004630010000000000737000000000000000000000000000000000051202407120140300005579100110780770LAURA HUERTA SEGUNDO                    opt219563__7164173_4                    LAURA HUERTA SEGUNDO                    00000000000000000022165AGENCIA TRAVEL BENEFITS000000000000000000000000000000000000000
02000004730010000000000662850000000000000000000000000000000051202407120210300004213166163569993GABRIELA SALDANA LOPEZ                  opt206928__6686226_18                   GABRIELA SALDANA LOPEZ                  00000000000000000022165AGENCIA TRAVEL BENEFITS000000000000000000000000000000000000000
02000004830010000000000662850000000000000000000000000000000051202407120210300004213166163569993GABRIELA SALDANA LOPEZ                  opt206928__6686227_19                   GABRIELA SALDANA LOPEZ                  00000000000000000022165AGENCIA TRAVEL BENEFITS000000000000000000000000000000000000000
02000004930010000000000662850000000000000000000000000000000051202407120210300004213166157631304HECTOR PENALOZA GUTIERREZ               opt210738__6836789_19                   HECTOR PENALOZA GUTIERREZ               00000000000000000022165AGENCIA TRAVEL BENEFITS000000000000000000000000000000000000000
02000005030010000000000662850000000000000000000000000000000051202407120210300004213166157631304HECTOR PENALOZA GUTIERREZ               opt211409__6863751_19                   HECTOR PENALOZA GUTIERREZ               00000000000000000022165AGENCIA TRAVEL BENEFITS000000000000000000000000000000000000000
02000005130010000000000662850000000000000000000000000000000051202407120720300004915669438008888JAIME VIDAL BAUTISTA                    opt215597__7026154_11                   JAIME VIDAL BAUTISTA                    00000000000000000022165AGENCIA TRAVEL BENEFITS000000000000000000000000000000000000000
02000005230010000000000662850000000000000000000000000000000051202407120720300004915669438008888JAIME VIDAL BAUTISTA                    opt215599__7026129_11                   JAIME VIDAL BAUTISTA                    00000000000000000022165AGENCIA TRAVEL BENEFITS000000000000000000000000000000000000000
02000005330010000000000657000000000000000000000000000000000051202407120140300005579100333478152D ANA ARCOS JIMENEZ                     opt217208__7086905_7                    D ANA ARCOS JIMENEZ                     00000000000000000022165AGENCIA TRAVEL BENEFITS000000000000000000000000000000000000000
02000005430010000000000657000000000000000000000000000000000051202407120140300005579100333478152D ANA ARCOS JIMENEZ                     opt217210__7086892_7                    D ANA ARCOS JIMENEZ                     00000000000000000022165AGENCIA TRAVEL BENEFITS000000000000000000000000000000000000000
02000005530010000000000657000000000000000000000000000000000051202407120140300005579100333478152DíANA ARCOS JIMENEZ                    opt217208__7086906_8                    DíANA ARCOS JIMENEZ                    00000000000000000022165AGENCIA TRAVEL BENEFITS000000000000000000000000000000000000000
02000005630010000000000657000000000000000000000000000000000051202407120140300005579100333478152DíANA ARCOS JIMENEZ                    opt217210__7086893_8                    DíANA ARCOS JIMENEZ                    00000000000000000022165AGENCIA TRAVEL BENEFITS000000000000000000000000000000000000000
02000005730010000000000656000000000000000000000000000000000051202407121274000127580001709505208JOSE CARLOS FANCO CRUZ                  opt218482__7133082_6                    JOSE CARLOS FANCO CRUZ                  00000000000000000022165AGENCIA TRAVEL BENEFITS000000000000000000000000000000000000000
02000005830010000000000656000000000000000000000000000000000051202407121274000127580001709505208JOSE CARLOS FANCO CRUZ                  opt218483__7133069_6                    JOSE CARLOS FANCO CRUZ                  00000000000000000022165AGENCIA TRAVEL BENEFITS000000000000000000000000000000000000000
02000005930010000000000656000000000000000000000000000000000051202407121270300005263540142041991MISSAEL HERN NDEZ BASTIDAS              opt219729__7169144_2                    MISSAEL HERN NDEZ BASTIDAS              00000000000000000022165AGENCIA TRAVEL BENEFITS000000000000000000000000000000000000000
02000006030010000000000656000000000000000000000000000000000051202407121270300005263540142041991MISSAEL HERN NDEZ BASTIDAS              opt219732__7169157_2                    MISSAEL HERN NDEZ BASTIDAS              00000000000000000022165AGENCIA TRAVEL BENEFITS000000000000000000000000000000000000000
02000006130010000000000656000000000000000000000000000000000051202407121274000127580001709505208JOSE CARLOS FANCO CRUZ                  opt218482__7133083_7                    JOSE CARLOS FANCO CRUZ                  00000000000000000022165AGENCIA TRAVEL BENEFITS000000000000000000000000000000000000000
02000006230010000000000656000000000000000000000000000000000051202407121274000127580001709505208JOSE CARLOS FANCO CRUZ                  opt218483__7133070_7                    JOSE CARLOS FANCO CRUZ                  00000000000000000022165AGENCIA TRAVEL BENEFITS000000000000000000000000000000000000000
02000006330010000000000656000000000000000000000000000000000051202407121270300005512382403170352SARA CRESENCIO AVILA                    opt218627__7137225_7                    SARA CRESENCIO AVILA                    00000000000000000022165AGENCIA TRAVEL BENEFITS000000000000000000000000000000000000000
02000006430010000000000656000000000000000000000000000000000051202407121270300005512382403170352SARA CRESENCIO AVILA                    opt218629__7137238_7                    SARA CRESENCIO AVILA                    00000000000000000022165AGENCIA TRAVEL BENEFITS000000000000000000000000000000000000000
02000006530010000000000656000000000000000000000000000000000051202407121370300004169161433078945ROBERTO CARLOS DELGADO L PEZ            opt219868__7173206_1                    ROBERTO CARLOS DELGADO L PEZ            00000000000000000022165AGENCIA TRAVEL BENEFITS000000000000000000000000000000000000000
02000006630010000000000656000000000000000000000000000000000051202407121370300004169161433078945ROBERTO CARLOS DELGADO L PEZ            opt219869__7173219_1                    ROBERTO CARLOS DELGADO L PEZ            00000000000000000022165AGENCIA TRAVEL BENEFITS000000000000000000000000000000000000000
02000006730010000000000656000000000000000000000000000000000051202407120024000002180903779985015MIRIAM LUCAS MARTINEZ                   opt219115__7150952_3                    MIRIAM LUCAS MARTINEZ                   00000000000000000022165AGENCIA TRAVEL BENEFITS000000000000000000000000000000000000000
02000006830010000000000656000000000000000000000000000000000051202407120024000002180903779985015MIRIAM LUCAS MARTINEZ                   opt219116__7150927_3                    MIRIAM LUCAS MARTINEZ                   00000000000000000022165AGENCIA TRAVEL BENEFITS000000000000000000000000000000000000000
02000006930010000000000656000000000000000000000000000000000051202407120070300004037070129025856JOSE REGINO PEREZ ROSALES               opt220907__7202848_1                    JOSE REGINO PEREZ ROSALES               00000000000000000022165AGENCIA TRAVEL BENEFITS000000000000000000000000000000000000000
02000007030010000000000656000000000000000000000000000000000051202407120120300004152313842119476ANDREA JAZMIN REYES ORTIZ               opt218459__7132621_3                    ANDREA JAZMIN REYES ORTIZ               00000000000000000022165AGENCIA TRAVEL BENEFITS000000000000000000000000000000000000000
02000007130010000000000656000000000000000000000000000000000051202407120120300004152314128946624INGRID FLORES WENCE                     opt218736__7140321_5                    INGRID FLORES WENCE                     00000000000000000022165AGENCIA TRAVEL BENEFITS000000000000000000000000000000000000000
02000007230010000000000656000000000000000000000000000000000051202407120120300004152314128946624INGRID FLORES WENCE                     opt218737__7140334_5                    INGRID FLORES WENCE                     00000000000000000022165AGENCIA TRAVEL BENEFITS000000000000000000000000000000000000000
02000007330010000000000656000000000000000000000000000000000051202407120120300004152313658976860ALEJANDRO ZAMORA LOPEZ                  opt218787__7141765_2                    ALEJANDRO ZAMORA LOPEZ                  00000000000000000022165AGENCIA TRAVEL BENEFITS000000000000000000000000000000000000000
02000007430010000000000656000000000000000000000000000000000051202407120120300004152313658976860ALEJANDRO ZAMORA LOPEZ                  opt218788__7141778_2                    ALEJANDRO ZAMORA LOPEZ                  00000000000000000022165AGENCIA TRAVEL BENEFITS000000000000000000000000000000000000000
02000007530010000000000656000000000000000000000000000000000051202407120120300004152313815548818MARCELINO REYES GARCIA                  opt219088__7150196_2                    MARCELINO REYES GARCIA                  00000000000000000022165AGENCIA TRAVEL BENEFITS000000000000000000000000000000000000000
02000007630010000000000656000000000000000000000000000000000051202407120120300004152313815548818MARCELINO REYES GARCIA                  opt219089__7150209_2                    MARCELINO REYES GARCIA                  00000000000000000022165AGENCIA TRAVEL BENEFITS000000000000000000000000000000000000000
02000007730010000000000656000000000000000000000000000000000051202407120120300004152313810532635ALEJANDRA BADILLO ORNELAS               opt219403__7159278_2                    ALEJANDRA BADILLO ORNELAS               00000000000000000022165AGENCIA TRAVEL BENEFITS000000000000000000000000000000000000000
02000007830010000000000656000000000000000000000000000000000051202407120144000014180568466407307ANA LADY CALDER N AGUILAR               opt220119__7179405_1                    ANA LADY CALDER N AGUILAR               00000000000000000022165AGENCIA TRAVEL BENEFITS000000000000000000000000000000000000000
02000007930010000000000656000000000000000000000000000000000051202407120140300005579100421585769SANDRA VITE MIGUEL                      opt220380__7187664_2                    SANDRA VITE MIGUEL                      00000000000000000022165AGENCIA TRAVEL BENEFITS000000000000000000000000000000000000000
02000008030010000000000656000000000000000000000000000000000051202407120140300005579100421585769SANDRA VITE MIGUEL                      opt220381__7187677_2                    SANDRA VITE MIGUEL                      00000000000000000022165AGENCIA TRAVEL BENEFITS000000000000000000000000000000000000000
02000008130010000000000656000000000000000000000000000000000051202407120194000019180080041079303CYNTHIA JAZMíN ESPINOZA CHAVEZ         opt218503__7133782_4                    CYNTHIA JAZMíN ESPINOZA CHAVEZ         00000000000000000022165AGENCIA TRAVEL BENEFITS000000000000000000000000000000000000000
02000008230010000000000656000000000000000000000000000000000051202407120214000021767065238207563DULCE MARIA ROMERO MENDEZ               opt219439__7160410_1                    DULCE MARIA ROMERO MENDEZ               00000000000000000022165AGENCIA TRAVEL BENEFITS000000000000000000000000000000000000000
02000008330010000000000656000000000000000000000000000000000051202407120214000021767065238207563DULCE MARIA ROMERO MENDEZ               opt219440__7160448_1                    DULCE MARIA ROMERO MENDEZ               00000000000000000022165AGENCIA TRAVEL BENEFITS000000000000000000000000000000000000000
02000008430010000000000656000000000000000000000000000000000051202407120214000021767065238207563DULCE MARIA ROMERO MENDEZ               opt219440__7160449_2                    DULCE MARIA ROMERO MENDEZ               00000000000000000022165AGENCIA TRAVEL BENEFITS000000000000000000000000000000000000000
02000008530010000000000656000000000000000000000000000000000051202407120720300004189143214459391FLORENCIA ESPARZA HERNANDEZ             opt219441__7160398_2                    FLORENCIA ESPARZA HERNANDEZ             00000000000000000022165AGENCIA TRAVEL BENEFITS000000000000000000000000000000000000000
02000008630010000000000608790000000000000000000000000000000051202407120120300004152313634241025FAMA VANESSA L PEZ CRUZ                 opt218806__7142508_4                    FAMA VANESSA L PEZ CRUZ                 00000000000000000022165AGENCIA TRAVEL BENEFITS000000000000000000000000000000000000000
02000008730010000000000591300000000000000000000000000000000051202407121270300004027665826710973JESUS VALLEJO GONZALEZ                  opt213018__6925732_8                    JESUS VALLEJO GONZALEZ                  00000000000000000022165AGENCIA TRAVEL BENEFITS000000000000000000000000000000000000000
02000008830010000000000591300000000000000000000000000000000051202407121270300004027665826710973JESUS VALLEJO GONZALEZ                  opt213019__6925745_8                    JESUS VALLEJO GONZALEZ                  00000000000000000022165AGENCIA TRAVEL BENEFITS000000000000000000000000000000000000000
02000008930010000000000591300000000000000000000000000000000051202407120124000012441028917734881SANDRA PAULA AGUIRRE MONDRAGON          opt217332__7091208_4                    SANDRA PAULA AGUIRRE MONDRAGON          00000000000000000022165AGENCIA TRAVEL BENEFITS000000000000000000000000000000000000000
02000009030010000000000591300000000000000000000000000000000051202407120124000012180015885575640ERICK GOVEA APARICIO                    opt217382__7092866_3                    ERICK GOVEA APARICIO                    00000000000000000022165AGENCIA TRAVEL BENEFITS000000000000000000000000000000000000000
02000009130010000000000591300000000000000000000000000000000051202407120124000012180015885575640ERICK GOVEA APARICIO                    opt217383__7092879_3                    ERICK GOVEA APARICIO                    00000000000000000022165AGENCIA TRAVEL BENEFITS000000000000000000000000000000000000000
02000009230010000000000591300000000000000000000000000000000051202407120124000012180015885575640ERICK GOVEA APARICIO                    opt217384__7092892_3                    ERICK GOVEA APARICIO                    00000000000000000022165AGENCIA TRAVEL BENEFITS000000000000000000000000000000000000000
02000009330010000000000591300000000000000000000000000000000051202407120124000012180015885575640ERICK GOVEA APARICIO                    opt217385__7092943_3                    ERICK GOVEA APARICIO                    00000000000000000022165AGENCIA TRAVEL BENEFITS000000000000000000000000000000000000000
02000009430010000000000591300000000000000000000000000000000051202407120124000012180015885575640ERICK GOVEA APARICIO                    opt217386__7092956_3                    ERICK GOVEA APARICIO                    00000000000000000022165AGENCIA TRAVEL BENEFITS000000000000000000000000000000000000000
02000009530010000000000591300000000000000000000000000000000051202407120124000012180015885575640ERICK GOVEA APARICIO                    opt217388__7092969_3                    ERICK GOVEA APARICIO                    00000000000000000022165AGENCIA TRAVEL BENEFITS000000000000000000000000000000000000000
02000009630010000000000591300000000000000000000000000000000051202407120124000012180015885575640ERICK GOVEA APARICIO                    opt217389__7093020_3                    ERICK GOVEA APARICIO                    00000000000000000022165AGENCIA TRAVEL BENEFITS000000000000000000000000000000000000000
02000009730010000000000591300000000000000000000000000000000051202407120140300005579100238000317WENDY BERNAL MUNOZ                      opt216836__7072995_1                    WENDY BERNAL MUNOZ                      00000000000000000022165AGENCIA TRAVEL BENEFITS000000000000000000000000000000000000000
02000009830010000000000591300000000000000000000000000000000051202407120210300004213166160475863MIGUEL PEIMBERT CASTILLO                opt206889__6685379_11                   MIGUEL PEIMBERT CASTILLO                00000000000000000022165AGENCIA TRAVEL BENEFITS000000000000000000000000000000000000000
02000009930010000000000576450000000000000000000000000000000051202407120124000012180015127994002ROSARIO ROJAS GARCIA                    opt214966__7000357_13                   ROSARIO ROJAS GARCIA                    00000000000000000022165AGENCIA TRAVEL BENEFITS000000000000000000000000000000000000000
02000010030010000000000576450000000000000000000000000000000051202407120124000012180015127994002ROSARIO ROJAS GARCIA                    opt214966__7000358_14                   ROSARIO ROJAS GARCIA                    00000000000000000022165AGENCIA TRAVEL BENEFITS000000000000000000000000000000000000000
02000010130010000000000576450000000000000000000000000000000051202407120124000012180015127994002ROSARIO ROJAS GARCIA                    opt214968__7000419_13                   ROSARIO ROJAS GARCIA                    00000000000000000022165AGENCIA TRAVEL BENEFITS000000000000000000000000000000000000000
02000010230010000000000576450000000000000000000000000000000051202407120124000012180015127994002ROSARIO ROJAS GARCIA                    opt214968__7000420_14                   ROSARIO ROJAS GARCIA                    00000000000000000022165AGENCIA TRAVEL BENEFITS000000000000000000000000000000000000000
02000010330010000000000576450000000000000000000000000000000051202407120140300005579100323986834ISSAI HURTADO VIDAL                     opt210215__6816589_19                   ISSAI HURTADO VIDAL                     00000000000000000022165AGENCIA TRAVEL BENEFITS000000000000000000000000000000000000000
02000010430010000000000576450000000000000000000000000000000051202407120140300005579100323986834ISSAI HURTADO VIDAL                     opt210218__6816614_19                   ISSAI HURTADO VIDAL                     00000000000000000022165AGENCIA TRAVEL BENEFITS000000000000000000000000000000000000000
02000010530010000000000576450000000000000000000000000000000051202407120620300004130980402715591RAFAEL ERNESTO VILLALOBOS HERRERA       opt208984__6770175_11                   RAFAEL ERNESTO VILLALOBOS HERRERA       00000000000000000022165AGENCIA TRAVEL BENEFITS000000000000000000000000000000000000000
02000010630010000000000574500000000000000000000000000000000051202407120020300005256781496677696MARIA GUADALUPE TELLEZ NILA             opt215838__7034718_10                   MARIA GUADALUPE TELLEZ NILA             00000000000000000022165AGENCIA TRAVEL BENEFITS000000000000000000000000000000000000000
02000010730010000000000574000000000000000000000000000000000051202407121270300005263540140713245MARITZA DEL CARMEN ROMERO CRUZ          opt218224__7125715_3                    MARITZA DEL CARMEN ROMERO CRUZ          00000000000000000022165AGENCIA TRAVEL BENEFITS000000000000000000000000000000000000000
02000010830010000000000574000000000000000000000000000000000051202407121270300005263540140713245MARITZA DEL CARMEN ROMERO CRUZ          opt218225__7125690_3                    MARITZA DEL CARMEN ROMERO CRUZ          00000000000000000022165AGENCIA TRAVEL BENEFITS000000000000000000000000000000000000000
02000010930010000000000574000000000000000000000000000000000051202407121270300004027665854444115BRIAN ENRIQUE GARC A RAM REZ            opt218371__7130137_5                    BRIAN ENRIQUE GARC A RAM REZ            00000000000000000022165AGENCIA TRAVEL BENEFITS000000000000000000000000000000000000000
02000011030010000000000574000000000000000000000000000000000051202407121270300004027665854444115BRIAN ENRIQUE GARC A RAM REZ            opt218372__7130162_5                    BRIAN ENRIQUE GARC A RAM REZ            00000000000000000022165AGENCIA TRAVEL BENEFITS000000000000000000000000000000000000000
02000011130010000000000574000000000000000000000000000000000051202407121270300004027665000987108RAFAEL MENDOZA ROQUE                    opt218452__7132433_2                    RAFAEL MENDOZA ROQUE                    00000000000000000022165AGENCIA TRAVEL BENEFITS000000000000000000000000000000000000000
02000011230010000000000574000000000000000000000000000000000051202407121270300004027665005869202MICHEL ALEJANDRA MEDINA MENDOZA         opt218506__7133845_4                    MICHEL ALEJANDRA MEDINA MENDOZA         00000000000000000022165AGENCIA TRAVEL BENEFITS000000000000000000000000000000000000000
02000011330010000000000574000000000000000000000000000000000051202407121270300004027665005869202MICHEL ALEJANDRA MEDINA MENDOZA         opt218507__7133870_4                    MICHEL ALEJANDRA MEDINA MENDOZA         00000000000000000022165AGENCIA TRAVEL BENEFITS000000000000000000000000000000000000000
02000011430010000000000574000000000000000000000000000000000051202407121270300004027665005869202MICHEL ALEJANDRA MEDINA MENDOZA         opt218508__7133895_4                    MICHEL ALEJANDRA MEDINA MENDOZA         00000000000000000022165AGENCIA TRAVEL BENEFITS000000000000000000000000000000000000000
02000011530010000000000574000000000000000000000000000000000051202407121270300004027665005869202MICHEL ALEJANDRA MEDINA MENDOZA         opt218509__7133920_4                    MICHEL ALEJANDRA MEDINA MENDOZA         00000000000000000022165AGENCIA TRAVEL BENEFITS000000000000000000000000000000000000000
02000011630010000000000574000000000000000000000000000000000051202407121274000127180016044798246HUGO TAPIA DIAZ                         opt218517__7134146_5                    HUGO TAPIA DIAZ                         00000000000000000022165AGENCIA TRAVEL BENEFITS000000000000000000000000000000000000000
02000011730010000000000574000000000000000000000000000000000051202407121274000127180016868819686MARCO ANTONIO RUIZ VAZQUEZ              opt218563__7135375_4                    MARCO ANTONIO RUIZ VAZQUEZ              00000000000000000022165AGENCIA TRAVEL BENEFITS000000000000000000000000000000000000000
02000011830010000000000574000000000000000000000000000000000051202407121270300004027665798452372JORGE IGNACIO VEGA LOZANO               opt218722__7140242_4                    JORGE IGNACIO VEGA LOZANO               00000000000000000022165AGENCIA TRAVEL BENEFITS000000000000000000000000000000000000000
02000011930010000000000574000000000000000000000000000000000051202407121270300004027664180420626FATIMA ZARAGOZA FLORES                  opt218751__7140718_5                    FATIMA ZARAGOZA FLORES                  00000000000000000022165AGENCIA TRAVEL BENEFITS000000000000000000000000000000000000000
02000012030010000000000574000000000000000000000000000000000051202407121274000127180013960836094FATIMA ZARAGOZA FLORES                  opt218752__7140743_5                    FATIMA ZARAGOZA FLORES                  00000000000000000022165AGENCIA TRAVEL BENEFITS000000000000000000000000000000000000000
02000012130010000000000574000000000000000000000000000000000051202407121274000127180013405245726JUAN CARLOS HERNANDEZ GONZALEZ          opt218927__7145775_3                    JUAN CARLOS HERNANDEZ GONZALEZ          00000000000000000022165AGENCIA TRAVEL BENEFITS000000000000000000000000000000000000000
02000012230010000000000574000000000000000000000000000000000051202407121274000127180013405245726JUAN CARLOS HERNANDEZ GONZALEZ          opt218928__7145800_3                    JUAN CARLOS HERNANDEZ GONZALEZ          00000000000000000022165AGENCIA TRAVEL BENEFITS000000000000000000000000000000000000000
02000012330010000000000574000000000000000000000000000000000051202407121270300004198210192121589MARIA NINFA ESCALANTE NOLASEA           opt218981__7147212_3                    MARIA NINFA ESCALANTE NOLASEA           00000000000000000022165AGENCIA TRAVEL BENEFITS000000000000000000000000000000000000000
02000012430010000000000574000000000000000000000000000000000051202407121270300005512382420591002RICARDO PEREZ RUIZ                      opt219035__7148722_4                    RICARDO PEREZ RUIZ                      00000000000000000022165AGENCIA TRAVEL BENEFITS000000000000000000000000000000000000000
02000012530010000000000574000000000000000000000000000000000051202407121270300005512382420591002RICARDO PEREZ RUIZ                      opt219036__7148747_4                    RICARDO PEREZ RUIZ                      00000000000000000022165AGENCIA TRAVEL BENEFITS000000000000000000000000000000000000000
02000012630010000000000574000000000000000000000000000000000051202407121270300005512382420591002RICARDO PEREZ RUIZ                      opt219037__7148772_4                    RICARDO PEREZ RUIZ                      00000000000000000022165AGENCIA TRAVEL BENEFITS000000000000000000000000000000000000000
02000012730010000000000574000000000000000000000000000000000051202407121270300005512382420591002RICARDO PEREZ RUIZ                      opt219038__7148797_4                    RICARDO PEREZ RUIZ                      00000000000000000022165AGENCIA TRAVEL BENEFITS000000000000000000000000000000000000000
02000012830010000000000574000000000000000000000000000000000051202407121270300005263540129638033MARIA DEL ROCIO GARCIA VILLEDA          opt219076__7149842_1                    MARIA DEL ROCIO GARCIA VILLEDA          00000000000000000022165AGENCIA TRAVEL BENEFITS000000000000000000000000000000000000000
02000012930010000000000574000000000000000000000000000000000051202407121270300005263540129638033MARIA DEL ROCIO GARCIA VILLEDA          opt219076__7149843_2                    MARIA DEL ROCIO GARCIA VILLEDA          00000000000000000022165AGENCIA TRAVEL BENEFITS000000000000000000000000000000000000000
02000013030010000000000574000000000000000000000000000000000051202407121270300005263540129638033MARIA DEL ROCIO GARCIA VILLEDA          opt219077__7149867_1                    MARIA DEL ROCIO GARCIA VILLEDA          00000000000000000022165AGENCIA TRAVEL BENEFITS000000000000000000000000000000000000000
02000013130010000000000574000000000000000000000000000000000051202407121270300005263540129638033MARIA DEL ROCIO GARCIA VILLEDA          opt219077__7149868_2                    MARIA DEL ROCIO GARCIA VILLEDA          00000000000000000022165AGENCIA TRAVEL BENEFITS000000000000000000000000000000000000000
02000013230010000000000574000000000000000000000000000000000051202407121270300004027665006433495ILYA NAZIM ZAMUDIO REYNOSO              opt219212__7153546_4                    ILYA NAZIM ZAMUDIO REYNOSO              00000000000000000022165AGENCIA TRAVEL BENEFITS000000000000000000000000000000000000000
02000013330010000000000574000000000000000000000000000000000051202407121270300004027665804236363GLORIA NESSHAMA ALCOCER LOPEZ           opt219496__7162116_2                    GLORIA NESSHAMA ALCOCER LOPEZ           00000000000000000022165AGENCIA TRAVEL BENEFITS000000000000000000000000000000000000000
02000013430010000000000574000000000000000000000000000000000051202407121270300004027665804236363GLORIA NESSHAMA ALCOCER LOPEZ           opt219498__7162141_2                    GLORIA NESSHAMA ALCOCER LOPEZ           00000000000000000022165AGENCIA TRAVEL BENEFITS000000000000000000000000000000000000000
02000013530010000000000574000000000000000000000000000000000051202407121270300005512382423259714JOSE GUADALUPE CERVANTES GRANADA        opt219888__7174094_2                    JOSE GUADALUPE CERVANTES GRANADA        00000000000000000022165AGENCIA TRAVEL BENEFITS000000000000000000000000000000000000000
02000013630010000000000574000000000000000000000000000000000051202407121270300004027665733557251IVAN YAIR HERNANDEZ MEDEL               opt220043__7176894_1                    IVAN YAIR HERNANDEZ MEDEL               00000000000000000022165AGENCIA TRAVEL BENEFITS000000000000000000000000000000000000000
02000013730010000000000574000000000000000000000000000000000051202407121270300004027665733557251IVAN YAIR HERNANDEZ MEDEL               opt220044__7176993_1                    IVAN YAIR HERNANDEZ MEDEL               00000000000000000022165AGENCIA TRAVEL BENEFITS000000000000000000000000000000000000000
02000013830010000000000574000000000000000000000000000000000051202407121270300005263540140713245MARITZA DEL CARMEN ROMERO CRUZ          opt218224__7125716_4                    MARITZA DEL CARMEN ROMERO CRUZ          00000000000000000022165AGENCIA TRAVEL BENEFITS000000000000000000000000000000000000000
02000013930010000000000574000000000000000000000000000000000051202407121270300005263540140713245MARITZA DEL CARMEN ROMERO CRUZ          opt218225__7125691_4                    MARITZA DEL CARMEN ROMERO CRUZ          00000000000000000022165AGENCIA TRAVEL BENEFITS000000000000000000000000000000000000000
02000014030010000000000574000000000000000000000000000000000051202407121270300004027665854444115BRIAN ENRIQUE GARCìA RAMìREZ          opt218371__7130138_6                    BRIAN ENRIQUE GARCìA RAMìREZ          00000000000000000022165AGENCIA TRAVEL BENEFITS000000000000000000000000000000000000000
02000014130010000000000574000000000000000000000000000000000051202407121270300004027665854444115BRIAN ENRIQUE GARCìA RAMìREZ          opt218372__7130163_6                    BRIAN ENRIQUE GARCìA RAMìREZ          00000000000000000022165AGENCIA TRAVEL BENEFITS000000000000000000000000000000000000000
02000014230010000000000574000000000000000000000000000000000051202407121270300004027665000987108RAFAEL MENDOZA ROQUE                    opt218452__7132434_3                    RAFAEL MENDOZA ROQUE                    00000000000000000022165AGENCIA TRAVEL BENEFITS000000000000000000000000000000000000000
02000014330010000000000574000000000000000000000000000000000051202407121270300004027665005869202MICHEL ALEJANDRA MEDINA MENDOZA         opt218506__7133846_5                    MICHEL ALEJANDRA MEDINA MENDOZA         00000000000000000022165AGENCIA TRAVEL BENEFITS000000000000000000000000000000000000000
02000014430010000000000574000000000000000000000000000000000051202407121270300004027665005869202MICHEL ALEJANDRA MEDINA MENDOZA         opt218507__7133871_5                    MICHEL ALEJANDRA MEDINA MENDOZA         00000000000000000022165AGENCIA TRAVEL BENEFITS000000000000000000000000000000000000000
02000014530010000000000574000000000000000000000000000000000051202407121270300004027665005869202MICHEL ALEJANDRA MEDINA MENDOZA         opt218508__7133896_5                    MICHEL ALEJANDRA MEDINA MENDOZA         00000000000000000022165AGENCIA TRAVEL BENEFITS000000000000000000000000000000000000000
02000014630010000000000574000000000000000000000000000000000051202407121270300004027665005869202MICHEL ALEJANDRA MEDINA MENDOZA         opt218509__7133921_5                    MICHEL ALEJANDRA MEDINA MENDOZA         00000000000000000022165AGENCIA TRAVEL BENEFITS000000000000000000000000000000000000000
02000014730010000000000574000000000000000000000000000000000051202407121274000127180016044798246HUGO TAPIA DIAZ                         opt218517__7134147_6                    HUGO TAPIA DIAZ                         00000000000000000022165AGENCIA TRAVEL BENEFITS000000000000000000000000000000000000000
02000014830010000000000574000000000000000000000000000000000051202407121274000127180016868819686MARCO ANTONIO RUIZ VAZQUEZ              opt218563__7135376_5                    MARCO ANTONIO RUIZ VAZQUEZ              00000000000000000022165AGENCIA TRAVEL BENEFITS000000000000000000000000000000000000000
02000014930010000000000574000000000000000000000000000000000051202407121270300004027665798452372JORGE IGNACIO VEGA LOZANO               opt218722__7140243_5                    JORGE IGNACIO VEGA LOZANO               00000000000000000022165AGENCIA TRAVEL BENEFITS000000000000000000000000000000000000000
02000015030010000000000574000000000000000000000000000000000051202407121270300004027664180420626FATIMA ZARAGOZA FLORES                  opt218751__7140719_6                    FATIMA ZARAGOZA FLORES                  00000000000000000022165AGENCIA TRAVEL BENEFITS000000000000000000000000000000000000000
02000015130010000000000574000000000000000000000000000000000051202407121274000127180013960836094FATIMA ZARAGOZA FLORES                  opt218752__7140744_6                    FATIMA ZARAGOZA FLORES                  00000000000000000022165AGENCIA TRAVEL BENEFITS000000000000000000000000000000000000000
02000015230010000000000574000000000000000000000000000000000051202407121274000127180013405245726JUAN CARLOS HERNANDEZ GONZALEZ          opt218927__7145776_4                    JUAN CARLOS HERNANDEZ GONZALEZ          00000000000000000022165AGENCIA TRAVEL BENEFITS000000000000000000000000000000000000000
02000015330010000000000574000000000000000000000000000000000051202407121274000127180013405245726JUAN CARLOS HERNANDEZ GONZALEZ          opt218928__7145801_4                    JUAN CARLOS HERNANDEZ GONZALEZ          00000000000000000022165AGENCIA TRAVEL BENEFITS000000000000000000000000000000000000000
02000015430010000000000574000000000000000000000000000000000051202407121270300004198210192121589MARIA NINFA ESCALANTE NOLASEA           opt218981__7147213_4                    MARIA NINFA ESCALANTE NOLASEA           00000000000000000022165AGENCIA TRAVEL BENEFITS000000000000000000000000000000000000000
02000015530010000000000574000000000000000000000000000000000051202407121270300005263540139954602ERWIN GALLARDO URIBE                    opt218998__7147682_6                    ERWIN GALLARDO URIBE                    00000000000000000022165AGENCIA TRAVEL BENEFITS000000000000000000000000000000000000000
02000015630010000000000574000000000000000000000000000000000051202407121270300005512382420591002RICARDO PEREZ RUIZ                      opt219035__7148723_5                    RICARDO PEREZ RUIZ                      00000000000000000022165AGENCIA TRAVEL BENEFITS000000000000000000000000000000000000000
02000015730010000000000574000000000000000000000000000000000051202407121270300005512382420591002RICARDO PEREZ RUIZ                      opt219036__7148748_5                    RICARDO PEREZ RUIZ                      00000000000000000022165AGENCIA TRAVEL BENEFITS000000000000000000000000000000000000000
02000015830010000000000574000000000000000000000000000000000051202407121270300005512382420591002RICARDO PEREZ RUIZ                      opt219037__7148773_5                    RICARDO PEREZ RUIZ                      00000000000000000022165AGENCIA TRAVEL BENEFITS000000000000000000000000000000000000000
02000015930010000000000574000000000000000000000000000000000051202407121270300005512382420591002RICARDO PEREZ RUIZ                      opt219038__7148798_5                    RICARDO PEREZ RUIZ                      00000000000000000022165AGENCIA TRAVEL BENEFITS000000000000000000000000000000000000000
02000016030010000000000574000000000000000000000000000000000051202407121274000127456017431926354BRENDA KARINA SàNCHEZ LARIOS           opt219202__7153369_5                    BRENDA KARINA SàNCHEZ LARIOS           00000000000000000022165AGENCIA TRAVEL BENEFITS000000000000000000000000000000000000000
02000016130010000000000574000000000000000000000000000000000051202407121274000127456017431926354BRENDA KARINA SàNCHEZ LARIOS           opt219203__7153394_5                    BRENDA KARINA SàNCHEZ LARIOS           00000000000000000022165AGENCIA TRAVEL BENEFITS000000000000000000000000000000000000000
02000016230010000000000574000000000000000000000000000000000051202407121270300004027665751085128SILVIA JANETH ALTAMIRANO ARMENDARIZ     opt219382__7158786_2                    SILVIA JANETH ALTAMIRANO ARMENDARIZ     00000000000000000022165AGENCIA TRAVEL BENEFITS000000000000000000000000000000000000000
02000016330010000000000574000000000000000000000000000000000051202407121270300004027665751085128SILVIA JANETH ALTAMIRANO ARMENDARIZ     opt219383__7158811_2                    SILVIA JANETH ALTAMIRANO ARMENDARIZ     00000000000000000022165AGENCIA TRAVEL BENEFITS000000000000000000000000000000000000000
02000016430010000000000574000000000000000000000000000000000051202407121270300004027665804236363GLORIA NESSHAMA ALCOCER LOPEZ           opt219496__7162117_3                    GLORIA NESSHAMA ALCOCER LOPEZ           00000000000000000022165AGENCIA TRAVEL BENEFITS000000000000000000000000000000000000000
02000016530010000000000574000000000000000000000000000000000051202407121270300004027665804236363GLORIA NESSHAMA ALCOCER LOPEZ           opt219498__7162142_3                    GLORIA NESSHAMA ALCOCER LOPEZ           00000000000000000022165AGENCIA TRAVEL BENEFITS000000000000000000000000000000000000000
02000016630010000000000574000000000000000000000000000000000051202407121270300004198220049317553ROGER BRAYAN REMIGIO VALENCIA           opt219610__7165553_2                    ROGER BRAYAN REMIGIO VALENCIA           00000000000000000022165AGENCIA TRAVEL BENEFITS000000000000000000000000000000000000000
02000016730010000000000574000000000000000000000000000000000051202407121270300004027665825720825ABRAHAM SEGURA DEL LLANO                opt219799__7171160_4                    ABRAHAM SEGURA DEL LLANO                00000000000000000022165AGENCIA TRAVEL BENEFITS000000000000000000000000000000000000000
02000016830010000000000574000000000000000000000000000000000051202407121270300005512382423259714JOSE GUADALUPE CERVANTES GRANADA        opt219888__7174095_3                    JOSE GUADALUPE CERVANTES GRANADA        00000000000000000022165AGENCIA TRAVEL BENEFITS000000000000000000000000000000000000000
02000016930010000000000574000000000000000000000000000000000051202407121274000127180013086596713JALIL NASHELY MARTINEZ CRISOSTOMO       opt219923__7174785_2                    JALIL NASHELY MARTINEZ CRISOSTOMO       00000000000000000022165AGENCIA TRAVEL BENEFITS000000000000000000000000000000000000000
02000017030010000000000574000000000000000000000000000000000051202407121274000127180013086596713JALIL NASHELY MARTINEZ CRISOSTOMO       opt219955__7174757_2                    JALIL NASHELY MARTINEZ CRISOSTOMO       00000000000000000022165AGENCIA TRAVEL BENEFITS000000000000000000000000000000000000000
02000017130010000000000574000000000000000000000000000000000051202407121270300004027665733557251IVAN YAIR HERNANDEZ MEDEL               opt220043__7176895_2                    IVAN YAIR HERNANDEZ MEDEL               00000000000000000022165AGENCIA TRAVEL BENEFITS000000000000000000000000000000000000000
02000017230010000000000574000000000000000000000000000000000051202407121270300004027665733557251IVAN YAIR HERNANDEZ MEDEL               opt220044__7176994_2                    IVAN YAIR HERNANDEZ MEDEL               00000000000000000022165AGENCIA TRAVEL BENEFITS000000000000000000000000000000000000000
02000017330010000000000574000000000000000000000000000000000051202407121270300004027666104987598SERGIO ZURIAGA BECERRIL                 opt220191__7181984_3                    SERGIO ZURIAGA BECERRIL                 00000000000000000022165AGENCIA TRAVEL BENEFITS000000000000000000000000000000000000000
02000017430010000000000574000000000000000000000000000000000051202407121374000137180103414964095ARIANNA MEJIA VARGAS                    opt218434__7131959_5                    ARIANNA MEJIA VARGAS                    00000000000000000022165AGENCIA TRAVEL BENEFITS000000000000000000000000000000000000000
02000017530010000000000574000000000000000000000000000000000051202407121374000137180103414964095ARIANNA MEJIA VARGAS                    opt218435__7131934_5                    ARIANNA MEJIA VARGAS                    00000000000000000022165AGENCIA TRAVEL BENEFITS000000000000000000000000000000000000000
02000017630010000000000574000000000000000000000000000000000051202407121374000137180103414964095ARIANNA MEJIA VARGAS                    opt218437__7131909_5                    ARIANNA MEJIA VARGAS                    00000000000000000022165AGENCIA TRAVEL BENEFITS000000000000000000000000000000000000000
02000017730010000000000574000000000000000000000000000000000051202407121370300004169160849847869EDUARDO FLORES V ZQUEZ                  opt218505__7133820_4                    EDUARDO FLORES V ZQUEZ                  00000000000000000022165AGENCIA TRAVEL BENEFITS000000000000000000000000000000000000000
02000017830010000000000574000000000000000000000000000000000051202407121370300004169161422982677BRENDA AMELIA ACOSTA ARANDA             opt218819__7142594_3                    BRENDA AMELIA ACOSTA ARANDA             00000000000000000022165AGENCIA TRAVEL BENEFITS000000000000000000000000000000000000000
02000017930010000000000574000000000000000000000000000000000051202407121370300004169161422982677BRENDA AMELIA ACOSTA ARANDA             opt218820__7142619_3                    BRENDA AMELIA ACOSTA ARANDA             00000000000000000022165AGENCIA TRAVEL BENEFITS000000000000000000000000000000000000000
02000018030010000000000574000000000000000000000000000000000051202407121370300004169161415744621PATRICIA MOLINA RODRIGUEZ               opt219446__7160490_3                    PATRICIA MOLINA RODRIGUEZ               00000000000000000022165AGENCIA TRAVEL BENEFITS000000000000000000000000000000000000000
02000018130010000000000574000000000000000000000000000000000051202407121374000137180103414964095ARIANNA MEJIA VARGAS                    opt218434__7131960_6                    ARIANNA MEJIA VARGAS                    00000000000000000022165AGENCIA TRAVEL BENEFITS000000000000000000000000000000000000000
02000018230010000000000574000000000000000000000000000000000051202407121374000137180103414964095ARIANNA MEJIA VARGAS                    opt218435__7131935_6                    ARIANNA MEJIA VARGAS                    00000000000000000022165AGENCIA TRAVEL BENEFITS000000000000000000000000000000000000000
02000018330010000000000574000000000000000000000000000000000051202407121374000137180103414964095ARIANNA MEJIA VARGAS                    opt218437__7131910_6                    ARIANNA MEJIA VARGAS                    00000000000000000022165AGENCIA TRAVEL BENEFITS000000000000000000000000000000000000000
02000018430010000000000574000000000000000000000000000000000051202407121370300004169160849847869EDUARDO FLORES VáZQUEZ                 opt218505__7133821_5                    EDUARDO FLORES VáZQUEZ                 00000000000000000022165AGENCIA TRAVEL BENEFITS000000000000000000000000000000000000000
02000018530010000000000574000000000000000000000000000000000051202407121370300004169161422982677BRENDA AMELIA ACOSTA ARANDA             opt218819__7142595_4                    BRENDA AMELIA ACOSTA ARANDA             00000000000000000022165AGENCIA TRAVEL BENEFITS000000000000000000000000000000000000000
02000018630010000000000574000000000000000000000000000000000051202407121370300004169161422982677BRENDA AMELIA ACOSTA ARANDA             opt218820__7142620_4                    BRENDA AMELIA ACOSTA ARANDA             00000000000000000022165AGENCIA TRAVEL BENEFITS000000000000000000000000000000000000000
02000018730010000000000574000000000000000000000000000000000051202407121370300004169161419681423ANA YAMILET CEJA NUñEZ                 opt218871__7144333_4                    ANA YAMILET CEJA NUñEZ                 00000000000000000022165AGENCIA TRAVEL BENEFITS000000000000000000000000000000000000000
02000018830010000000000574000000000000000000000000000000000051202407121370300004169161415744621PATRICIA MOLINA RODRIGUEZ               opt219446__7160491_4                    PATRICIA MOLINA RODRIGUEZ               00000000000000000022165AGENCIA TRAVEL BENEFITS000000000000000000000000000000000000000
02000018930010000000000574000000000000000000000000000000000051202407121370300004169160863757440GONZALO GUADALUPE RAMIREZ RODRIGUEZ     opt219954__7176215_3                    GONZALO GUADALUPE RAMIREZ RODRIGUEZ     00000000000000000022165AGENCIA TRAVEL BENEFITS000000000000000000000000000000000000000
02000019030010000000000574000000000000000000000000000000000051202407121370300004169161446580374JUAN RAMON ROMO LEON                    opt220353__7186729_2                    JUAN RAMON ROMO LEON                    00000000000000000022165AGENCIA TRAVEL BENEFITS000000000000000000000000000000000000000
02000019130010000000000574000000000000000000000000000000000051202407120020300005256783862686392OMAR ALEJANDRO GALLARDO PEREZ           opt218327__7128981_5                    OMAR ALEJANDRO GALLARDO PEREZ           00000000000000000022165AGENCIA TRAVEL BENEFITS000000000000000000000000000000000000000
02000019230010000000000574000000000000000000000000000000000051202407120020300005256783862686392OMAR ALEJANDRO GALLARDO PEREZ           opt218329__7129006_5                    OMAR ALEJANDRO GALLARDO PEREZ           00000000000000000022165AGENCIA TRAVEL BENEFITS000000000000000000000000000000000000000
02000019330010000000000574000000000000000000000000000000000051202407120020300005204165775387891ARMANDO FLORES HERN NDEZ                opt218583__7136047_4                    ARMANDO FLORES HERN NDEZ                00000000000000000022165AGENCIA TRAVEL BENEFITS000000000000000000000000000000000000000
02000019430010000000000574000000000000000000000000000000000051202407120020300005204165775387891ARMANDO FLORES HERN NDEZ                opt218584__7136072_4                    ARMANDO FLORES HERN NDEZ                00000000000000000022165AGENCIA TRAVEL BENEFITS000000000000000000000000000000000000000
02000019530010000000000574000000000000000000000000000000000051202407120020300005256784015231797TEODORO JONATHAN CHAVELA SANCHEZ        opt218779__7140912_4                    TEODORO JONATHAN CHAVELA SANCHEZ        00000000000000000022165AGENCIA TRAVEL BENEFITS000000000000000000000000000000000000000
02000019630010000000000574000000000000000000000000000000000051202407120020300005204167375572294SILVIA GUTIERREZ PEREA                  opt218846__7143475_4                    SILVIA GUTIERREZ PEREA                  00000000000000000022165AGENCIA TRAVEL BENEFITS000000000000000000000000000000000000000
02000019730010000000000574000000000000000000000000000000000051202407120020300005204165508815697BERENICE DE JESUS AGUILAR SANCHEZ       opt218895__7144995_2                    BERENICE DE JESUS AGUILAR SANCHEZ       00000000000000000022165AGENCIA TRAVEL BENEFITS000000000000000000000000000000000000000
02000019830010000000000574000000000000000000000000000000000051202407120020300005256783707969995JUANA RODRIGUEZ CORONA                  opt218923__7145673_1                    JUANA RODRIGUEZ CORONA                  00000000000000000022165AGENCIA TRAVEL BENEFITS000000000000000000000000000000000000000
02000019930010000000000574000000000000000000000000000000000051202407120024000002180904262325521PRIMERO DIAZ , CESAR                    opt219127__7151321_1                    PRIMERO DIAZ , CESAR                    00000000000000000022165AGENCIA TRAVEL BENEFITS000000000000000000000000000000000000000
02000020030010000000000574000000000000000000000000000000000051202407120020300005256784181422493HEYSEL YIZET SANCHEZ GUIDO              opt219149__7151865_2                    HEYSEL YIZET SANCHEZ GUIDO              00000000000000000022165AGENCIA TRAVEL BENEFITS000000000000000000000000000000000000000
02000020130010000000000574000000000000000000000000000000000051202407120024000002930904701414596EDUARDO ENRIQUE RAMIREZ OYARZABAL       opt219169__7152425_4                    EDUARDO ENRIQUE RAMIREZ OYARZABAL       00000000000000000022165AGENCIA TRAVEL BENEFITS000000000000000000000000000000000000000
02000020230010000000000574000000000000000000000000000000000051202407120020300005256783467528692REYNA ADILENE SANDOVAL LOPEZ            opt219392__7159038_3                    REYNA ADILENE SANDOVAL LOPEZ            00000000000000000022165AGENCIA TRAVEL BENEFITS000000000000000000000000000000000000000
02000020330010000000000574000000000000000000000000000000000051202407120020300005256783467528692REYNA ADILENE SANDOVAL LOPEZ            opt219393__7159063_3                    REYNA ADILENE SANDOVAL LOPEZ            00000000000000000022165AGENCIA TRAVEL BENEFITS000000000000000000000000000000000000000
02000020430010000000000574000000000000000000000000000000000051202407120024000002180904212072743RAQUEL RUBIO CHAVEZ                     opt219646__7166656_2                    RAQUEL RUBIO CHAVEZ                     00000000000000000022165AGENCIA TRAVEL BENEFITS000000000000000000000000000000000000000
02000020530010000000000574000000000000000000000000000000000051202407120020300005256783791956395MARIA MERCEDES CONDE CU LLAR            opt220471__7190357_1                    MARIA MERCEDES CONDE CU LLAR            00000000000000000022165AGENCIA TRAVEL BENEFITS000000000000000000000000000000000000000
02000020630010000000000574000000000000000000000000000000000051202407120024000002180904902367234JESUS ISRAEL MARTINEZ RAMIREZ           opt220908__7202861_1                    JESUS ISRAEL MARTINEZ RAMIREZ           00000000000000000022165AGENCIA TRAVEL BENEFITS000000000000000000000000000000000000000
02000020730010000000000574000000000000000000000000000000000051202407120024000002320701425037091LUIS ENRIQUE URENA URIBE                opt218297__7128066_6                    LUIS ENRIQUE URENA URIBE                00000000000000000022165AGENCIA TRAVEL BENEFITS000000000000000000000000000000000000000
02000020830010000000000574000000000000000000000000000000000051202407120024000002320701425037091LUIS ENRIQUE URENA URIBE                opt218298__7128091_6                    LUIS ENRIQUE URENA URIBE                00000000000000000022165AGENCIA TRAVEL BENEFITS000000000000000000000000000000000000000
02000020930010000000000574000000000000000000000000000000000051202407120020300005256783862686392OMAR ALEJANDRO GALLARDO PEREZ           opt218327__7128982_6                    OMAR ALEJANDRO GALLARDO PEREZ           00000000000000000022165AGENCIA TRAVEL BENEFITS000000000000000000000000000000000000000
02000021030010000000000574000000000000000000000000000000000051202407120020300005256783862686392OMAR ALEJANDRO GALLARDO PEREZ           opt218329__7129007_6                    OMAR ALEJANDRO GALLARDO PEREZ           00000000000000000022165AGENCIA TRAVEL BENEFITS000000000000000000000000000000000000000
02000021130010000000000574000000000000000000000000000000000051202407120020300005256783976860297KAREN GUADALUPE VILLA ARREDONDO         opt218364__7129942_6                    KAREN GUADALUPE VILLA ARREDONDO         00000000000000000022165AGENCIA TRAVEL BENEFITS000000000000000000000000000000000000000
02000021230010000000000574000000000000000000000000000000000051202407120020300005256784180983198MAIRA ALEJANDRA GONZALEZ NIEVES         opt218415__7131383_6                    MAIRA ALEJANDRA GONZALEZ NIEVES         00000000000000000022165AGENCIA TRAVEL BENEFITS000000000000000000000000000000000000000
02000021330010000000000574000000000000000000000000000000000051202407120020300005256784180983198MAIRA ALEJANDRA GONZALEZ NIEVES         opt218416__7131408_6                    MAIRA ALEJANDRA GONZALEZ NIEVES         00000000000000000022165AGENCIA TRAVEL BENEFITS000000000000000000000000000000000000000
02000021430010000000000574000000000000000000000000000000000051202407120020300005256784180983198MAIRA ALEJANDRA GONZALEZ NIEVES         opt218417__7131433_6                    MAIRA ALEJANDRA GONZALEZ NIEVES         00000000000000000022165AGENCIA TRAVEL BENEFITS000000000000000000000000000000000000000
02000021530010000000000574000000000000000000000000000000000051202407120020300005204165775387891ARMANDO FLORES HERNáNDEZ               opt218583__7136048_5                    ARMANDO FLORES HERNáNDEZ               00000000000000000022165AGENCIA TRAVEL BENEFITS000000000000000000000000000000000000000
02000021630010000000000574000000000000000000000000000000000051202407120020300005204165775387891ARMANDO FLORES HERNáNDEZ               opt218584__7136073_5                    ARMANDO FLORES HERNáNDEZ               00000000000000000022165AGENCIA TRAVEL BENEFITS000000000000000000000000000000000000000
02000021730010000000000574000000000000000000000000000000000051202407120020300005256783694726192RAYMUNDO FERNANDEZ GUZMAN               opt218604__7136745_2                    RAYMUNDO FERNANDEZ GUZMAN               00000000000000000022165AGENCIA TRAVEL BENEFITS000000000000000000000000000000000000000
02000021830010000000000574000000000000000000000000000000000051202407120024000002180902775833476MARIANA GUERRERO SAAVEDRA               opt218723__7140218_5                    MARIANA GUERRERO SAAVEDRA               00000000000000000022165AGENCIA TRAVEL BENEFITS000000000000000000000000000000000000000
02000021930010000000000574000000000000000000000000000000000051202407120020300005256784015231797TEODORO JONATHAN CHAVELA SANCHEZ        opt218779__7140913_5                    TEODORO JONATHAN CHAVELA SANCHEZ        00000000000000000022165AGENCIA TRAVEL BENEFITS000000000000000000000000000000000000000
02000022030010000000000574000000000000000000000000000000000051202407120020300005204165508815697BERENICE DE JESUS AGUILAR SANCHEZ       opt218895__7144996_3                    BERENICE DE JESUS AGUILAR SANCHEZ       00000000000000000022165AGENCIA TRAVEL BENEFITS000000000000000000000000000000000000000
02000022130010000000000574000000000000000000000000000000000051202407120020300005256783707969995JUANA RODRIGUEZ CORONA                  opt218923__7145674_2                    JUANA RODRIGUEZ CORONA                  00000000000000000022165AGENCIA TRAVEL BENEFITS000000000000000000000000000000000000000
02000022230010000000000574000000000000000000000000000000000051202407120020300005256784181422493HEYSEL YIZET SANCHEZ GUIDO              opt219149__7151866_3                    HEYSEL YIZET SANCHEZ GUIDO              00000000000000000022165AGENCIA TRAVEL BENEFITS000000000000000000000000000000000000000
02000022330010000000000574000000000000000000000000000000000051202407120024000002930904701414596EDUARDO ENRIQUE RAMIREZ OYARZABAL       opt219169__7152426_5                    EDUARDO ENRIQUE RAMIREZ OYARZABAL       00000000000000000022165AGENCIA TRAVEL BENEFITS000000000000000000000000000000000000000
02000022430010000000000574000000000000000000000000000000000051202407120020300005256783591170692JOSE DE JESUS BALDERAS                  opt219313__7156909_4                    JOSE DE JESUS BALDERAS                  00000000000000000022165AGENCIA TRAVEL BENEFITS000000000000000000000000000000000000000
02000022530010000000000574000000000000000000000000000000000051202407120020300005256783467528692REYNA ADILENE SANDOVAL LOPEZ            opt219392__7159039_4                    REYNA ADILENE SANDOVAL LOPEZ            00000000000000000022165AGENCIA TRAVEL BENEFITS000000000000000000000000000000000000000
02000022630010000000000574000000000000000000000000000000000051202407120020300005256783467528692REYNA ADILENE SANDOVAL LOPEZ            opt219393__7159064_4                    REYNA ADILENE SANDOVAL LOPEZ            00000000000000000022165AGENCIA TRAVEL BENEFITS000000000000000000000000000000000000000
02000022730010000000000574000000000000000000000000000000000051202407120020300005256781435634790MIGUEL FALCON HERNANDEZ                 opt219505__7162899_2                    MIGUEL FALCON HERNANDEZ                 00000000000000000022165AGENCIA TRAVEL BENEFITS000000000000000000000000000000000000000
02000022830010000000000574000000000000000000000000000000000051202407120020300005256781435634790MIGUEL FALCON HERNANDEZ                 opt219517__7162847_2                    MIGUEL FALCON HERNANDEZ                 00000000000000000022165AGENCIA TRAVEL BENEFITS000000000000000000000000000000000000000
02000022930010000000000574000000000000000000000000000000000051202407120024000002180701556441660ANTONIO GóMEZ TORRES                   opt219595__7165210_4                    ANTONIO GóMEZ TORRES                   00000000000000000022165AGENCIA TRAVEL BENEFITS000000000000000000000000000000000000000
02000023030010000000000574000000000000000000000000000000000051202407120024000002180904212072743RAQUEL RUBIO CHAVEZ                     opt219646__7166657_3                    RAQUEL RUBIO CHAVEZ                     00000000000000000022165AGENCIA TRAVEL BENEFITS000000000000000000000000000000000000000
02000023130010000000000574000000000000000000000000000000000051202407120020300005204167426824991BELEM VIRIDIANA HERNANDEZ SILES         opt219657__7166959_4                    BELEM VIRIDIANA HERNANDEZ SILES         00000000000000000022165AGENCIA TRAVEL BENEFITS000000000000000000000000000000000000000
02000023230010000000000574000000000000000000000000000000000051202407120020300005256784194531090ILSE GABRIELA VARGAS OROZCO             opt219745__7169565_3                    ILSE GABRIELA VARGAS OROZCO             00000000000000000022165AGENCIA TRAVEL BENEFITS000000000000000000000000000000000000000
02000023330010000000000574000000000000000000000000000000000051202407120020300005256783935357799LUIS ALBERTO TORRES RIOS                opt219817__7171705_3                    LUIS ALBERTO TORRES RIOS                00000000000000000022165AGENCIA TRAVEL BENEFITS000000000000000000000000000000000000000
02000023430010000000000574000000000000000000000000000000000051202407120020300005256783791956395MARIA MERCEDES CONDE CUéLLAR           opt220471__7190358_2                    MARIA MERCEDES CONDE CUéLLAR           00000000000000000022165AGENCIA TRAVEL BENEFITS000000000000000000000000000000000000000
02000023530010000000000574000000000000000000000000000000000051202407120124000012180015640372813JESSICA ANAID GARDUNO AGUIRRE           opt218233__7125451_6                    JESSICA ANAID GARDUNO AGUIRRE           00000000000000000022165AGENCIA TRAVEL BENEFITS000000000000000000000000000000000000000
02000023630010000000000574000000000000000000000000000000000051202407120124000012180015763923576JOVANNI JESUS LICONA FLORES             opt218385__7130214_6                    JOVANNI JESUS LICONA FLORES             00000000000000000022165AGENCIA TRAVEL BENEFITS000000000000000000000000000000000000000
02000023730010000000000574000000000000000000000000000000000051202407120120300004152313924802650ZORINA INES ALMAGUER DE LA CRUZ         opt218425__7132183_4                    ZORINA INES ALMAGUER DE LA CRUZ         00000000000000000022165AGENCIA TRAVEL BENEFITS000000000000000000000000000000000000000
02000023830010000000000574000000000000000000000000000000000051202407120120300004152313924802650ZORINA INES ALMAGUER DE LA CRUZ         opt218443__7132208_4                    ZORINA INES ALMAGUER DE LA CRUZ         00000000000000000022165AGENCIA TRAVEL BENEFITS000000000000000000000000000000000000000
02000023930010000000000574000000000000000000000000000000000051202407120120300004152313924802650ZORINA INES ALMAGUER DE LA CRUZ         opt218444__7132233_4                    ZORINA INES ALMAGUER DE LA CRUZ         00000000000000000022165AGENCIA TRAVEL BENEFITS000000000000000000000000000000000000000
02000024030010000000000574000000000000000000000000000000000051202407120120300004152313924802650ZORINA INES ALMAGUER DE LA CRUZ         opt218445__7132258_4                    ZORINA INES ALMAGUER DE LA CRUZ         00000000000000000022165AGENCIA TRAVEL BENEFITS000000000000000000000000000000000000000
02000024130010000000000574000000000000000000000000000000000051202407120120300004152313760627138RUBI ZARAY GARCIA FIESCO                opt218466__7132761_4                    RUBI ZARAY GARCIA FIESCO                00000000000000000022165AGENCIA TRAVEL BENEFITS000000000000000000000000000000000000000
02000024230010000000000574000000000000000000000000000000000051202407120120300004152313760627138RUBI ZARAY GARCIA FIESCO                opt218467__7132786_4                    RUBI ZARAY GARCIA FIESCO                00000000000000000022165AGENCIA TRAVEL BENEFITS000000000000000000000000000000000000000
02000024330010000000000574000000000000000000000000000000000051202407120120300004152313760627138RUBI ZARAY GARCIA FIESCO                opt218468__7132811_4                    RUBI ZARAY GARCIA FIESCO                00000000000000000022165AGENCIA TRAVEL BENEFITS000000000000000000000000000000000000000
02000024430010000000000574000000000000000000000000000000000051202407120120300004152313707069204MARCO ANGEL D AZ MENDEZ                 opt218521__7133993_2                    MARCO ANGEL D AZ MENDEZ                 00000000000000000022165AGENCIA TRAVEL BENEFITS000000000000000000000000000000000000000
02000024530010000000000574000000000000000000000000000000000051202407120120300004152313707069204MARCO ANGEL D AZ MENDEZ                 opt218522__7134043_2                    MARCO ANGEL D AZ MENDEZ                 00000000000000000022165AGENCIA TRAVEL BENEFITS000000000000000000000000000000000000000
02000024630010000000000574000000000000000000000000000000000051202407120120300004152313707069204MARCO ANGEL D AZ MENDEZ                 opt218523__7134018_2                    MARCO ANGEL D AZ MENDEZ                 00000000000000000022165AGENCIA TRAVEL BENEFITS000000000000000000000000000000000000000
02000024730010000000000574000000000000000000000000000000000051202407120120300004152313707069204MARCO ANGEL D AZ MENDEZ                 opt218524__7133968_2                    MARCO ANGEL D AZ MENDEZ                 00000000000000000022165AGENCIA TRAVEL BENEFITS000000000000000000000000000000000000000
02000024830010000000000574000000000000000000000000000000000051202407120120300004152313744607545VERONICA LOPEZ MORALES                  opt218534__7134584_4                    VERONICA LOPEZ MORALES                  00000000000000000022165AGENCIA TRAVEL BENEFITS000000000000000000000000000000000000000
02000024930010000000000574000000000000000000000000000000000051202407120120300004152314099746821JAVIER RICARDO DOMINGUEZ ALVAREZ        opt218561__7135401_5                    JAVIER RICARDO DOMINGUEZ ALVAREZ        00000000000000000022165AGENCIA TRAVEL BENEFITS000000000000000000000000000000000000000
02000025030010000000000574000000000000000000000000000000000051202407120120300004152314140438345BRENDA VANESA ROMERO SALAZAR            opt218686__7139039_5                    BRENDA VANESA ROMERO SALAZAR            00000000000000000022165AGENCIA TRAVEL BENEFITS000000000000000000000000000000000000000
02000025130010000000000574000000000000000000000000000000000051202407120120300004152314140438345BRENDA VANESA ROMERO SALAZAR            opt218687__7139014_5                    BRENDA VANESA ROMERO SALAZAR            00000000000000000022165AGENCIA TRAVEL BENEFITS000000000000000000000000000000000000000
02000025230010000000000574000000000000000000000000000000000051202407120124000012180015421976690CESAR ANTONIO LEMUS AMADOR              opt218808__7142407_3                    CESAR ANTONIO LEMUS AMADOR              00000000000000000022165AGENCIA TRAVEL BENEFITS000000000000000000000000000000000000000
02000025330010000000000574000000000000000000000000000000000051202407120124000012180015421976690CESAR ANTONIO LEMUS AMADOR              opt218809__7142432_3                    CESAR ANTONIO LEMUS AMADOR              00000000000000000022165AGENCIA TRAVEL BENEFITS000000000000000000000000000000000000000
02000025430010000000000574000000000000000000000000000000000051202407120120300004152313689373129JONATHAN EDUARDO SANDOVAL OCHOA         opt218826__7142822_3                    JONATHAN EDUARDO SANDOVAL OCHOA         00000000000000000022165AGENCIA TRAVEL BENEFITS000000000000000000000000000000000000000
02000025530010000000000574000000000000000000000000000000000051202407120120300004152313689373129JONATHAN EDUARDO SANDOVAL OCHOA         opt218827__7142847_3                    JONATHAN EDUARDO SANDOVAL OCHOA         00000000000000000022165AGENCIA TRAVEL BENEFITS000000000000000000000000000000000000000
02000025630010000000000574000000000000000000000000000000000051202407120120300004152313689373129JONATHAN EDUARDO SANDOVAL OCHOA         opt218828__7142872_3                    JONATHAN EDUARDO SANDOVAL OCHOA         00000000000000000022165AGENCIA TRAVEL BENEFITS000000000000000000000000000000000000000
02000025730010000000000574000000000000000000000000000000000051202407120124000012333027771358583ROGELIO DURAN PELAYO                    opt218873__7144407_3                    ROGELIO DURAN PELAYO                    00000000000000000022165AGENCIA TRAVEL BENEFITS000000000000000000000000000000000000000
02000025830010000000000574000000000000000000000000000000000051202407120124000012333027771358583ROGELIO DURAN PELAYO                    opt218875__7144432_3                    ROGELIO DURAN PELAYO                    00000000000000000022165AGENCIA TRAVEL BENEFITS000000000000000000000000000000000000000
02000025930010000000000574000000000000000000000000000000000051202407120124000012180015066554406ANGEL ORDONEZ DORANTE                   opt218930__7145873_4                    ANGEL ORDONEZ DORANTE                   00000000000000000022165AGENCIA TRAVEL BENEFITS000000000000000000000000000000000000000
02000026030010000000000574000000000000000000000000000000000051202407120120300004152313761402622OSVALDO RODRIGUEZ PEREZ                 opt218967__7146309_2                    OSVALDO RODRIGUEZ PEREZ                 00000000000000000022165AGENCIA TRAVEL BENEFITS000000000000000000000000000000000000000
02000026130010000000000574000000000000000000000000000000000051202407120120300004152313761402622OSVALDO RODRIGUEZ PEREZ                 opt218968__7146284_2                    OSVALDO RODRIGUEZ PEREZ                 00000000000000000022165AGENCIA TRAVEL BENEFITS000000000000000000000000000000000000000
02000026230010000000000574000000000000000000000000000000000051202407120124000012180029922574082HUGO ANTONIO PEREZ RAMIREZ              opt218970__7146911_3                    HUGO ANTONIO PEREZ RAMIREZ              00000000000000000022165AGENCIA TRAVEL BENEFITS000000000000000000000000000000000000000
02000026330010000000000574000000000000000000000000000000000051202407120120300004152314271230768ALONDRA JAZMIN PI A HOLGUIN             opt219001__7148139_4                    ALONDRA JAZMIN PI A HOLGUIN             00000000000000000022165AGENCIA TRAVEL BENEFITS000000000000000000000000000000000000000
02000026430010000000000574000000000000000000000000000000000051202407120120300004152314188214723ITZEL CAROLINA HERNANDEZ LOPEZ          opt219016__7147759_4                    ITZEL CAROLINA HERNANDEZ LOPEZ          00000000000000000022165AGENCIA TRAVEL BENEFITS000000000000000000000000000000000000000
02000026530010000000000574000000000000000000000000000000000051202407120120300004152314188214723ITZEL CAROLINA HERNANDEZ LOPEZ          opt219017__7147734_4                    ITZEL CAROLINA HERNANDEZ LOPEZ          00000000000000000022165AGENCIA TRAVEL BENEFITS000000000000000000000000000000000000000
02000026630010000000000574000000000000000000000000000000000051202407120124000012650015115709548EDITH MORALES DIAZ                      opt219027__7148472_4                    EDITH MORALES DIAZ                      00000000000000000022165AGENCIA TRAVEL BENEFITS000000000000000000000000000000000000000
02000026730010000000000574000000000000000000000000000000000051202407120124000012215015341401178JUAN CARLOS SERVIN ALEJO                opt219031__7148621_3                    JUAN CARLOS SERVIN ALEJO                00000000000000000022165AGENCIA TRAVEL BENEFITS000000000000000000000000000000000000000
02000026830010000000000574000000000000000000000000000000000051202407120124000012215015341401178JUAN CARLOS SERVIN ALEJO                opt219032__7148646_3                    JUAN CARLOS SERVIN ALEJO                00000000000000000022165AGENCIA TRAVEL BENEFITS000000000000000000000000000000000000000
02000026930010000000000574000000000000000000000000000000000051202407120120300004152313724602797VICTOR ROJAS CHORES                     opt219039__7148839_3                    VICTOR ROJAS CHORES                     00000000000000000022165AGENCIA TRAVEL BENEFITS000000000000000000000000000000000000000
02000027030010000000000574000000000000000000000000000000000051202407120120300004152313724602797VICTOR ROJAS CHORES                     opt219040__7148864_3                    VICTOR ROJAS CHORES                     00000000000000000022165AGENCIA TRAVEL BENEFITS000000000000000000000000000000000000000
02000027130010000000000574000000000000000000000000000000000051202407120120300004152314177622431ROSALBA ROJAS HERN NDEZ                 opt219092__7150297_1                    ROSALBA ROJAS HERN NDEZ                 00000000000000000022165AGENCIA TRAVEL BENEFITS000000000000000000000000000000000000000
02000027230010000000000574000000000000000000000000000000000051202407120120300004152313747738578HUMBERTO DE LA LUZ LUNA                 opt219222__7153818_1                    HUMBERTO DE LA LUZ LUNA                 00000000000000000022165AGENCIA TRAVEL BENEFITS000000000000000000000000000000000000000
02000027330010000000000574000000000000000000000000000000000051202407120120300004152313847291486FERNANDO CARLOS CORREA                  opt219305__7156468_1                    FERNANDO CARLOS CORREA                  00000000000000000022165AGENCIA TRAVEL BENEFITS000000000000000000000000000000000000000
02000027430010000000000574000000000000000000000000000000000051202407120120300004152313847291486FERNANDO CARLOS CORREA                  opt219306__7156493_1                    FERNANDO CARLOS CORREA                  00000000000000000022165AGENCIA TRAVEL BENEFITS000000000000000000000000000000000000000
02000027530010000000000574000000000000000000000000000000000051202407120124000012180015309851633MAYRA ALEJANDRA ONTIBEROS PERALES       opt219320__7156719_4                    MAYRA ALEJANDRA ONTIBEROS PERALES       00000000000000000022165AGENCIA TRAVEL BENEFITS000000000000000000000000000000000000000
02000027630010000000000574000000000000000000000000000000000051202407120120300004152313769918652MARIA EUGENIA RIVERO ORTEGA             opt219323__7157135_4                    MARIA EUGENIA RIVERO ORTEGA             00000000000000000022165AGENCIA TRAVEL BENEFITS000000000000000000000000000000000000000
02000027730010000000000574000000000000000000000000000000000051202407120120300004152313769918652MARIA EUGENIA RIVERO ORTEGA             opt219324__7157160_4                    MARIA EUGENIA RIVERO ORTEGA             00000000000000000022165AGENCIA TRAVEL BENEFITS000000000000000000000000000000000000000
02000027830010000000000574000000000000000000000000000000000051202407120124000012180015163720104ANDRES SEBASTIAN P REZ CAMARILLO        opt219346__7157670_3                    ANDRES SEBASTIAN P REZ CAMARILLO        00000000000000000022165AGENCIA TRAVEL BENEFITS000000000000000000000000000000000000000
02000027930010000000000574000000000000000000000000000000000051202407120120300004152313430989322MORENO ROBLEDO, IXAYANA                 opt219449__7160566_3                    MORENO ROBLEDO, IXAYANA                 00000000000000000022165AGENCIA TRAVEL BENEFITS000000000000000000000000000000000000000
02000028030010000000000574000000000000000000000000000000000051202407120124000012180004707917928DIEGO FRANCISCO JUAREZ VARGAS           opt219511__7162611_3                    DIEGO FRANCISCO JUAREZ VARGAS           00000000000000000022165AGENCIA TRAVEL BENEFITS000000000000000000000000000000000000000
02000028130010000000000574000000000000000000000000000000000051202407120120300004152314260194991MIGUEL ANGEL GARCIA HERNANDEZ           opt219558__7164046_2                    MIGUEL ANGEL GARCIA HERNANDEZ           00000000000000000022165AGENCIA TRAVEL BENEFITS000000000000000000000000000000000000000
02000028230010000000000574000000000000000000000000000000000051202407120120300004152313888299786ROCIO ALEJANDRA RAMIREZ MORENO          opt219622__7165906_2                    ROCIO ALEJANDRA RAMIREZ MORENO          00000000000000000022165AGENCIA TRAVEL BENEFITS000000000000000000000000000000000000000
02000028330010000000000574000000000000000000000000000000000051202407120120300004152314269420421MMATEO AGUILAR (EDITH HNA)              opt219672__7167422_3                    MMATEO AGUILAR (EDITH HNA)              00000000000000000022165AGENCIA TRAVEL BENEFITS000000000000000000000000000000000000000
02000028430010000000000574000000000000000000000000000000000051202407120124000012180027254896443MARTHA ZULEYMA ARENAS G MEZ             opt219709__7168466_2                    MARTHA ZULEYMA ARENAS G MEZ             00000000000000000022165AGENCIA TRAVEL BENEFITS000000000000000000000000000000000000000
02000028530010000000000574000000000000000000000000000000000051202407120120300004152313569865806LOURDES SUJEY RAMIREZ HERN NDEZ         opt219889__7173669_1                    LOURDES SUJEY RAMIREZ HERN NDEZ         00000000000000000022165AGENCIA TRAVEL BENEFITS000000000000000000000000000000000000000
02000028630010000000000574000000000000000000000000000000000051202407120120300004152313569865806LOURDES SUJEY RAMIREZ HERN NDEZ         opt219890__7173644_1                    LOURDES SUJEY RAMIREZ HERN NDEZ         00000000000000000022165AGENCIA TRAVEL BENEFITS000000000000000000000000000000000000000
02000028730010000000000574000000000000000000000000000000000051202407120124000012180015582265428KARINA DOLORES ALCANTARA VALENCIA       opt219892__7173918_1                    KARINA DOLORES ALCANTARA VALENCIA       00000000000000000022165AGENCIA TRAVEL BENEFITS000000000000000000000000000000000000000
02000028830010000000000574000000000000000000000000000000000051202407120124000012180015582265428KARINA DOLORES ALCANTARA VALENCIA       opt219893__7173943_1                    KARINA DOLORES ALCANTARA VALENCIA       00000000000000000022165AGENCIA TRAVEL BENEFITS000000000000000000000000000000000000000
02000028930010000000000574000000000000000000000000000000000051202407120120300004152314002697368FELIPE ISMAEL HERNANDEZ SALDIVAR        opt220406__7188475_1                    FELIPE ISMAEL HERNANDEZ SALDIVAR        00000000000000000022165AGENCIA TRAVEL BENEFITS000000000000000000000000000000000000000
02000029030010000000000574000000000000000000000000000000000051202407120120300004152314002697368FELIPE ISMAEL HERNANDEZ SALDIVAR        opt220407__7188500_1                    FELIPE ISMAEL HERNANDEZ SALDIVAR        00000000000000000022165AGENCIA TRAVEL BENEFITS000000000000000000000000000000000000000
02000029130010000000000574000000000000000000000000000000000051202407120120300004152314002697368FELIPE ISMAEL HERNANDEZ SALDIVAR        opt220408__7188525_1                    FELIPE ISMAEL HERNANDEZ SALDIVAR        00000000000000000022165AGENCIA TRAVEL BENEFITS000000000000000000000000000000000000000
02000029230010000000000574000000000000000000000000000000000051202407120120300004152314002697368FELIPE ISMAEL HERNANDEZ SALDIVAR        opt220409__7188550_1                    FELIPE ISMAEL HERNANDEZ SALDIVAR        00000000000000000022165AGENCIA TRAVEL BENEFITS000000000000000000000000000000000000000
02000029330010000000000574000000000000000000000000000000000051202407120124000012180015681789384IVETT VIRIDIANA LOPEZ CARDONA           opt220514__7191724_1                    IVETT VIRIDIANA LOPEZ CARDONA           00000000000000000022165AGENCIA TRAVEL BENEFITS000000000000000000000000000000000000000
02000029430010000000000574000000000000000000000000000000000051202407120124000012180015614494510DANIEL ZAMPOALTECA ANORVE               opt220913__7202967_1                    DANIEL ZAMPOALTECA ANORVE               00000000000000000022165AGENCIA TRAVEL BENEFITS000000000000000000000000000000000000000
02000029530010000000000574000000000000000000000000000000000051202407120140300005579070136861963NOHEM GUADALUPE GARC A JIM NEZ          opt218392__7130721_5                    NOHEM GUADALUPE GARC A JIM NEZ          00000000000000000022165AGENCIA TRAVEL BENEFITS000000000000000000000000000000000000000
02000029630010000000000574000000000000000000000000000000000051202407120140300005579070136861963NOHEM GUADALUPE GARC A JIM NEZ          opt218394__7130746_5                    NOHEM GUADALUPE GARC A JIM NEZ          00000000000000000022165AGENCIA TRAVEL BENEFITS000000000000000000000000000000000000000
02000029730010000000000574000000000000000000000000000000000051202407120140300005579070136861963NOHEM GUADALUPE GARC A JIM NEZ          opt218395__7130771_5                    NOHEM GUADALUPE GARC A JIM NEZ          00000000000000000022165AGENCIA TRAVEL BENEFITS000000000000000000000000000000000000000
02000029830010000000000574000000000000000000000000000000000051202407120140300005579087000477494DIEGO MICHEL GARC A ROJA                opt218570__7135651_5                    DIEGO MICHEL GARC A ROJA                00000000000000000022165AGENCIA TRAVEL BENEFITS000000000000000000000000000000000000000
02000029930010000000000574000000000000000000000000000000000051202407120140300005579100383201355SERGIO SILVA RODRIGUEZ                  opt218676__7138639_4                    SERGIO SILVA RODRIGUEZ                  00000000000000000022165AGENCIA TRAVEL BENEFITS000000000000000000000000000000000000000
02000030030010000000000574000000000000000000000000000000000051202407120140300005579100383201355SERGIO SILVA RODRIGUEZ                  opt218677__7138664_4                    SERGIO SILVA RODRIGUEZ                  00000000000000000022165AGENCIA TRAVEL BENEFITS000000000000000000000000000000000000000
02000030130010000000000574000000000000000000000000000000000051202407120140300005579100401186026EDGAR FRANCISCO PASTRANA ALVA           opt218719__7139945_5                    EDGAR FRANCISCO PASTRANA ALVA           00000000000000000022165AGENCIA TRAVEL BENEFITS000000000000000000000000000000000000000
02000030230010000000000574000000000000000000000000000000000051202407120140300005579100401186026EDGAR FRANCISCO PASTRANA ALVA           opt218720__7139970_5                    EDGAR FRANCISCO PASTRANA ALVA           00000000000000000022165AGENCIA TRAVEL BENEFITS000000000000000000000000000000000000000
02000030330010000000000574000000000000000000000000000000000051202407120144000014580567470642636OZIEL ALEJANDRO REYNA MIRANDA           opt218803__7142194_5                    OZIEL ALEJANDRO REYNA MIRANDA           00000000000000000022165AGENCIA TRAVEL BENEFITS000000000000000000000000000000000000000
02000030430010000000000574000000000000000000000000000000000051202407120140300005579100181882786CRISTOPHER CHAVEZ LOPEZ                 opt218870__7144307_3                    CRISTOPHER CHAVEZ LOPEZ                 00000000000000000022165AGENCIA TRAVEL BENEFITS000000000000000000000000000000000000000
02000030530010000000000574000000000000000000000000000000000051202407120140300005579100343925754MAURICIO GUSTAVO SANCHEZ RODRIGUEZ      opt219082__7149971_4                    MAURICIO GUSTAVO SANCHEZ RODRIGUEZ      00000000000000000022165AGENCIA TRAVEL BENEFITS000000000000000000000000000000000000000
02000030630010000000000574000000000000000000000000000000000051202407120140300005579100343925754MAURICIO GUSTAVO SANCHEZ RODRIGUEZ      opt219083__7149996_4                    MAURICIO GUSTAVO SANCHEZ RODRIGUEZ      00000000000000000022165AGENCIA TRAVEL BENEFITS000000000000000000000000000000000000000
02000030730010000000000574000000000000000000000000000000000051202407120140300005579070153624252MARIELA BAUTISTA CHAVEZ                 opt219272__7155554_4                    MARIELA BAUTISTA CHAVEZ                 00000000000000000022165AGENCIA TRAVEL BENEFITS000000000000000000000000000000000000000
02000030830010000000000574000000000000000000000000000000000051202407120140300005579070153624252MARIELA BAUTISTA CHAVEZ                 opt219272__7155555_5                    MARIELA BAUTISTA CHAVEZ                 00000000000000000022165AGENCIA TRAVEL BENEFITS000000000000000000000000000000000000000
02000030930010000000000574000000000000000000000000000000000051202407120140300005579070153624252MARIELA BAUTISTA CHAVEZ                 opt219273__7155579_4                    MARIELA BAUTISTA CHAVEZ                 00000000000000000022165AGENCIA TRAVEL BENEFITS000000000000000000000000000000000000000
02000031030010000000000574000000000000000000000000000000000051202407120140300005579070153624252MARIELA BAUTISTA CHAVEZ                 opt219273__7155580_5                    MARIELA BAUTISTA CHAVEZ                 00000000000000000022165AGENCIA TRAVEL BENEFITS000000000000000000000000000000000000000
02000031130010000000000574000000000000000000000000000000000051202407120140300005579100242283602EDGARDO ANTONIO LARA LOPEZ              opt219398__7159190_3                    EDGARDO ANTONIO LARA LOPEZ              00000000000000000022165AGENCIA TRAVEL BENEFITS000000000000000000000000000000000000000
02000031230010000000000574000000000000000000000000000000000051202407120140300005579100242283602EDGARDO ANTONIO LARA LOPEZ              opt219399__7159215_3                    EDGARDO ANTONIO LARA LOPEZ              00000000000000000022165AGENCIA TRAVEL BENEFITS000000000000000000000000000000000000000
02000031330010000000000574000000000000000000000000000000000051202407120140300005579100343018030ERNESTO SANCHEZ MARTINEZ                opt219433__7160168_2                    ERNESTO SANCHEZ MARTINEZ                00000000000000000022165AGENCIA TRAVEL BENEFITS000000000000000000000000000000000000000
02000031430010000000000574000000000000000000000000000000000051202407120140300005579100359289442DAVID V ZQUEZ C RDOVA                   opt219471__7161328_1                    DAVID V ZQUEZ C RDOVA                   00000000000000000022165AGENCIA TRAVEL BENEFITS000000000000000000000000000000000000000
02000031530010000000000574000000000000000000000000000000000051202407120140300005579070146924843LUIS ALFREDO LARA SALAZAR               opt219542__7163871_2                    LUIS ALFREDO LARA SALAZAR               00000000000000000022165AGENCIA TRAVEL BENEFITS000000000000000000000000000000000000000
02000031630010000000000574000000000000000000000000000000000051202407120140300005579070146924843LUIS ALFREDO LARA SALAZAR               opt219545__7163846_2                    LUIS ALFREDO LARA SALAZAR               00000000000000000022165AGENCIA TRAVEL BENEFITS000000000000000000000000000000000000000
02000031730010000000000574000000000000000000000000000000000051202407120144000014400568488401964BLANCA GRISEL LARA SILVA                opt220747__7197919_1                    BLANCA GRISEL LARA SILVA                00000000000000000022165AGENCIA TRAVEL BENEFITS000000000000000000000000000000000000000
02000031830010000000000574000000000000000000000000000000000051202407120140300005579070136861963NOHEMí GUADALUPE GARCíA JIMéNEZ      opt218392__7130722_6                    NOHEMí GUADALUPE GARCíA JIMéNEZ      00000000000000000022165AGENCIA TRAVEL BENEFITS000000000000000000000000000000000000000
02000031930010000000000574000000000000000000000000000000000051202407120140300005579070136861963NOHEMí GUADALUPE GARCíA JIMéNEZ      opt218394__7130747_6                    NOHEMí GUADALUPE GARCíA JIMéNEZ      00000000000000000022165AGENCIA TRAVEL BENEFITS000000000000000000000000000000000000000
02000032030010000000000574000000000000000000000000000000000051202407120140300005579070136861963NOHEMí GUADALUPE GARCíA JIMéNEZ      opt218395__7130772_6                    NOHEMí GUADALUPE GARCíA JIMéNEZ      00000000000000000022165AGENCIA TRAVEL BENEFITS000000000000000000000000000000000000000
02000032130010000000000574000000000000000000000000000000000051202407120144000014078606280964760JORGE BRIONES OLVERA                    opt218449__7132362_6                    JORGE BRIONES OLVERA                    00000000000000000022165AGENCIA TRAVEL BENEFITS000000000000000000000000000000000000000
02000032230010000000000574000000000000000000000000000000000051202407120144000014078606280964760JORGE BRIONES OLVERA                    opt218450__7132387_6                    JORGE BRIONES OLVERA                    00000000000000000022165AGENCIA TRAVEL BENEFITS000000000000000000000000000000000000000
02000032330010000000000574000000000000000000000000000000000051202407120140300005579100408600599IVAN PADILLA FLORES                     opt218463__7132686_4                    IVAN PADILLA FLORES                     00000000000000000022165AGENCIA TRAVEL BENEFITS000000000000000000000000000000000000000
02000032430010000000000574000000000000000000000000000000000051202407120140300005579100302008857FABIOLA RUIZ SOLIS                      opt218481__7133092_3                    FABIOLA RUIZ SOLIS                      00000000000000000022165AGENCIA TRAVEL BENEFITS000000000000000000000000000000000000000
02000032530010000000000574000000000000000000000000000000000051202407120140300005579087000477494DIEGO MICHEL GARCíA ROJA               opt218570__7135652_6                    DIEGO MICHEL GARCíA ROJA               00000000000000000022165AGENCIA TRAVEL BENEFITS000000000000000000000000000000000000000
02000032630010000000000574000000000000000000000000000000000051202407120140300005579100383201355SERGIO SILVA RODRIGUEZ                  opt218676__7138640_5                    SERGIO SILVA RODRIGUEZ                  00000000000000000022165AGENCIA TRAVEL BENEFITS000000000000000000000000000000000000000
02000032730010000000000574000000000000000000000000000000000051202407120140300005579100383201355SERGIO SILVA RODRIGUEZ                  opt218677__7138665_5                    SERGIO SILVA RODRIGUEZ                  00000000000000000022165AGENCIA TRAVEL BENEFITS000000000000000000000000000000000000000
02000032830010000000000574000000000000000000000000000000000051202407120140300005579100401186026EDGAR FRANCISCO PASTRANA ALVA           opt218719__7139946_6                    EDGAR FRANCISCO PASTRANA ALVA           00000000000000000022165AGENCIA TRAVEL BENEFITS000000000000000000000000000000000000000
02000032930010000000000574000000000000000000000000000000000051202407120140300005579100401186026EDGAR FRANCISCO PASTRANA ALVA           opt218720__7139971_6                    EDGAR FRANCISCO PASTRANA ALVA           00000000000000000022165AGENCIA TRAVEL BENEFITS000000000000000000000000000000000000000
02000033030010000000000574000000000000000000000000000000000051202407120140300005579100247115684GALVAN PIMENTE BLANCA GABRIELA          opt218721__7139997_3                    GALVAN PIMENTE BLANCA GABRIELA          00000000000000000022165AGENCIA TRAVEL BENEFITS000000000000000000000000000000000000000
02000033130010000000000574000000000000000000000000000000000051202407120144000014580567470642636OZIEL ALEJANDRO REYNA MIRANDA           opt218803__7142195_6                    OZIEL ALEJANDRO REYNA MIRANDA           00000000000000000022165AGENCIA TRAVEL BENEFITS000000000000000000000000000000000000000
02000033230010000000000574000000000000000000000000000000000051202407120140300005579100181882786CRISTOPHER CHAVEZ LOPEZ                 opt218870__7144308_4                    CRISTOPHER CHAVEZ LOPEZ                 00000000000000000022165AGENCIA TRAVEL BENEFITS000000000000000000000000000000000000000
