01000000130014E200000012024070501000000000000000000000000000OPTU TRAVEL BENEFITSOTB201104EU3      00000000000000000000000000000000000000000000000000000000000000000000000000000000000000000000000000000000000000000000000000000000000000000000000000000000000000000000000000000000000000
02000000230010000000000365000000000000000000000000000000000051202407051270300004027665780138179FLORENTINO VALLE SOTO                   opt154977__5696829_48                   FLORENTINO VALLE SOTO                   00000000000000000022115AGENCIA TRAVEL BENEFITS000000000000000000000000000000000000000
02000000330010000000000365000000000000000000000000000000000051202407051270300004027665780138179FLORENTINO VALLE SOTO                   opt154977__6976375_49                   FLORENTINO VALLE SOTO                   00000000000000000022115AGENCIA TRAVEL BENEFITS000000000000000000000000000000000000000
02000000430010000000000286830000000000000000000000000000000051202407051274000127180016105019220HUGO ALFONSO COTA MADRIGAL              opt186452__7163330_26                   HUGO ALFONSO COTA MADRIGAL              00000000000000000022115AGENCIA TRAVEL BENEFITS000000000000000000000000000000000000000
02000000530010000000000286830000000000000000000000000000000051202407051274000127180016105019220HUGO ALFONSO COTA MADRIGAL              opt186452__7163331_27                   HUGO ALFONSO COTA MADRIGAL              00000000000000000022115AGENCIA TRAVEL BENEFITS000000000000000000000000000000000000000
02000000630010000000000293600000000000000000000000000000000051202407051274000127180016105019220HUGO ALFONSO COTA MADRIGAL              opt186453__7163336_26                   HUGO ALFONSO COTA MADRIGAL              00000000000000000022115AGENCIA TRAVEL BENEFITS000000000000000000000000000000000000000
02000000730010000000000293600000000000000000000000000000000051202407051274000127180016105019220HUGO ALFONSO COTA MADRIGAL              opt186453__7163337_27                   HUGO ALFONSO COTA MADRIGAL              00000000000000000022115AGENCIA TRAVEL BENEFITS000000000000000000000000000000000000000
02000000830010000000000320000000000000000000000000000000000051202407051274000127180012008310907LILIA GABRIELA GARCIA                   opt188399__6796111_35                   LILIA GABRIELA GARCIA                   00000000000000000022115AGENCIA TRAVEL BENEFITS000000000000000000000000000000000000000
02000000930010000000000320000000000000000000000000000000000051202407051274000127180012008310907LILIA GABRIELA GARCIA                   opt188400__6796122_35                   LILIA GABRIELA GARCIA                   00000000000000000022115AGENCIA TRAVEL BENEFITS000000000000000000000000000000000000000
02000001030010000000000109500000000000000000000000000000000051202407051270300005512382420864979LISSETH SALAZAR MENDOZA                 opt197040__6452984_45                   LISSETH SALAZAR MENDOZA                 00000000000000000022115AGENCIA TRAVEL BENEFITS000000000000000000000000000000000000000
02000001130010000000000109500000000000000000000000000000000051202407051270300005512382420864979LISSETH SALAZAR MENDOZA                 opt197040__6452985_46                   LISSETH SALAZAR MENDOZA                 00000000000000000022115AGENCIA TRAVEL BENEFITS000000000000000000000000000000000000000
02000001230010000000000109500000000000000000000000000000000051202407051270300005512382420864979LISSETH SALAZAR MENDOZA                 opt197040__6452986_47                   LISSETH SALAZAR MENDOZA                 00000000000000000022115AGENCIA TRAVEL BENEFITS000000000000000000000000000000000000000
02000001330010000000000109500000000000000000000000000000000051202407051270300005512382420864979LISSETH SALAZAR MENDOZA                 opt197040__6452987_48                   LISSETH SALAZAR MENDOZA                 00000000000000000022115AGENCIA TRAVEL BENEFITS000000000000000000000000000000000000000
02000001430010000000000383000000000000000000000000000000000051202407051274000127100001149370392ENNDY ALEJANDRA JIMENEZ SANTIZ          opt198460__6346696_36                   ENNDY ALEJANDRA JIMENEZ SANTIZ          00000000000000000022115AGENCIA TRAVEL BENEFITS000000000000000000000000000000000000000
02000001530010000000000219000000000000000000000000000000000051202407051270300005512382420530646JULIO CESAR MORALES GOMEZ               opt198491__6348311_34                   JULIO CESAR MORALES GOMEZ               00000000000000000022115AGENCIA TRAVEL BENEFITS000000000000000000000000000000000000000
02000001630010000000000219000000000000000000000000000000000051202407051270300005512382420530646JULIO CESAR MORALES GOMEZ               opt198491__6348312_35                   JULIO CESAR MORALES GOMEZ               00000000000000000022115AGENCIA TRAVEL BENEFITS000000000000000000000000000000000000000
02000001730010000000000277000000000000000000000000000000000051202407051274000127180013676704038ALEXIS FLORES ROJAS                     opt198881__6365367_35                   ALEXIS FLORES ROJAS                     00000000000000000022115AGENCIA TRAVEL BENEFITS000000000000000000000000000000000000000
02000001830010000000000277000000000000000000000000000000000051202407051274000127180013371641519DIANA BERENICE CORTES RAMIREZ           opt198897__6366367_35                   DIANA BERENICE CORTES RAMIREZ           00000000000000000022115AGENCIA TRAVEL BENEFITS000000000000000000000000000000000000000
02000001930010000000000277000000000000000000000000000000000051202407051274000127180013371641519DIANA BERENICE CORTES RAMIREZ           opt198897__6366368_36                   DIANA BERENICE CORTES RAMIREZ           00000000000000000022115AGENCIA TRAVEL BENEFITS000000000000000000000000000000000000000
02000002030010000000000219000000000000000000000000000000000051202407051270300004027665858211080SERGIO MAURICIO PEREZ CANALES           opt198951__6367856_35                   SERGIO MAURICIO PEREZ CANALES           00000000000000000022115AGENCIA TRAVEL BENEFITS000000000000000000000000000000000000000
02000002130010000000000219000000000000000000000000000000000051202407051270300004027665858211080SERGIO MAURICIO PEREZ CANALES           opt198951__6367857_36                   SERGIO MAURICIO PEREZ CANALES           00000000000000000022115AGENCIA TRAVEL BENEFITS000000000000000000000000000000000000000
02000002230010000000000219000000000000000000000000000000000051202407051270300004027665858211080SERGIO MAURICIO PEREZ CANALES           opt198952__7169501_29                   SERGIO MAURICIO PEREZ CANALES           00000000000000000022115AGENCIA TRAVEL BENEFITS000000000000000000000000000000000000000
02000002330010000000000219000000000000000000000000000000000051202407051270300004027665858211080SERGIO MAURICIO PEREZ CANALES           opt198952__7169502_30                   SERGIO MAURICIO PEREZ CANALES           00000000000000000022115AGENCIA TRAVEL BENEFITS000000000000000000000000000000000000000
02000002430010000000000219000000000000000000000000000000000051202407051270300004027665858211080SERGIO MAURICIO PEREZ CANALES           opt198954__6367967_35                   SERGIO MAURICIO PEREZ CANALES           00000000000000000022115AGENCIA TRAVEL BENEFITS000000000000000000000000000000000000000
02000002530010000000000219000000000000000000000000000000000051202407051270300004027665858211080SERGIO MAURICIO PEREZ CANALES           opt198954__6367968_36                   SERGIO MAURICIO PEREZ CANALES           00000000000000000022115AGENCIA TRAVEL BENEFITS000000000000000000000000000000000000000
02000002630010000000000219000000000000000000000000000000000051202407051270300005512382420915912BERTHA VALENCIA ANRUBIO                 opt198957__6368537_36                   BERTHA VALENCIA ANRUBIO                 00000000000000000022115AGENCIA TRAVEL BENEFITS000000000000000000000000000000000000000
02000002730010000000000193000000000000000000000000000000000051202407051274000127180001128927980OLGAAA LIDIA RODRIGUEZ DE LOS SANTOS    opt199012__6372363_30                   OLGAAA LIDIA RODRIGUEZ DE LOS SANTOS    00000000000000000022115AGENCIA TRAVEL BENEFITS000000000000000000000000000000000000000
02000002830010000000000193000000000000000000000000000000000051202407051274000127180001128927980OLGAAA LIDIA RODRIGUEZ DE LOS SANTOS    opt199012__6372364_31                   OLGAAA LIDIA RODRIGUEZ DE LOS SANTOS    00000000000000000022115AGENCIA TRAVEL BENEFITS000000000000000000000000000000000000000
02000002930010000000000193000000000000000000000000000000000051202407051270300004027665308627653BRAYAN JESUS LUNA CORREA                opt199090__6377131_32                   BRAYAN JESUS LUNA CORREA                00000000000000000022115AGENCIA TRAVEL BENEFITS000000000000000000000000000000000000000
02000003030010000000000193000000000000000000000000000000000051202407051270300004027665308627653BRAYAN JESUS LUNA CORREA                opt199090__6377132_33                   BRAYAN JESUS LUNA CORREA                00000000000000000022115AGENCIA TRAVEL BENEFITS000000000000000000000000000000000000000
02000003130010000000000193000000000000000000000000000000000051202407051270300004027665308627653BRAYAN JESUS LUNA CORREA                opt199126__6376870_31                   BRAYAN JESUS LUNA CORREA                00000000000000000022115AGENCIA TRAVEL BENEFITS000000000000000000000000000000000000000
02000003230010000000000193000000000000000000000000000000000051202407051270300004027665308627653BRAYAN JESUS LUNA CORREA                opt199126__6376871_32                   BRAYAN JESUS LUNA CORREA                00000000000000000022115AGENCIA TRAVEL BENEFITS000000000000000000000000000000000000000
02000003330010000000000193000000000000000000000000000000000051202407051270300004027665805409043CESAR HIDALGO ALCANTARA                 opt199202__6380379_35                   CESAR HIDALGO ALCANTARA                 00000000000000000022115AGENCIA TRAVEL BENEFITS000000000000000000000000000000000000000
02000003430010000000000193000000000000000000000000000000000051202407051270300004027665805409043CESAR HIDALGO ALCANTARA                 opt199202__6380380_36                   CESAR HIDALGO ALCANTARA                 00000000000000000022115AGENCIA TRAVEL BENEFITS000000000000000000000000000000000000000
02000003530010000000000277000000000000000000000000000000000051202407051270300004027665760961418DAVID MARTINEZ                          opt199269__6383005_35                   DAVID MARTINEZ                          00000000000000000022115AGENCIA TRAVEL BENEFITS000000000000000000000000000000000000000
02000003630010000000000277000000000000000000000000000000000051202407051270300004027665760961418DAVID MARTINEZ                          opt199269__6383006_36                   DAVID MARTINEZ                          00000000000000000022115AGENCIA TRAVEL BENEFITS000000000000000000000000000000000000000
02000003730010000000000193000000000000000000000000000000000051202407051270300005512382399436718CESAR PATINO PEREZ                      opt199532__6397021_33                   CESAR PATINO PEREZ                      00000000000000000022115AGENCIA TRAVEL BENEFITS000000000000000000000000000000000000000
02000003830010000000000193000000000000000000000000000000000051202407051270300005512382399436718CESAR PATINO PEREZ                      opt199532__6397022_34                   CESAR PATINO PEREZ                      00000000000000000022115AGENCIA TRAVEL BENEFITS000000000000000000000000000000000000000
02000003930010000000000277000000000000000000000000000000000051202407051274000127180012054331150PAMELA MARLENE SALINAS LOPEZ            opt199586__6397950_34                   PAMELA MARLENE SALINAS LOPEZ            00000000000000000022115AGENCIA TRAVEL BENEFITS000000000000000000000000000000000000000
02000004030010000000000277000000000000000000000000000000000051202407051274000127180012054331150PAMELA MARLENE SALINAS LOPEZ            opt199586__6397951_35                   PAMELA MARLENE SALINAS LOPEZ            00000000000000000022115AGENCIA TRAVEL BENEFITS000000000000000000000000000000000000000
02000004130010000000000219000000000000000000000000000000000051202407051274000127180012121476003JUAN ANDRES SANCHEZ LOERA               opt199744__6404813_30                   JUAN ANDRES SANCHEZ LOERA               00000000000000000022115AGENCIA TRAVEL BENEFITS000000000000000000000000000000000000000
02000004230010000000000219000000000000000000000000000000000051202407051274000127180012121476003JUAN ANDRES SANCHEZ LOERA               opt199744__6404814_31                   JUAN ANDRES SANCHEZ LOERA               00000000000000000022115AGENCIA TRAVEL BENEFITS000000000000000000000000000000000000000
02000004330010000000000219000000000000000000000000000000000051202407051274000127180012121476003JUAN ANDRES SANCHEZ LOERA               opt199745__6404850_30                   JUAN ANDRES SANCHEZ LOERA               00000000000000000022115AGENCIA TRAVEL BENEFITS000000000000000000000000000000000000000
02000004430010000000000219000000000000000000000000000000000051202407051274000127180012121476003JUAN ANDRES SANCHEZ LOERA               opt199745__6404851_31                   JUAN ANDRES SANCHEZ LOERA               00000000000000000022115AGENCIA TRAVEL BENEFITS000000000000000000000000000000000000000
02000004530010000000000252000000000000000000000000000000000051202407051270300005263540121104117RICARDO HERNANDEZ ROBLES                opt199747__6404929_34                   RICARDO HERNANDEZ ROBLES                00000000000000000022115AGENCIA TRAVEL BENEFITS000000000000000000000000000000000000000
02000004630010000000000252000000000000000000000000000000000051202407051270300005263540121104117RICARDO HERNANDEZ ROBLES                opt199747__6404930_35                   RICARDO HERNANDEZ ROBLES                00000000000000000022115AGENCIA TRAVEL BENEFITS000000000000000000000000000000000000000
02000004730010000000000252000000000000000000000000000000000051202407051270300005263540121104117RICARDO HERNANDEZ ROBLES                opt199748__6404966_34                   RICARDO HERNANDEZ ROBLES                00000000000000000022115AGENCIA TRAVEL BENEFITS000000000000000000000000000000000000000
02000004830010000000000252000000000000000000000000000000000051202407051270300005263540121104117RICARDO HERNANDEZ ROBLES                opt199748__6404967_35                   RICARDO HERNANDEZ ROBLES                00000000000000000022115AGENCIA TRAVEL BENEFITS000000000000000000000000000000000000000
02000004930010000000000193000000000000000000000000000000000051202407051270300004027665778401811ABRAHAM ALFREDO GUILLEN CHAVEZ          opt199788__6406380_34                   ABRAHAM ALFREDO GUILLEN CHAVEZ          00000000000000000022115AGENCIA TRAVEL BENEFITS000000000000000000000000000000000000000
02000005030010000000000193000000000000000000000000000000000051202407051270300004027665778401811ABRAHAM ALFREDO GUILLEN CHAVEZ          opt199788__6406381_35                   ABRAHAM ALFREDO GUILLEN CHAVEZ          00000000000000000022115AGENCIA TRAVEL BENEFITS000000000000000000000000000000000000000
02000005130010000000000193000000000000000000000000000000000051202407051270300004027665778401811ABRAHAM ALFREDO GUILLEN CHAVEZ          opt199789__6406417_34                   ABRAHAM ALFREDO GUILLEN CHAVEZ          00000000000000000022115AGENCIA TRAVEL BENEFITS000000000000000000000000000000000000000
02000005230010000000000193000000000000000000000000000000000051202407051270300004027665778401811ABRAHAM ALFREDO GUILLEN CHAVEZ          opt199789__6406418_35                   ABRAHAM ALFREDO GUILLEN CHAVEZ          00000000000000000022115AGENCIA TRAVEL BENEFITS000000000000000000000000000000000000000
02000005330010000000000277000000000000000000000000000000000051202407051270300004027665779061754AYDE CORONA MENDEZ                      opt200012__6415872_32                   AYDE CORONA MENDEZ                      00000000000000000022115AGENCIA TRAVEL BENEFITS000000000000000000000000000000000000000
02000005430010000000000277000000000000000000000000000000000051202407051270300004027665779061754AYDE CORONA MENDEZ                      opt200012__6415873_33                   AYDE CORONA MENDEZ                      00000000000000000022115AGENCIA TRAVEL BENEFITS000000000000000000000000000000000000000
02000005530010000000000277000000000000000000000000000000000051202407051274000127180001863547900VICTOR JAVIER ALVAREZ ESPINOSA          opt200088__6419723_33                   VICTOR JAVIER ALVAREZ ESPINOSA          00000000000000000022115AGENCIA TRAVEL BENEFITS000000000000000000000000000000000000000
02000005630010000000000277000000000000000000000000000000000051202407051274000127180001863547900VICTOR JAVIER ALVAREZ ESPINOSA          opt200088__6419724_34                   VICTOR JAVIER ALVAREZ ESPINOSA          00000000000000000022115AGENCIA TRAVEL BENEFITS000000000000000000000000000000000000000
02000005730010000000000277000000000000000000000000000000000051202407051274000127180001863547900VICTOR JAVIER ALVAREZ ESPINOSA          opt200089__6419760_33                   VICTOR JAVIER ALVAREZ ESPINOSA          00000000000000000022115AGENCIA TRAVEL BENEFITS000000000000000000000000000000000000000
02000005830010000000000277000000000000000000000000000000000051202407051274000127180001863547900VICTOR JAVIER ALVAREZ ESPINOSA          opt200089__6419761_34                   VICTOR JAVIER ALVAREZ ESPINOSA          00000000000000000022115AGENCIA TRAVEL BENEFITS000000000000000000000000000000000000000
02000005930010000000000277000000000000000000000000000000000051202407051274000127320013809317272GUILLLERMO RIVAS FERNANDEZ              opt200159__6424552_32                   GUILLLERMO RIVAS FERNANDEZ              00000000000000000022115AGENCIA TRAVEL BENEFITS000000000000000000000000000000000000000
02000006030010000000000277000000000000000000000000000000000051202407051274000127320013809317272GUILLLERMO RIVAS FERNANDEZ              opt200159__6424553_33                   GUILLLERMO RIVAS FERNANDEZ              00000000000000000022115AGENCIA TRAVEL BENEFITS000000000000000000000000000000000000000
02000006130010000000000277000000000000000000000000000000000051202407051274000127320013809317272GUILLLERMO RIVAS FERNANDEZ              opt200160__6424589_32                   GUILLLERMO RIVAS FERNANDEZ              00000000000000000022115AGENCIA TRAVEL BENEFITS000000000000000000000000000000000000000
02000006230010000000000277000000000000000000000000000000000051202407051274000127320013809317272GUILLLERMO RIVAS FERNANDEZ              opt200160__6424590_33                   GUILLLERMO RIVAS FERNANDEZ              00000000000000000022115AGENCIA TRAVEL BENEFITS000000000000000000000000000000000000000
02000006330010000000000277000000000000000000000000000000000051202407051270300004027665781809323JOSE LUIS GONZALEZ                      opt200220__6426704_31                   JOSE LUIS GONZALEZ                      00000000000000000022115AGENCIA TRAVEL BENEFITS000000000000000000000000000000000000000
02000006430010000000000277000000000000000000000000000000000051202407051270300004027665781809323JOSE LUIS GONZALEZ                      opt200220__6426705_32                   JOSE LUIS GONZALEZ                      00000000000000000022115AGENCIA TRAVEL BENEFITS000000000000000000000000000000000000000
02000006530010000000000383000000000000000000000000000000000051202407051270300004831120604103534JORGE LUIS PATINO GUTIERREZ             opt200273__6428076_31                   JORGE LUIS PATINO GUTIERREZ             00000000000000000022115AGENCIA TRAVEL BENEFITS000000000000000000000000000000000000000
02000006630010000000000383000000000000000000000000000000000051202407051270300004831120604103534JORGE LUIS PATINO GUTIERREZ             opt200273__6428077_32                   JORGE LUIS PATINO GUTIERREZ             00000000000000000022115AGENCIA TRAVEL BENEFITS000000000000000000000000000000000000000
02000006730010000000000383000000000000000000000000000000000051202407051270300004027665307753609JUAN CARLOS SILVA ASCENCIO              opt200354__6430734_33                   JUAN CARLOS SILVA ASCENCIO              00000000000000000022115AGENCIA TRAVEL BENEFITS000000000000000000000000000000000000000
02000006830010000000000383000000000000000000000000000000000051202407051270300004027665307753609JUAN CARLOS SILVA ASCENCIO              opt200354__6430735_34                   JUAN CARLOS SILVA ASCENCIO              00000000000000000022115AGENCIA TRAVEL BENEFITS000000000000000000000000000000000000000
02000006930010000000000383000000000000000000000000000000000051202407051270300004027665307753609JUAN CARLOS SILVA ASCENCIO              opt200355__6430771_33                   JUAN CARLOS SILVA ASCENCIO              00000000000000000022115AGENCIA TRAVEL BENEFITS000000000000000000000000000000000000000
02000007030010000000000383000000000000000000000000000000000051202407051270300004027665307753609JUAN CARLOS SILVA ASCENCIO              opt200355__6430772_34                   JUAN CARLOS SILVA ASCENCIO              00000000000000000022115AGENCIA TRAVEL BENEFITS000000000000000000000000000000000000000
02000007130010000000000193000000000000000000000000000000000051202407051270300005512382357017104ALEJANDRA HINOJOSA MEJIA                opt200431__6434630_33                   ALEJANDRA HINOJOSA MEJIA                00000000000000000022115AGENCIA TRAVEL BENEFITS000000000000000000000000000000000000000
02000007230010000000000193000000000000000000000000000000000051202407051270300005512382357017104ALEJANDRA HINOJOSA MEJIA                opt200431__6434631_34                   ALEJANDRA HINOJOSA MEJIA                00000000000000000022115AGENCIA TRAVEL BENEFITS000000000000000000000000000000000000000
02000007330010000000000193000000000000000000000000000000000051202407051270300004027666100378883JUAN CARLOS DE DIOS FLORES              opt200505__6437129_33                   JUAN CARLOS DE DIOS FLORES              00000000000000000022115AGENCIA TRAVEL BENEFITS000000000000000000000000000000000000000
02000007430010000000000193000000000000000000000000000000000051202407051270300004027666100378883JUAN CARLOS DE DIOS FLORES              opt200505__6437130_34                   JUAN CARLOS DE DIOS FLORES              00000000000000000022115AGENCIA TRAVEL BENEFITS000000000000000000000000000000000000000
02000007530010000000000277000000000000000000000000000000000051202407051274000127130001106322191JAIRO JOEL SANCHEZ LAYNEZ               opt200512__6437563_33                   JAIRO JOEL SANCHEZ LAYNEZ               00000000000000000022115AGENCIA TRAVEL BENEFITS000000000000000000000000000000000000000
02000007630010000000000277000000000000000000000000000000000051202407051274000127130001106322191JAIRO JOEL SANCHEZ LAYNEZ               opt200512__6437564_34                   JAIRO JOEL SANCHEZ LAYNEZ               00000000000000000022115AGENCIA TRAVEL BENEFITS000000000000000000000000000000000000000
02000007730010000000000219000000000000000000000000000000000051202407051274000127180016235740618SILVIA DURAN GUTIERREZ                  opt200592__6441625_34                   SILVIA DURAN GUTIERREZ                  00000000000000000022115AGENCIA TRAVEL BENEFITS000000000000000000000000000000000000000
02000007830010000000000219000000000000000000000000000000000051202407051274000127180016235740618SILVIA DURAN GUTIERREZ                  opt200593__6441662_34                   SILVIA DURAN GUTIERREZ                  00000000000000000022115AGENCIA TRAVEL BENEFITS000000000000000000000000000000000000000
02000007930010000000000277000000000000000000000000000000000051202407051274000127180016011877815MARIANA ISHEL GOMEZ CRUZ                opt200608__6442002_33                   MARIANA ISHEL GOMEZ CRUZ                00000000000000000022115AGENCIA TRAVEL BENEFITS000000000000000000000000000000000000000
02000008030010000000000277000000000000000000000000000000000051202407051274000127180016011877815MARIANA ISHEL GOMEZ CRUZ                opt200608__6442003_34                   MARIANA ISHEL GOMEZ CRUZ                00000000000000000022115AGENCIA TRAVEL BENEFITS000000000000000000000000000000000000000
02000008130010000000000383000000000000000000000000000000000051202407051270300005263540129638033MARIA DEL ROCIO GARCIA VILLEDA          opt200793__6452752_32                   MARIA DEL ROCIO GARCIA VILLEDA          00000000000000000022115AGENCIA TRAVEL BENEFITS000000000000000000000000000000000000000
02000008230010000000000383000000000000000000000000000000000051202407051270300005263540129638033MARIA DEL ROCIO GARCIA VILLEDA          opt200793__6452753_33                   MARIA DEL ROCIO GARCIA VILLEDA          00000000000000000022115AGENCIA TRAVEL BENEFITS000000000000000000000000000000000000000
02000008330010000000000277000000000000000000000000000000000051202407051270300005512382374136838DIANA ARMENTA RUIZ                      opt200815__6450750_19                   DIANA ARMENTA RUIZ                      00000000000000000022115AGENCIA TRAVEL BENEFITS000000000000000000000000000000000000000
02000008430010000000000277000000000000000000000000000000000051202407051270300005512382374136838DIANA ARMENTA RUIZ                      opt200815__6450751_20                   DIANA ARMENTA RUIZ                      00000000000000000022115AGENCIA TRAVEL BENEFITS000000000000000000000000000000000000000
02000008530010000000000193000000000000000000000000000000000051202407051270300005512382346532502BEATRIZ ANGELICA WENCE RODRIGUEZ        opt200873__6454874_29                   BEATRIZ ANGELICA WENCE RODRIGUEZ        00000000000000000022115AGENCIA TRAVEL BENEFITS000000000000000000000000000000000000000
02000008630010000000000193000000000000000000000000000000000051202407051270300005512382346532502BEATRIZ ANGELICA WENCE RODRIGUEZ        opt200873__6454875_30                   BEATRIZ ANGELICA WENCE RODRIGUEZ        00000000000000000022115AGENCIA TRAVEL BENEFITS000000000000000000000000000000000000000
02000008730010000000000290820000000000000000000000000000000051202407051270300004027665827457053MONICA JAZMIN PICHARDO REBOLLAR         opt200876__7185054_25                   MONICA JAZMIN PICHARDO REBOLLAR         00000000000000000022115AGENCIA TRAVEL BENEFITS000000000000000000000000000000000000000
02000008830010000000000290820000000000000000000000000000000051202407051270300004027665827457053MONICA JAZMIN PICHARDO REBOLLAR         opt200876__7185055_26                   MONICA JAZMIN PICHARDO REBOLLAR         00000000000000000022115AGENCIA TRAVEL BENEFITS000000000000000000000000000000000000000
02000008930010000000000193000000000000000000000000000000000051202407051270300004027665778501404LUIS MANUEL OCHOA JIMENEZ               opt200911__6454202_32                   LUIS MANUEL OCHOA JIMENEZ               00000000000000000022115AGENCIA TRAVEL BENEFITS000000000000000000000000000000000000000
02000009030010000000000193000000000000000000000000000000000051202407051270300004027665778501404LUIS MANUEL OCHOA JIMENEZ               opt200911__6454203_33                   LUIS MANUEL OCHOA JIMENEZ               00000000000000000022115AGENCIA TRAVEL BENEFITS000000000000000000000000000000000000000
02000009130010000000000383000000000000000000000000000000000051202407051270300004027665002266253GONZALEZ ZUNIGA MAYRA EDITH             opt200976__6459794_28                   GONZALEZ ZUNIGA MAYRA EDITH             00000000000000000022115AGENCIA TRAVEL BENEFITS000000000000000000000000000000000000000
02000009230010000000000277000000000000000000000000000000000051202407051270300005512382374136838DIANA ARMENTA RUIZ                      opt201004__6459423_19                   DIANA ARMENTA RUIZ                      00000000000000000022115AGENCIA TRAVEL BENEFITS000000000000000000000000000000000000000
02000009330010000000000277000000000000000000000000000000000051202407051270300005512382374136838DIANA ARMENTA RUIZ                      opt201004__6459424_20                   DIANA ARMENTA RUIZ                      00000000000000000022115AGENCIA TRAVEL BENEFITS000000000000000000000000000000000000000
02000009430010000000000219000000000000000000000000000000000051202407051274000127790001107134113MARIA DEL CARMEN GALAN CANO             opt201046__6477605_30                   MARIA DEL CARMEN GALAN CANO             00000000000000000022115AGENCIA TRAVEL BENEFITS000000000000000000000000000000000000000
02000009530010000000000219000000000000000000000000000000000051202407051274000127790001107134113MARIA DEL CARMEN GALAN CANO             opt201046__6477606_31                   MARIA DEL CARMEN GALAN CANO             00000000000000000022115AGENCIA TRAVEL BENEFITS000000000000000000000000000000000000000
02000009630010000000000219000000000000000000000000000000000051202407051274000127790001107134113MARIA DEL CARMEN GALAN CANO             opt201047__6477532_30                   MARIA DEL CARMEN GALAN CANO             00000000000000000022115AGENCIA TRAVEL BENEFITS000000000000000000000000000000000000000
02000009730010000000000219000000000000000000000000000000000051202407051274000127790001107134113MARIA DEL CARMEN GALAN CANO             opt201047__6477533_31                   MARIA DEL CARMEN GALAN CANO             00000000000000000022115AGENCIA TRAVEL BENEFITS000000000000000000000000000000000000000
02000009830010000000000193000000000000000000000000000000000051202407051270300004027665004577467ALEJANDRO BUSTOS JIMENEZ                opt201119__6462778_32                   ALEJANDRO BUSTOS JIMENEZ                00000000000000000022115AGENCIA TRAVEL BENEFITS000000000000000000000000000000000000000
02000009930010000000000193000000000000000000000000000000000051202407051270300004027665004577467ALEJANDRO BUSTOS JIMENEZ                opt201119__6462779_33                   ALEJANDRO BUSTOS JIMENEZ                00000000000000000022115AGENCIA TRAVEL BENEFITS000000000000000000000000000000000000000
02000010030010000000000219000000000000000000000000000000000051202407051270300004027665828208208ANA KAREN AVILA BARRAZA                 opt201130__6463231_29                   ANA KAREN AVILA BARRAZA                 00000000000000000022115AGENCIA TRAVEL BENEFITS000000000000000000000000000000000000000
02000010130010000000000219000000000000000000000000000000000051202407051270300004027665828208208ANA KAREN AVILA BARRAZA                 opt201130__6463232_30                   ANA KAREN AVILA BARRAZA                 00000000000000000022115AGENCIA TRAVEL BENEFITS000000000000000000000000000000000000000
02000010230010000000000277000000000000000000000000000000000051202407051274000127180013612403937ANDY GUILLERMO DANIEL GONZALEZ          opt201188__6467647_25                   ANDY GUILLERMO DANIEL GONZALEZ          00000000000000000022115AGENCIA TRAVEL BENEFITS000000000000000000000000000000000000000
02000010330010000000000277000000000000000000000000000000000051202407051274000127180013612403937ANDY GUILLERMO DANIEL GONZALEZ          opt201188__6467648_26                   ANDY GUILLERMO DANIEL GONZALEZ          00000000000000000022115AGENCIA TRAVEL BENEFITS000000000000000000000000000000000000000
02000010430010000000000277000000000000000000000000000000000051202407051274000127180013612403937ANDY GUILLERMO DANIEL GONZALEZ          opt201189__6467684_25                   ANDY GUILLERMO DANIEL GONZALEZ          00000000000000000022115AGENCIA TRAVEL BENEFITS000000000000000000000000000000000000000
02000010530010000000000277000000000000000000000000000000000051202407051274000127180013612403937ANDY GUILLERMO DANIEL GONZALEZ          opt201189__6467685_26                   ANDY GUILLERMO DANIEL GONZALEZ          00000000000000000022115AGENCIA TRAVEL BENEFITS000000000000000000000000000000000000000
02000010630010000000000277000000000000000000000000000000000051202407051270300005263540122874288MARIA SUSANA GOROSTIETA LEGORRETA       opt201240__6468486_31                   MARIA SUSANA GOROSTIETA LEGORRETA       00000000000000000022115AGENCIA TRAVEL BENEFITS000000000000000000000000000000000000000
02000010730010000000000277000000000000000000000000000000000051202407051270300005263540122874288MARIA SUSANA GOROSTIETA LEGORRETA       opt201241__6468523_31                   MARIA SUSANA GOROSTIETA LEGORRETA       00000000000000000022115AGENCIA TRAVEL BENEFITS000000000000000000000000000000000000000
02000010830010000000000193000000000000000000000000000000000051202407051270300004027665787397091JOAN JESUS PEREZ MARTINEZ               opt201254__6470550_30                   JOAN JESUS PEREZ MARTINEZ               00000000000000000022115AGENCIA TRAVEL BENEFITS000000000000000000000000000000000000000
02000010930010000000000193000000000000000000000000000000000051202407051270300004027665787397091JOAN JESUS PEREZ MARTINEZ               opt201254__6470551_31                   JOAN JESUS PEREZ MARTINEZ               00000000000000000022115AGENCIA TRAVEL BENEFITS000000000000000000000000000000000000000
02000011030010000000000193000000000000000000000000000000000051202407051270300004027665787397091JOAN JESUS PEREZ MARTINEZ               opt201255__6470635_30                   JOAN JESUS PEREZ MARTINEZ               00000000000000000022115AGENCIA TRAVEL BENEFITS000000000000000000000000000000000000000
02000011130010000000000193000000000000000000000000000000000051202407051270300004027665787397091JOAN JESUS PEREZ MARTINEZ               opt201255__6470636_31                   JOAN JESUS PEREZ MARTINEZ               00000000000000000022115AGENCIA TRAVEL BENEFITS000000000000000000000000000000000000000
02000011230010000000000383000000000000000000000000000000000051202407051270300005263540120422791ANDREA LORY MOLINA RAMIREZ              opt201372__6473546_32                   ANDREA LORY MOLINA RAMIREZ              00000000000000000022115AGENCIA TRAVEL BENEFITS000000000000000000000000000000000000000
02000011330010000000000383000000000000000000000000000000000051202407051270300005263540120422791ANDREA LORY MOLINA RAMIREZ              opt201372__6473547_33                   ANDREA LORY MOLINA RAMIREZ              00000000000000000022115AGENCIA TRAVEL BENEFITS000000000000000000000000000000000000000
02000011430010000000000193000000000000000000000000000000000051202407051270300004027665781869319DULCE JHOANA RAMIREZ RIVERA             opt201381__6474123_31                   DULCE JHOANA RAMIREZ RIVERA             00000000000000000022115AGENCIA TRAVEL BENEFITS000000000000000000000000000000000000000
02000011530010000000000193000000000000000000000000000000000051202407051270300004027665781869319DULCE JHOANA RAMIREZ RIVERA             opt201381__6474124_32                   DULCE JHOANA RAMIREZ RIVERA             00000000000000000022115AGENCIA TRAVEL BENEFITS000000000000000000000000000000000000000
02000011630010000000000193000000000000000000000000000000000051202407051270300004027665781869319DULCE JHOANA RAMIREZ RIVERA             opt201382__6474160_31                   DULCE JHOANA RAMIREZ RIVERA             00000000000000000022115AGENCIA TRAVEL BENEFITS000000000000000000000000000000000000000
02000011730010000000000193000000000000000000000000000000000051202407051270300004027665781869319DULCE JHOANA RAMIREZ RIVERA             opt201382__6474161_32                   DULCE JHOANA RAMIREZ RIVERA             00000000000000000022115AGENCIA TRAVEL BENEFITS000000000000000000000000000000000000000
02000011830010000000000277000000000000000000000000000000000051202407051270300004027665768590169CESAR URIEL ESPINOSA OVIEDO             opt201442__6475939_29                   CESAR URIEL ESPINOSA OVIEDO             00000000000000000022115AGENCIA TRAVEL BENEFITS000000000000000000000000000000000000000
02000011930010000000000277000000000000000000000000000000000051202407051270300004027665768590169CESAR URIEL ESPINOSA OVIEDO             opt201442__6475940_30                   CESAR URIEL ESPINOSA OVIEDO             00000000000000000022115AGENCIA TRAVEL BENEFITS000000000000000000000000000000000000000
02000012030010000000000193000000000000000000000000000000000051202407051270300004027665775774699ARIADNA LUNA SEVILLA                    opt201461__6477187_31                   ARIADNA LUNA SEVILLA                    00000000000000000022115AGENCIA TRAVEL BENEFITS000000000000000000000000000000000000000
02000012130010000000000193000000000000000000000000000000000051202407051270300004027665775774699ARIADNA LUNA SEVILLA                    opt201461__6477188_32                   ARIADNA LUNA SEVILLA                    00000000000000000022115AGENCIA TRAVEL BENEFITS000000000000000000000000000000000000000
02000012230010000000000193000000000000000000000000000000000051202407051270300004027665775774699ARIADNA LUNA SEVILLA                    opt201462__6477224_31                   ARIADNA LUNA SEVILLA                    00000000000000000022115AGENCIA TRAVEL BENEFITS000000000000000000000000000000000000000
02000012330010000000000193000000000000000000000000000000000051202407051270300004027665775774699ARIADNA LUNA SEVILLA                    opt201462__6477225_32                   ARIADNA LUNA SEVILLA                    00000000000000000022115AGENCIA TRAVEL BENEFITS000000000000000000000000000000000000000
02000012430010000000000383000000000000000000000000000000000051202407051274000127233001152469044EVA GEORGINA CRUZ FRIAS                 opt201536__6481018_28                   EVA GEORGINA CRUZ FRIAS                 00000000000000000022115AGENCIA TRAVEL BENEFITS000000000000000000000000000000000000000
02000012530010000000000383000000000000000000000000000000000051202407051274000127233001152469044EVA GEORGINA CRUZ FRIAS                 opt201536__6481019_29                   EVA GEORGINA CRUZ FRIAS                 00000000000000000022115AGENCIA TRAVEL BENEFITS000000000000000000000000000000000000000
02000012630010000000000383000000000000000000000000000000000051202407051274000127233001152469044EVA GEORGINA CRUZ FRIAS                 opt201537__6481055_28                   EVA GEORGINA CRUZ FRIAS                 00000000000000000022115AGENCIA TRAVEL BENEFITS000000000000000000000000000000000000000
02000012730010000000000383000000000000000000000000000000000051202407051274000127233001152469044EVA GEORGINA CRUZ FRIAS                 opt201537__6481056_29                   EVA GEORGINA CRUZ FRIAS                 00000000000000000022115AGENCIA TRAVEL BENEFITS000000000000000000000000000000000000000
02000012830010000000000383000000000000000000000000000000000051202407051274000127233001152469044EVA GEORGINA CRUZ FRIAS                 opt201538__6481092_28                   EVA GEORGINA CRUZ FRIAS                 00000000000000000022115AGENCIA TRAVEL BENEFITS000000000000000000000000000000000000000
02000012930010000000000383000000000000000000000000000000000051202407051274000127233001152469044EVA GEORGINA CRUZ FRIAS                 opt201538__6481093_29                   EVA GEORGINA CRUZ FRIAS                 00000000000000000022115AGENCIA TRAVEL BENEFITS000000000000000000000000000000000000000
02000013030010000000000187770000000000000000000000000000000051202407051274000127180001218225039SONIA ALEJANDRA NARANJO GOMEZ           opt201643__6484260_29                   SONIA ALEJANDRA NARANJO GOMEZ           00000000000000000022115AGENCIA TRAVEL BENEFITS000000000000000000000000000000000000000
02000013130010000000000187770000000000000000000000000000000051202407051274000127180001218225039SONIA ALEJANDRA NARANJO GOMEZ           opt201643__6484261_30                   SONIA ALEJANDRA NARANJO GOMEZ           00000000000000000022115AGENCIA TRAVEL BENEFITS000000000000000000000000000000000000000
02000013230010000000000383000000000000000000000000000000000051202407051270300005512382353475884MARIA MAGDALENA MORAN ESTRADA           opt201656__6484875_31                   MARIA MAGDALENA MORAN ESTRADA           00000000000000000022115AGENCIA TRAVEL BENEFITS000000000000000000000000000000000000000
02000013330010000000000383000000000000000000000000000000000051202407051270300005512382353475884MARIA MAGDALENA MORAN ESTRADA           opt201656__6484876_32                   MARIA MAGDALENA MORAN ESTRADA           00000000000000000022115AGENCIA TRAVEL BENEFITS000000000000000000000000000000000000000
02000013430010000000000383000000000000000000000000000000000051202407051270300005512382353475884MARIA MAGDALENA MORAN ESTRADA           opt201657__6484912_31                   MARIA MAGDALENA MORAN ESTRADA           00000000000000000022115AGENCIA TRAVEL BENEFITS000000000000000000000000000000000000000
02000013530010000000000383000000000000000000000000000000000051202407051270300005512382353475884MARIA MAGDALENA MORAN ESTRADA           opt201657__6484913_32                   MARIA MAGDALENA MORAN ESTRADA           00000000000000000022115AGENCIA TRAVEL BENEFITS000000000000000000000000000000000000000
02000013630010000000000383000000000000000000000000000000000051202407051270300005512382353475884MARIA MAGDALENA MORAN ESTRADA           opt201658__6484949_31                   MARIA MAGDALENA MORAN ESTRADA           00000000000000000022115AGENCIA TRAVEL BENEFITS000000000000000000000000000000000000000
02000013730010000000000383000000000000000000000000000000000051202407051270300005512382353475884MARIA MAGDALENA MORAN ESTRADA           opt201658__6484950_32                   MARIA MAGDALENA MORAN ESTRADA           00000000000000000022115AGENCIA TRAVEL BENEFITS000000000000000000000000000000000000000
02000013830010000000000383000000000000000000000000000000000051202407051270300005512382353475884MARIA MAGDALENA MORAN ESTRADA           opt201659__6484986_31                   MARIA MAGDALENA MORAN ESTRADA           00000000000000000022115AGENCIA TRAVEL BENEFITS000000000000000000000000000000000000000
02000013930010000000000383000000000000000000000000000000000051202407051270300005512382353475884MARIA MAGDALENA MORAN ESTRADA           opt201659__6484987_32                   MARIA MAGDALENA MORAN ESTRADA           00000000000000000022115AGENCIA TRAVEL BENEFITS000000000000000000000000000000000000000
02000014030010000000000384420000000000000000000000000000000051202407051270300005512382353475884MARIA MAGDALENA MORAN ESTRADA           opt201660__6485023_31                   MARIA MAGDALENA MORAN ESTRADA           00000000000000000022115AGENCIA TRAVEL BENEFITS000000000000000000000000000000000000000
02000014130010000000000384420000000000000000000000000000000051202407051270300005512382353475884MARIA MAGDALENA MORAN ESTRADA           opt201660__6485024_32                   MARIA MAGDALENA MORAN ESTRADA           00000000000000000022115AGENCIA TRAVEL BENEFITS000000000000000000000000000000000000000
02000014230010000000000383000000000000000000000000000000000051202407051270300005512382353475884MARIA MAGDALENA MORAN ESTRADA           opt201661__6485060_31                   MARIA MAGDALENA MORAN ESTRADA           00000000000000000022115AGENCIA TRAVEL BENEFITS000000000000000000000000000000000000000
02000014330010000000000383000000000000000000000000000000000051202407051270300005512382353475884MARIA MAGDALENA MORAN ESTRADA           opt201661__6485061_32                   MARIA MAGDALENA MORAN ESTRADA           00000000000000000022115AGENCIA TRAVEL BENEFITS000000000000000000000000000000000000000
02000014430010000000000384420000000000000000000000000000000051202407051270300005512382353475884MARIA MAGDALENA MORAN ESTRADA           opt201662__6485097_31                   MARIA MAGDALENA MORAN ESTRADA           00000000000000000022115AGENCIA TRAVEL BENEFITS000000000000000000000000000000000000000
02000014530010000000000384420000000000000000000000000000000051202407051270300005512382353475884MARIA MAGDALENA MORAN ESTRADA           opt201662__6485098_32                   MARIA MAGDALENA MORAN ESTRADA           00000000000000000022115AGENCIA TRAVEL BENEFITS000000000000000000000000000000000000000
02000014630010000000000383000000000000000000000000000000000051202407051270300005512382353475884MARIA MAGDALENA MORAN ESTRADA           opt201663__6485134_31                   MARIA MAGDALENA MORAN ESTRADA           00000000000000000022115AGENCIA TRAVEL BENEFITS000000000000000000000000000000000000000
02000014730010000000000383000000000000000000000000000000000051202407051270300005512382353475884MARIA MAGDALENA MORAN ESTRADA           opt201663__6485135_32                   MARIA MAGDALENA MORAN ESTRADA           00000000000000000022115AGENCIA TRAVEL BENEFITS000000000000000000000000000000000000000
02000014830010000000000383000000000000000000000000000000000051202407051270300005512382353475884MARIA MAGDALENA MORAN ESTRADA           opt201664__6485171_31                   MARIA MAGDALENA MORAN ESTRADA           00000000000000000022115AGENCIA TRAVEL BENEFITS000000000000000000000000000000000000000
02000014930010000000000383000000000000000000000000000000000051202407051270300005512382353475884MARIA MAGDALENA MORAN ESTRADA           opt201664__6485172_32                   MARIA MAGDALENA MORAN ESTRADA           00000000000000000022115AGENCIA TRAVEL BENEFITS000000000000000000000000000000000000000
02000015030010000000000383000000000000000000000000000000000051202407051270300005512382353475884MARIA MAGDALENA MORAN ESTRADA           opt201665__6485208_31                   MARIA MAGDALENA MORAN ESTRADA           00000000000000000022115AGENCIA TRAVEL BENEFITS000000000000000000000000000000000000000
02000015130010000000000383000000000000000000000000000000000051202407051270300005512382353475884MARIA MAGDALENA MORAN ESTRADA           opt201665__6485209_32                   MARIA MAGDALENA MORAN ESTRADA           00000000000000000022115AGENCIA TRAVEL BENEFITS000000000000000000000000000000000000000
02000015230010000000000219000000000000000000000000000000000051202407051274000127420001616295392AARGELIA ACOSTA ANDRES                  opt201849__6490854_31                   AARGELIA ACOSTA ANDRES                  00000000000000000022115AGENCIA TRAVEL BENEFITS000000000000000000000000000000000000000
02000015330010000000000219000000000000000000000000000000000051202407051274000127420001616295392AARGELIA ACOSTA ANDRES                  opt201850__6490891_31                   AARGELIA ACOSTA ANDRES                  00000000000000000022115AGENCIA TRAVEL BENEFITS000000000000000000000000000000000000000
02000015430010000000000193000000000000000000000000000000000051202407051270300004027665796687219SAUL CRUZ TAPIA                         opt201916__6493644_31                   SAUL CRUZ TAPIA                         00000000000000000022115AGENCIA TRAVEL BENEFITS000000000000000000000000000000000000000
02000015530010000000000277000000000000000000000000000000000051202407051270300004027665739076264MARIA GUADALUPE RICO HERNANDEZ          opt201942__6494655_24                   MARIA GUADALUPE RICO HERNANDEZ          00000000000000000022115AGENCIA TRAVEL BENEFITS000000000000000000000000000000000000000
02000015630010000000000277000000000000000000000000000000000051202407051270300004027665739076264MARIA GUADALUPE RICO HERNANDEZ          opt201942__6494656_25                   MARIA GUADALUPE RICO HERNANDEZ          00000000000000000022115AGENCIA TRAVEL BENEFITS000000000000000000000000000000000000000
02000015730010000000000193000000000000000000000000000000000051202407051270300004027665005240669IVAN AYALA PINEDA                       opt202033__6497880_31                   IVAN AYALA PINEDA                       00000000000000000022115AGENCIA TRAVEL BENEFITS000000000000000000000000000000000000000
02000015830010000000000193000000000000000000000000000000000051202407051270300004027665005240669IVAN AYALA PINEDA                       opt202033__6497881_32                   IVAN AYALA PINEDA                       00000000000000000022115AGENCIA TRAVEL BENEFITS000000000000000000000000000000000000000
02000015930010000000000193000000000000000000000000000000000051202407051270300004027665005240669IVAN AYALA PINEDA                       opt202034__6497917_31                   IVAN AYALA PINEDA                       00000000000000000022115AGENCIA TRAVEL BENEFITS000000000000000000000000000000000000000
02000016030010000000000193000000000000000000000000000000000051202407051270300004027665005240669IVAN AYALA PINEDA                       opt202034__6497918_32                   IVAN AYALA PINEDA                       00000000000000000022115AGENCIA TRAVEL BENEFITS000000000000000000000000000000000000000
02000016130010000000000277000000000000000000000000000000000051202407051270300004027665818433501ROSALBA ISABEL GARCIA JUAREZ            opt202158__6502669_31                   ROSALBA ISABEL GARCIA JUAREZ            00000000000000000022115AGENCIA TRAVEL BENEFITS000000000000000000000000000000000000000
02000016230010000000000277000000000000000000000000000000000051202407051270300004027665818433501ROSALBA ISABEL GARCIA JUAREZ            opt202159__6502705_30                   ROSALBA ISABEL GARCIA JUAREZ            00000000000000000022115AGENCIA TRAVEL BENEFITS000000000000000000000000000000000000000
02000016330010000000000277000000000000000000000000000000000051202407051270300004027665818433501ROSALBA ISABEL GARCIA JUAREZ            opt202159__6502706_31                   ROSALBA ISABEL GARCIA JUAREZ            00000000000000000022115AGENCIA TRAVEL BENEFITS000000000000000000000000000000000000000
02000016430010000000000249300000000000000000000000000000000051202407051270300005512382395474499ERICK CHRISTIAN VELAZQUEZ MORALES       opt202176__6503978_25                   ERICK CHRISTIAN VELAZQUEZ MORALES       00000000000000000022115AGENCIA TRAVEL BENEFITS000000000000000000000000000000000000000
02000016530010000000000249300000000000000000000000000000000051202407051270300005512382395474499ERICK CHRISTIAN VELAZQUEZ MORALES       opt202176__6503979_26                   ERICK CHRISTIAN VELAZQUEZ MORALES       00000000000000000022115AGENCIA TRAVEL BENEFITS000000000000000000000000000000000000000
02000016630010000000000096500000000000000000000000000000000051202407051270300004027665308725333RAYMUNDO PEREZ GARCIA                   opt202191__6504814_64                   RAYMUNDO PEREZ GARCIA                   00000000000000000022115AGENCIA TRAVEL BENEFITS000000000000000000000000000000000000000
02000016730010000000000096500000000000000000000000000000000051202407051270300004027665308725333RAYMUNDO PEREZ GARCIA                   opt202191__6504815_65                   RAYMUNDO PEREZ GARCIA                   00000000000000000022115AGENCIA TRAVEL BENEFITS000000000000000000000000000000000000000
02000016830010000000000096500000000000000000000000000000000051202407051270300004027665308725333RAYMUNDO PEREZ GARCIA                   opt202191__6504816_66                   RAYMUNDO PEREZ GARCIA                   00000000000000000022115AGENCIA TRAVEL BENEFITS000000000000000000000000000000000000000
02000016930010000000000219000000000000000000000000000000000051202407051274000127180016620724786LUDWIG ENRIQUE BUENTELLO HUANOSTA       opt202215__6505775_30                   LUDWIG ENRIQUE BUENTELLO HUANOSTA       00000000000000000022115AGENCIA TRAVEL BENEFITS000000000000000000000000000000000000000
02000017030010000000000219000000000000000000000000000000000051202407051274000127180016620724786LUDWIG ENRIQUE BUENTELLO HUANOSTA       opt202215__6505776_31                   LUDWIG ENRIQUE BUENTELLO HUANOSTA       00000000000000000022115AGENCIA TRAVEL BENEFITS000000000000000000000000000000000000000
02000017130010000000000193000000000000000000000000000000000051202407051274000127180001414619591JUAN ANTONIO GONZALEZ HERNANDEZ         opt202344__6512260_12                   JUAN ANTONIO GONZALEZ HERNANDEZ         00000000000000000022115AGENCIA TRAVEL BENEFITS000000000000000000000000000000000000000
02000017230010000000000193000000000000000000000000000000000051202407051274000127180001414619591JUAN ANTONIO GONZALEZ HERNANDEZ         opt202344__6512261_13                   JUAN ANTONIO GONZALEZ HERNANDEZ         00000000000000000022115AGENCIA TRAVEL BENEFITS000000000000000000000000000000000000000
02000017330010000000000193000000000000000000000000000000000051202407051270300004027665784863020ELIDIA GALVEZ HERNANDEZ                 opt202567__6519431_31                   ELIDIA GALVEZ HERNANDEZ                 00000000000000000022115AGENCIA TRAVEL BENEFITS000000000000000000000000000000000000000
02000017430010000000000193000000000000000000000000000000000051202407051270300004027665784863020ELIDIA GALVEZ HERNANDEZ                 opt202568__6519468_31                   ELIDIA GALVEZ HERNANDEZ                 00000000000000000022115AGENCIA TRAVEL BENEFITS000000000000000000000000000000000000000
02000017530010000000000277000000000000000000000000000000000051202407051274000127650013294690504RICARDO JESUS GONZALEZ CHANTRES         opt202602__6520994_26                   RICARDO JESUS GONZALEZ CHANTRES         00000000000000000022115AGENCIA TRAVEL BENEFITS000000000000000000000000000000000000000
02000017630010000000000277000000000000000000000000000000000051202407051274000127650013294690504RICARDO JESUS GONZALEZ CHANTRES         opt202602__6520995_27                   RICARDO JESUS GONZALEZ CHANTRES         00000000000000000022115AGENCIA TRAVEL BENEFITS000000000000000000000000000000000000000
02000017730010000000000277000000000000000000000000000000000051202407051274000127650013294690504RICARDO JESUS GONZALEZ CHANTRES         opt202603__6521031_26                   RICARDO JESUS GONZALEZ CHANTRES         00000000000000000022115AGENCIA TRAVEL BENEFITS000000000000000000000000000000000000000
02000017830010000000000277000000000000000000000000000000000051202407051274000127650013294690504RICARDO JESUS GONZALEZ CHANTRES         opt202603__6521032_27                   RICARDO JESUS GONZALEZ CHANTRES         00000000000000000022115AGENCIA TRAVEL BENEFITS000000000000000000000000000000000000000
02000017930010000000000096500000000000000000000000000000000051202407051270300004027665002712124ALBA MARTINEZ MARTINEZ                  opt202627__6524854_62                   ALBA MARTINEZ MARTINEZ                  00000000000000000022115AGENCIA TRAVEL BENEFITS000000000000000000000000000000000000000
02000018030010000000000096500000000000000000000000000000000051202407051270300004027665002712124ALBA MARTINEZ MARTINEZ                  opt202627__6524855_63                   ALBA MARTINEZ MARTINEZ                  00000000000000000022115AGENCIA TRAVEL BENEFITS000000000000000000000000000000000000000
02000018130010000000000096500000000000000000000000000000000051202407051270300004027665002712124ALBA MARTINEZ MARTINEZ                  opt202627__6524856_64                   ALBA MARTINEZ MARTINEZ                  00000000000000000022115AGENCIA TRAVEL BENEFITS000000000000000000000000000000000000000
02000018230010000000000096500000000000000000000000000000000051202407051270300004027665002712124ALBA MARTINEZ MARTINEZ                  opt202627__6524857_65                   ALBA MARTINEZ MARTINEZ                  00000000000000000022115AGENCIA TRAVEL BENEFITS000000000000000000000000000000000000000
02000018330010000000000096500000000000000000000000000000000051202407051270300004027665002712124ALBA MARTINEZ MARTINEZ                  opt202723__6526819_62                   ALBA MARTINEZ MARTINEZ                  00000000000000000022115AGENCIA TRAVEL BENEFITS000000000000000000000000000000000000000
02000018430010000000000096500000000000000000000000000000000051202407051270300004027665002712124ALBA MARTINEZ MARTINEZ                  opt202723__6526820_63                   ALBA MARTINEZ MARTINEZ                  00000000000000000022115AGENCIA TRAVEL BENEFITS000000000000000000000000000000000000000
02000018530010000000000096500000000000000000000000000000000051202407051270300004027665002712124ALBA MARTINEZ MARTINEZ                  opt202723__6526821_64                   ALBA MARTINEZ MARTINEZ                  00000000000000000022115AGENCIA TRAVEL BENEFITS000000000000000000000000000000000000000
02000018630010000000000096500000000000000000000000000000000051202407051270300004027665002712124ALBA MARTINEZ MARTINEZ                  opt202723__6526822_65                   ALBA MARTINEZ MARTINEZ                  00000000000000000022115AGENCIA TRAVEL BENEFITS000000000000000000000000000000000000000
02000018730010000000000193000000000000000000000000000000000051202407051274000127180013321615346CESAR ARTURO MORALES VIDAL              opt203110__6540698_16                   CESAR ARTURO MORALES VIDAL              00000000000000000022115AGENCIA TRAVEL BENEFITS000000000000000000000000000000000000000
02000018830010000000000193000000000000000000000000000000000051202407051274000127180013321615346CESAR ARTURO MORALES VIDAL              opt203110__6540699_17                   CESAR ARTURO MORALES VIDAL              00000000000000000022115AGENCIA TRAVEL BENEFITS000000000000000000000000000000000000000
02000018930010000000000193000000000000000000000000000000000051202407051274000127180016455465838VICTOR HUGO RIVERA RIVERA               opt203146__6541711_30                   VICTOR HUGO RIVERA RIVERA               00000000000000000022115AGENCIA TRAVEL BENEFITS000000000000000000000000000000000000000
02000019030010000000000277000000000000000000000000000000000051202407051274000127180013708895572SORAYA MARTINEZ CADENA                  opt203346__6549756_26                   SORAYA MARTINEZ CADENA                  00000000000000000022115AGENCIA TRAVEL BENEFITS000000000000000000000000000000000000000
02000019130010000000000277000000000000000000000000000000000051202407051274000127180013708895572SORAYA MARTINEZ CADENA                  opt203346__6549757_27                   SORAYA MARTINEZ CADENA                  00000000000000000022115AGENCIA TRAVEL BENEFITS000000000000000000000000000000000000000
02000019230010000000000277000000000000000000000000000000000051202407051274000127180013708895572SORAYA MARTINEZ CADENA                  opt203347__6549719_26                   SORAYA MARTINEZ CADENA                  00000000000000000022115AGENCIA TRAVEL BENEFITS000000000000000000000000000000000000000
02000019330010000000000277000000000000000000000000000000000051202407051274000127180013708895572SORAYA MARTINEZ CADENA                  opt203347__6549720_27                   SORAYA MARTINEZ CADENA                  00000000000000000022115AGENCIA TRAVEL BENEFITS000000000000000000000000000000000000000
02000019430010000000000383000000000000000000000000000000000051202407051274000127320013211302710JORGE ALBERTO MONTERO RUELAS            opt203376__6550525_28                   JORGE ALBERTO MONTERO RUELAS            00000000000000000022115AGENCIA TRAVEL BENEFITS000000000000000000000000000000000000000
02000019530010000000000383000000000000000000000000000000000051202407051274000127320013211302710JORGE ALBERTO MONTERO RUELAS            opt203377__6550562_28                   JORGE ALBERTO MONTERO RUELAS            00000000000000000022115AGENCIA TRAVEL BENEFITS000000000000000000000000000000000000000
02000019630010000000000277000000000000000000000000000000000051202407051274000127180016656019410TANIA HAMARA BUSTILLOS GUTIERREZ        opt203402__6551489_27                   TANIA HAMARA BUSTILLOS GUTIERREZ        00000000000000000022115AGENCIA TRAVEL BENEFITS000000000000000000000000000000000000000
02000019730010000000000277000000000000000000000000000000000051202407051274000127180016656019410TANIA HAMARA BUSTILLOS GUTIERREZ        opt203402__6551490_28                   TANIA HAMARA BUSTILLOS GUTIERREZ        00000000000000000022115AGENCIA TRAVEL BENEFITS000000000000000000000000000000000000000
02000019830010000000000193000000000000000000000000000000000051202407051270300004027665784712995ROBERTO ALEJANDRO LAUREANO              opt203423__6551562_26                   ROBERTO ALEJANDRO LAUREANO              00000000000000000022115AGENCIA TRAVEL BENEFITS000000000000000000000000000000000000000
02000019930010000000000193000000000000000000000000000000000051202407051270300004027665784712995ROBERTO ALEJANDRO LAUREANO              opt203424__6551599_26                   ROBERTO ALEJANDRO LAUREANO              00000000000000000022115AGENCIA TRAVEL BENEFITS000000000000000000000000000000000000000
02000020030010000000000252000000000000000000000000000000000051202407051270300005512382411603386GERARDO GONZALEZ PALMA                  opt203465__6554027_28                   GERARDO GONZALEZ PALMA                  00000000000000000022115AGENCIA TRAVEL BENEFITS000000000000000000000000000000000000000
02000020130010000000000252000000000000000000000000000000000051202407051270300005512382411603386GERARDO GONZALEZ PALMA                  opt203465__6554028_29                   GERARDO GONZALEZ PALMA                  00000000000000000022115AGENCIA TRAVEL BENEFITS000000000000000000000000000000000000000
02000020230010000000000252000000000000000000000000000000000051202407051270300005512382411603386GERARDO GONZALEZ PALMA                  opt203467__6553953_28                   GERARDO GONZALEZ PALMA                  00000000000000000022115AGENCIA TRAVEL BENEFITS000000000000000000000000000000000000000
02000020330010000000000252000000000000000000000000000000000051202407051270300005512382411603386GERARDO GONZALEZ PALMA                  opt203467__6553954_29                   GERARDO GONZALEZ PALMA                  00000000000000000022115AGENCIA TRAVEL BENEFITS000000000000000000000000000000000000000
02000020430010000000000138500000000000000000000000000000000051202407051270300005263540143961072ARTURO LOPEZ MONTES                     opt203613__6653565_55                   ARTURO LOPEZ MONTES                     00000000000000000022115AGENCIA TRAVEL BENEFITS000000000000000000000000000000000000000
02000020530010000000000138500000000000000000000000000000000051202407051270300005263540143961072ARTURO LOPEZ MONTES                     opt203613__6653566_56                   ARTURO LOPEZ MONTES                     00000000000000000022115AGENCIA TRAVEL BENEFITS000000000000000000000000000000000000000
02000020630010000000000138500000000000000000000000000000000051202407051270300005263540143961072ARTURO LOPEZ MONTES                     opt203613__6653567_57                   ARTURO LOPEZ MONTES                     00000000000000000022115AGENCIA TRAVEL BENEFITS000000000000000000000000000000000000000
02000020730010000000000138500000000000000000000000000000000051202407051270300005263540143961072ARTURO LOPEZ MONTES                     opt203614__6653599_55                   ARTURO LOPEZ MONTES                     00000000000000000022115AGENCIA TRAVEL BENEFITS000000000000000000000000000000000000000
02000020830010000000000138500000000000000000000000000000000051202407051270300005263540143961072ARTURO LOPEZ MONTES                     opt203614__6653600_56                   ARTURO LOPEZ MONTES                     00000000000000000022115AGENCIA TRAVEL BENEFITS000000000000000000000000000000000000000
02000020930010000000000138500000000000000000000000000000000051202407051270300005263540143961072ARTURO LOPEZ MONTES                     opt203614__6653601_57                   ARTURO LOPEZ MONTES                     00000000000000000022115AGENCIA TRAVEL BENEFITS000000000000000000000000000000000000000
02000021030010000000000277000000000000000000000000000000000051202407051274000127180013784412461VICTOR DANIEL BERNAL RAMIREZ            opt203717__6563778_26                   VICTOR DANIEL BERNAL RAMIREZ            00000000000000000022115AGENCIA TRAVEL BENEFITS000000000000000000000000000000000000000
02000021130010000000000277000000000000000000000000000000000051202407051274000127180013784412461VICTOR DANIEL BERNAL RAMIREZ            opt203717__6563779_27                   VICTOR DANIEL BERNAL RAMIREZ            00000000000000000022115AGENCIA TRAVEL BENEFITS000000000000000000000000000000000000000
02000021230010000000000277000000000000000000000000000000000051202407051274000127180013784412461VICTOR DANIEL BERNAL RAMIREZ            opt203718__6563815_26                   VICTOR DANIEL BERNAL RAMIREZ            00000000000000000022115AGENCIA TRAVEL BENEFITS000000000000000000000000000000000000000
02000021330010000000000277000000000000000000000000000000000051202407051274000127180013784412461VICTOR DANIEL BERNAL RAMIREZ            opt203718__6563816_27                   VICTOR DANIEL BERNAL RAMIREZ            00000000000000000022115AGENCIA TRAVEL BENEFITS000000000000000000000000000000000000000
02000021430010000000000554000000000000000000000000000000000051202407051270300004027665798014040JUAN MANUEL RANGEL GARCIA               opt203882__6569814_13                   JUAN MANUEL RANGEL GARCIA               00000000000000000022115AGENCIA TRAVEL BENEFITS000000000000000000000000000000000000000
02000021530010000000000554000000000000000000000000000000000051202407051270300004027665798014040JUAN MANUEL RANGEL GARCIA               opt203883__6569795_13                   JUAN MANUEL RANGEL GARCIA               00000000000000000022115AGENCIA TRAVEL BENEFITS000000000000000000000000000000000000000
02000021630010000000000383000000000000000000000000000000000051202407051270300004027665311987003RICARDO RUIZ CRUZ                       opt204186__6581725_27                   RICARDO RUIZ CRUZ                       00000000000000000022115AGENCIA TRAVEL BENEFITS000000000000000000000000000000000000000
02000021730010000000000383000000000000000000000000000000000051202407051270300004027665311987003RICARDO RUIZ CRUZ                       opt204186__6581726_28                   RICARDO RUIZ CRUZ                       00000000000000000022115AGENCIA TRAVEL BENEFITS000000000000000000000000000000000000000
02000021830010000000000277000000000000000000000000000000000051202407051274000127150001296167864MARIA DE LOS ANGELES BUITIMEA ENRIQUEZ  opt204203__6582877_22                   MARIA DE LOS ANGELES BUITIMEA ENRIQUEZ  00000000000000000022115AGENCIA TRAVEL BENEFITS000000000000000000000000000000000000000
02000021930010000000000277000000000000000000000000000000000051202407051274000127150001296167864MARIA DE LOS ANGELES BUITIMEA ENRIQUEZ  opt204203__6582878_23                   MARIA DE LOS ANGELES BUITIMEA ENRIQUEZ  00000000000000000022115AGENCIA TRAVEL BENEFITS000000000000000000000000000000000000000
02000022030010000000000277000000000000000000000000000000000051202407051274000127150001296167864MARIA DE LOS ANGELES BUITIMEA ENRIQUEZ  opt204214__6582892_12                   MARIA DE LOS ANGELES BUITIMEA ENRIQUEZ  00000000000000000022115AGENCIA TRAVEL BENEFITS000000000000000000000000000000000000000
02000022130010000000000193000000000000000000000000000000000051202407051270300005512382380625451GONZALEZ MARTINEZ KATYA                 opt204253__6584240_19                   GONZALEZ MARTINEZ KATYA                 00000000000000000022115AGENCIA TRAVEL BENEFITS000000000000000000000000000000000000000
02000022230010000000000193000000000000000000000000000000000051202407051270300005512382380625451GONZALEZ MARTINEZ KATYA                 opt204253__6584241_20                   GONZALEZ MARTINEZ KATYA                 00000000000000000022115AGENCIA TRAVEL BENEFITS000000000000000000000000000000000000000
02000022330010000000000260550000000000000000000000000000000051202407051270300004198220311281206MONICA MONTSERRAT VALLEJO VELAQUEZ      opt204273__6585269_22                   MONICA MONTSERRAT VALLEJO VELAQUEZ      00000000000000000022115AGENCIA TRAVEL BENEFITS000000000000000000000000000000000000000
02000022430010000000000260550000000000000000000000000000000051202407051270300004198220311281206MONICA MONTSERRAT VALLEJO VELAQUEZ      opt204273__6585270_23                   MONICA MONTSERRAT VALLEJO VELAQUEZ      00000000000000000022115AGENCIA TRAVEL BENEFITS000000000000000000000000000000000000000
02000022530010000000000260550000000000000000000000000000000051202407051270300004198220311281206MONICA MONTSERRAT VALLEJO VELAQUEZ      opt204274__6585219_22                   MONICA MONTSERRAT VALLEJO VELAQUEZ      00000000000000000022115AGENCIA TRAVEL BENEFITS000000000000000000000000000000000000000
02000022630010000000000260550000000000000000000000000000000051202407051270300004198220311281206MONICA MONTSERRAT VALLEJO VELAQUEZ      opt204274__6585220_23                   MONICA MONTSERRAT VALLEJO VELAQUEZ      00000000000000000022115AGENCIA TRAVEL BENEFITS000000000000000000000000000000000000000
02000022730010000000000193000000000000000000000000000000000051202407051270300004027665711098187ANA LUISA SANTOYO MUNOZ                 opt204282__6584745_28                   ANA LUISA SANTOYO MUNOZ                 00000000000000000022115AGENCIA TRAVEL BENEFITS000000000000000000000000000000000000000
02000022830010000000000193000000000000000000000000000000000051202407051270300004027665711098187ANA LUISA SANTOYO MUNOZ                 opt204284__6584708_28                   ANA LUISA SANTOYO MUNOZ                 00000000000000000022115AGENCIA TRAVEL BENEFITS000000000000000000000000000000000000000
02000022930010000000000193000000000000000000000000000000000051202407051270300004027665711098187ANA LUISA SANTOYO MUNOZ                 opt204285__6584671_28                   ANA LUISA SANTOYO MUNOZ                 00000000000000000022115AGENCIA TRAVEL BENEFITS000000000000000000000000000000000000000
02000023030010000000000260550000000000000000000000000000000051202407051270300004198220311281206MONICA MONTSERRAT VALLEJO VELAQUEZ      opt204286__6585244_22                   MONICA MONTSERRAT VALLEJO VELAQUEZ      00000000000000000022115AGENCIA TRAVEL BENEFITS000000000000000000000000000000000000000
02000023130010000000000260550000000000000000000000000000000051202407051270300004198220311281206MONICA MONTSERRAT VALLEJO VELAQUEZ      opt204286__6585245_23                   MONICA MONTSERRAT VALLEJO VELAQUEZ      00000000000000000022115AGENCIA TRAVEL BENEFITS000000000000000000000000000000000000000
02000023230010000000000193000000000000000000000000000000000051202407051270300005512382392834117GUADALUPE ELENA AMBROSIO LOPEZ          opt204314__6586533_27                   GUADALUPE ELENA AMBROSIO LOPEZ          00000000000000000022115AGENCIA TRAVEL BENEFITS000000000000000000000000000000000000000
02000023330010000000000193000000000000000000000000000000000051202407051270300005512382392834117GUADALUPE ELENA AMBROSIO LOPEZ          opt204314__6586534_28                   GUADALUPE ELENA AMBROSIO LOPEZ          00000000000000000022115AGENCIA TRAVEL BENEFITS000000000000000000000000000000000000000
02000023430010000000000277000000000000000000000000000000000051202407051274000127308013011971952PAULINA FRIAS NAVA                      opt204399__6590489_25                   PAULINA FRIAS NAVA                      00000000000000000022115AGENCIA TRAVEL BENEFITS000000000000000000000000000000000000000
02000023530010000000000277000000000000000000000000000000000051202407051274000127308013011971952PAULINA FRIAS NAVA                      opt204399__6590490_26                   PAULINA FRIAS NAVA                      00000000000000000022115AGENCIA TRAVEL BENEFITS000000000000000000000000000000000000000
02000023630010000000000219000000000000000000000000000000000051202407051270300005512382419916210MARTIN VICENTE CHAN DZIB                opt204432__6591146_27                   MARTIN VICENTE CHAN DZIB                00000000000000000022115AGENCIA TRAVEL BENEFITS000000000000000000000000000000000000000
02000023730010000000000219000000000000000000000000000000000051202407051270300005512382419916210MARTIN VICENTE CHAN DZIB                opt204432__6591147_28                   MARTIN VICENTE CHAN DZIB                00000000000000000022115AGENCIA TRAVEL BENEFITS000000000000000000000000000000000000000
02000023830010000000000277000000000000000000000000000000000051202407051270300004198220034302198CHRISTIAN ERNESTO SAUCEDO RAMIREZ       opt204491__6593489_26                   CHRISTIAN ERNESTO SAUCEDO RAMIREZ       00000000000000000022115AGENCIA TRAVEL BENEFITS000000000000000000000000000000000000000
02000023930010000000000193000000000000000000000000000000000051202407051274000127164013092123659JAVIER GONZALEZ VALDEZ                  opt204760__6603402_27                   JAVIER GONZALEZ VALDEZ                  00000000000000000022115AGENCIA TRAVEL BENEFITS000000000000000000000000000000000000000
02000024030010000000000219000000000000000000000000000000000051202407051270300004027665758500798DULCE IRENE MENDEZ CORTEZ               opt204766__6603597_23                   DULCE IRENE MENDEZ CORTEZ               00000000000000000022115AGENCIA TRAVEL BENEFITS000000000000000000000000000000000000000
02000024130010000000000219000000000000000000000000000000000051202407051270300004027665758500798DULCE IRENE MENDEZ CORTEZ               opt204766__6603598_24                   DULCE IRENE MENDEZ CORTEZ               00000000000000000022115AGENCIA TRAVEL BENEFITS000000000000000000000000000000000000000
02000024230010000000000277000000000000000000000000000000000051202407051270300004027665793940421ANGELA CAROLINA ARREOLA VARGAS          opt204771__6604160_26                   ANGELA CAROLINA ARREOLA VARGAS          00000000000000000022115AGENCIA TRAVEL BENEFITS000000000000000000000000000000000000000
02000024330010000000000277000000000000000000000000000000000051202407051270300004027665793940421ANGELA CAROLINA ARREOLA VARGAS          opt204771__6604161_27                   ANGELA CAROLINA ARREOLA VARGAS          00000000000000000022115AGENCIA TRAVEL BENEFITS000000000000000000000000000000000000000
02000024430010000000000277000000000000000000000000000000000051202407051270300004027665793940421ANGELA CAROLINA ARREOLA VARGAS          opt204772__6604197_26                   ANGELA CAROLINA ARREOLA VARGAS          00000000000000000022115AGENCIA TRAVEL BENEFITS000000000000000000000000000000000000000
02000024530010000000000277000000000000000000000000000000000051202407051270300004027665793940421ANGELA CAROLINA ARREOLA VARGAS          opt204772__6604198_27                   ANGELA CAROLINA ARREOLA VARGAS          00000000000000000022115AGENCIA TRAVEL BENEFITS000000000000000000000000000000000000000
02000024630010000000000277000000000000000000000000000000000051202407051274000127180001149408187EDUARDO CAYETANO MARCELO                opt204776__6604010_24                   EDUARDO CAYETANO MARCELO                00000000000000000022115AGENCIA TRAVEL BENEFITS000000000000000000000000000000000000000
02000024730010000000000277000000000000000000000000000000000051202407051274000127180001149408187EDUARDO CAYETANO MARCELO                opt204776__6604011_25                   EDUARDO CAYETANO MARCELO                00000000000000000022115AGENCIA TRAVEL BENEFITS000000000000000000000000000000000000000
02000024830010000000000277000000000000000000000000000000000051202407051270300004027665309411461DAYANARA LIZBET HUERTA VIDAL            opt204780__6603865_27                   DAYANARA LIZBET HUERTA VIDAL            00000000000000000022115AGENCIA TRAVEL BENEFITS000000000000000000000000000000000000000
02000024930010000000000219000000000000000000000000000000000051202407051274000127095013738867885MAYRA SELENE HERMOSILLO FLORIAN         opt204828__6606299_27                   MAYRA SELENE HERMOSILLO FLORIAN         00000000000000000022115AGENCIA TRAVEL BENEFITS000000000000000000000000000000000000000
02000025030010000000000219000000000000000000000000000000000051202407051274000127095013738867885MAYRA SELENE HERMOSILLO FLORIAN         opt204828__6606300_28                   MAYRA SELENE HERMOSILLO FLORIAN         00000000000000000022115AGENCIA TRAVEL BENEFITS000000000000000000000000000000000000000
02000025130010000000000219000000000000000000000000000000000051202407051274000127095013738867885MAYRA SELENE HERMOSILLO FLORIAN         opt204829__6606261_27                   MAYRA SELENE HERMOSILLO FLORIAN         00000000000000000022115AGENCIA TRAVEL BENEFITS000000000000000000000000000000000000000
02000025230010000000000219000000000000000000000000000000000051202407051274000127095013738867885MAYRA SELENE HERMOSILLO FLORIAN         opt204829__6606262_28                   MAYRA SELENE HERMOSILLO FLORIAN         00000000000000000022115AGENCIA TRAVEL BENEFITS000000000000000000000000000000000000000
02000025330010000000000219000000000000000000000000000000000051202407051274000127095013738867885MAYRA SELENE HERMOSILLO FLORIAN         opt204831__6606224_27                   MAYRA SELENE HERMOSILLO FLORIAN         00000000000000000022115AGENCIA TRAVEL BENEFITS000000000000000000000000000000000000000
02000025430010000000000219000000000000000000000000000000000051202407051274000127095013738867885MAYRA SELENE HERMOSILLO FLORIAN         opt204831__6606225_28                   MAYRA SELENE HERMOSILLO FLORIAN         00000000000000000022115AGENCIA TRAVEL BENEFITS000000000000000000000000000000000000000
02000025530010000000000277000000000000000000000000000000000051202407051274000127180016536064080VIRIDIANA DEL CARMEN RUIZ RODRIGUEZ     opt205009__6612968_25                   VIRIDIANA DEL CARMEN RUIZ RODRIGUEZ     00000000000000000022115AGENCIA TRAVEL BENEFITS000000000000000000000000000000000000000
02000025630010000000000277000000000000000000000000000000000051202407051274000127180016536064080VIRIDIANA DEL CARMEN RUIZ RODRIGUEZ     opt205009__6612969_26                   VIRIDIANA DEL CARMEN RUIZ RODRIGUEZ     00000000000000000022115AGENCIA TRAVEL BENEFITS000000000000000000000000000000000000000
02000025730010000000000252000000000000000000000000000000000051202407051270300004027665807488151ALEJANDRO GUZMAN CHAVEZ                 opt205080__6615952_26                   ALEJANDRO GUZMAN CHAVEZ                 00000000000000000022115AGENCIA TRAVEL BENEFITS000000000000000000000000000000000000000
02000025830010000000000252000000000000000000000000000000000051202407051270300004027665807488151ALEJANDRO GUZMAN CHAVEZ                 opt205080__6615953_27                   ALEJANDRO GUZMAN CHAVEZ                 00000000000000000022115AGENCIA TRAVEL BENEFITS000000000000000000000000000000000000000
02000025930010000000000252000000000000000000000000000000000051202407051270300004027665807488151ALEJANDRO GUZMAN CHAVEZ                 opt205081__6615915_26                   ALEJANDRO GUZMAN CHAVEZ                 00000000000000000022115AGENCIA TRAVEL BENEFITS000000000000000000000000000000000000000
02000026030010000000000252000000000000000000000000000000000051202407051270300004027665807488151ALEJANDRO GUZMAN CHAVEZ                 opt205081__6615916_27                   ALEJANDRO GUZMAN CHAVEZ                 00000000000000000022115AGENCIA TRAVEL BENEFITS000000000000000000000000000000000000000
02000026130010000000000219000000000000000000000000000000000051202407051270300005263540126124482LUIS ENRIQUE ROJAS SANCHEZ              opt205090__6616100_26                   LUIS ENRIQUE ROJAS SANCHEZ              00000000000000000022115AGENCIA TRAVEL BENEFITS000000000000000000000000000000000000000
02000026230010000000000277000000000000000000000000000000000051202407051274000127180013328267768IGNACIO LARA MENDEZ                     opt205240__6621690_25                   IGNACIO LARA MENDEZ                     00000000000000000022115AGENCIA TRAVEL BENEFITS000000000000000000000000000000000000000
02000026330010000000000277000000000000000000000000000000000051202407051274000127180013328267768IGNACIO LARA MENDEZ                     opt205240__6621691_26                   IGNACIO LARA MENDEZ                     00000000000000000022115AGENCIA TRAVEL BENEFITS000000000000000000000000000000000000000
02000026430010000000000373950000000000000000000000000000000051202407051274000127180013894719290ESLI MONTALVO GALINDO                   opt205247__6621948_23                   ESLI MONTALVO GALINDO                   00000000000000000022115AGENCIA TRAVEL BENEFITS000000000000000000000000000000000000000
02000026530010000000000373950000000000000000000000000000000051202407051274000127180013894719290ESLI MONTALVO GALINDO                   opt205247__6621949_24                   ESLI MONTALVO GALINDO                   00000000000000000022115AGENCIA TRAVEL BENEFITS000000000000000000000000000000000000000
02000026630010000000000277000000000000000000000000000000000051202407051270300004027665849917647FERNANDO CRISTOBAL LARA                 opt205260__6622199_25                   FERNANDO CRISTOBAL LARA                 00000000000000000022115AGENCIA TRAVEL BENEFITS000000000000000000000000000000000000000
02000026730010000000000277000000000000000000000000000000000051202407051270300004027665849917647FERNANDO CRISTOBAL LARA                 opt205260__6622200_26                   FERNANDO CRISTOBAL LARA                 00000000000000000022115AGENCIA TRAVEL BENEFITS000000000000000000000000000000000000000
02000026830010000000000193000000000000000000000000000000000051202407051270300005263540115526200ADRIAN CALDERON SANCHEZ                 opt205355__6626323_26                   ADRIAN CALDERON SANCHEZ                 00000000000000000022115AGENCIA TRAVEL BENEFITS000000000000000000000000000000000000000
02000026930010000000000193000000000000000000000000000000000051202407051270300005263540115526200ADRIAN CALDERON SANCHEZ                 opt205355__6626324_27                   ADRIAN CALDERON SANCHEZ                 00000000000000000022115AGENCIA TRAVEL BENEFITS000000000000000000000000000000000000000
02000027030010000000000193000000000000000000000000000000000051202407051270300005263540115526200ADRIAN CALDERON SANCHEZ                 opt205356__6626360_26                   ADRIAN CALDERON SANCHEZ                 00000000000000000022115AGENCIA TRAVEL BENEFITS000000000000000000000000000000000000000
02000027130010000000000193000000000000000000000000000000000051202407051270300005263540115526200ADRIAN CALDERON SANCHEZ                 opt205356__6626361_27                   ADRIAN CALDERON SANCHEZ                 00000000000000000022115AGENCIA TRAVEL BENEFITS000000000000000000000000000000000000000
02000027230010000000000277000000000000000000000000000000000051202407051274000127180001574067229EVELYN MUNOZ OLVERA                     opt205444__6629619_25                   EVELYN MUNOZ OLVERA                     00000000000000000022115AGENCIA TRAVEL BENEFITS000000000000000000000000000000000000000
02000027330010000000000277000000000000000000000000000000000051202407051274000127180001574067229EVELYN MUNOZ OLVERA                     opt205444__6629620_26                   EVELYN MUNOZ OLVERA                     00000000000000000022115AGENCIA TRAVEL BENEFITS000000000000000000000000000000000000000
02000027430010000000000277000000000000000000000000000000000051202407051270300004027665809403265MARIBEL GARCIA GUEVARA                  opt205466__6630106_26                   MARIBEL GARCIA GUEVARA                  00000000000000000022115AGENCIA TRAVEL BENEFITS000000000000000000000000000000000000000
02000027530010000000000277000000000000000000000000000000000051202407051270300004027665809403265MARIBEL GARCIA GUEVARA                  opt205467__6630069_26                   MARIBEL GARCIA GUEVARA                  00000000000000000022115AGENCIA TRAVEL BENEFITS000000000000000000000000000000000000000
02000027630010000000000277000000000000000000000000000000000051202407051270300004027665810875147MONICA EUGENIA VILLA GARCIA             opt205510__6632006_24                   MONICA EUGENIA VILLA GARCIA             00000000000000000022115AGENCIA TRAVEL BENEFITS000000000000000000000000000000000000000
02000027730010000000000277000000000000000000000000000000000051202407051270300004027665810875147MONICA EUGENIA VILLA GARCIA             opt205510__6632007_25                   MONICA EUGENIA VILLA GARCIA             00000000000000000022115AGENCIA TRAVEL BENEFITS000000000000000000000000000000000000000
02000027830010000000000277000000000000000000000000000000000051202407051270300004027664173271945MIRIAM FABIOLA MARTINEZ GONZALEZ        opt205610__6635976_20                   MIRIAM FABIOLA MARTINEZ GONZALEZ        00000000000000000022115AGENCIA TRAVEL BENEFITS000000000000000000000000000000000000000
02000027930010000000000277000000000000000000000000000000000051202407051270300004027664173271945MIRIAM FABIOLA MARTINEZ GONZALEZ        opt205610__6635977_21                   MIRIAM FABIOLA MARTINEZ GONZALEZ        00000000000000000022115AGENCIA TRAVEL BENEFITS000000000000000000000000000000000000000
02000028030010000000000373950000000000000000000000000000000051202407051270300004027665780166196LUZ ADRIANA MENDEZ FUENTES              opt205642__6637265_24                   LUZ ADRIANA MENDEZ FUENTES              00000000000000000022115AGENCIA TRAVEL BENEFITS000000000000000000000000000000000000000
02000028130010000000000373950000000000000000000000000000000051202407051270300004027665780166196LUZ ADRIANA MENDEZ FUENTES              opt205643__6637290_24                   LUZ ADRIANA MENDEZ FUENTES              00000000000000000022115AGENCIA TRAVEL BENEFITS000000000000000000000000000000000000000
02000028230010000000000219000000000000000000000000000000000051202407051270300005263540133694329DOMINGUEZ LOPEZ MARITZA OLGA            opt205664__6638083_23                   DOMINGUEZ LOPEZ MARITZA OLGA            00000000000000000022115AGENCIA TRAVEL BENEFITS000000000000000000000000000000000000000
02000028330010000000000219000000000000000000000000000000000051202407051270300005263540133694329DOMINGUEZ LOPEZ MARITZA OLGA            opt205664__6638084_24                   DOMINGUEZ LOPEZ MARITZA OLGA            00000000000000000022115AGENCIA TRAVEL BENEFITS000000000000000000000000000000000000000
02000028430010000000000193000000000000000000000000000000000051202407051270300004027665733096599MARIA DE LOS ANGELES AHUMADA GONZALEZ   opt205750__6641540_16                   MARIA DE LOS ANGELES AHUMADA GONZALEZ   00000000000000000022115AGENCIA TRAVEL BENEFITS000000000000000000000000000000000000000
02000028530010000000000193000000000000000000000000000000000051202407051270300004027665733096599MARIA DE LOS ANGELES AHUMADA GONZALEZ   opt205751__6641583_22                   MARIA DE LOS ANGELES AHUMADA GONZALEZ   00000000000000000022115AGENCIA TRAVEL BENEFITS000000000000000000000000000000000000000
02000028630010000000000193000000000000000000000000000000000051202407051270300004027665733096599MARIA DE LOS ANGELES AHUMADA GONZALEZ   opt205751__6641584_23                   MARIA DE LOS ANGELES AHUMADA GONZALEZ   00000000000000000022115AGENCIA TRAVEL BENEFITS000000000000000000000000000000000000000
02000028730010000000000193000000000000000000000000000000000051202407051270300005512382404042394OSCAR IVAN GARCIA GUERRERO              opt205752__6641622_24                   OSCAR IVAN GARCIA GUERRERO              00000000000000000022115AGENCIA TRAVEL BENEFITS000000000000000000000000000000000000000
02000028830010000000000193000000000000000000000000000000000051202407051270300005512382404042394OSCAR IVAN GARCIA GUERRERO              opt205752__6641623_25                   OSCAR IVAN GARCIA GUERRERO              00000000000000000022115AGENCIA TRAVEL BENEFITS000000000000000000000000000000000000000
02000028930010000000000260550000000000000000000000000000000051202407051274000127420013269494428ISAAC EDUARDO MERCADO PEREZ             opt205778__6642802_23                   ISAAC EDUARDO MERCADO PEREZ             00000000000000000022115AGENCIA TRAVEL BENEFITS000000000000000000000000000000000000000
02000029030010000000000260550000000000000000000000000000000051202407051274000127420013269494428ISAAC EDUARDO MERCADO PEREZ             opt205778__6642803_24                   ISAAC EDUARDO MERCADO PEREZ             00000000000000000022115AGENCIA TRAVEL BENEFITS000000000000000000000000000000000000000
02000029130010000000000260550000000000000000000000000000000051202407051274000127420013269494428ISAAC EDUARDO MERCADO PEREZ             opt205780__6642864_23                   ISAAC EDUARDO MERCADO PEREZ             00000000000000000022115AGENCIA TRAVEL BENEFITS000000000000000000000000000000000000000
02000029230010000000000260550000000000000000000000000000000051202407051274000127420013269494428ISAAC EDUARDO MERCADO PEREZ             opt205780__6642865_24                   ISAAC EDUARDO MERCADO PEREZ             00000000000000000022115AGENCIA TRAVEL BENEFITS000000000000000000000000000000000000000
02000029330010000000000096500000000000000000000000000000000051202407051270300004027665003490845GLADYSS BORBON ARGUELLES                opt205938__6648826_53                   GLADYSS BORBON ARGUELLES                00000000000000000022115AGENCIA TRAVEL BENEFITS000000000000000000000000000000000000000
02000029430010000000000096500000000000000000000000000000000051202407051270300004027665003490845GLADYSS BORBON ARGUELLES                opt205938__6648827_54                   GLADYSS BORBON ARGUELLES                00000000000000000022115AGENCIA TRAVEL BENEFITS000000000000000000000000000000000000000
02000029530010000000000096500000000000000000000000000000000051202407051270300004027665003490845GLADYSS BORBON ARGUELLES                opt205938__6648828_55                   GLADYSS BORBON ARGUELLES                00000000000000000022115AGENCIA TRAVEL BENEFITS000000000000000000000000000000000000000
02000029630010000000000373950000000000000000000000000000000051202407051274000127180001499038595CLAUDIA JAQUELINE VALENZUELA SUAREZ     opt205963__6650506_22                   CLAUDIA JAQUELINE VALENZUELA SUAREZ     00000000000000000022115AGENCIA TRAVEL BENEFITS000000000000000000000000000000000000000
02000029730010000000000373950000000000000000000000000000000051202407051274000127180001499038595CLAUDIA JAQUELINE VALENZUELA SUAREZ     opt205963__6650507_23                   CLAUDIA JAQUELINE VALENZUELA SUAREZ     00000000000000000022115AGENCIA TRAVEL BENEFITS000000000000000000000000000000000000000
02000029830010000000000517050000000000000000000000000000000051202407051270300005263540116520384DIANA LAURA GALLEGOS VALERIO            opt205971__6650309_23                   DIANA LAURA GALLEGOS VALERIO            00000000000000000022115AGENCIA TRAVEL BENEFITS000000000000000000000000000000000000000
02000029930010000000000517050000000000000000000000000000000051202407051270300005263540116520384DIANA LAURA GALLEGOS VALERIO            opt205971__6650310_24                   DIANA LAURA GALLEGOS VALERIO            00000000000000000022115AGENCIA TRAVEL BENEFITS000000000000000000000000000000000000000
02000030030010000000000193000000000000000000000000000000000051202407051270300004027665777130791GABRIEL AVILA CERVANTES                 opt205984__6649793_25                   GABRIEL AVILA CERVANTES                 00000000000000000022115AGENCIA TRAVEL BENEFITS000000000000000000000000000000000000000
02000030130010000000000193000000000000000000000000000000000051202407051270300004027665777130791GABRIEL AVILA CERVANTES                 opt205984__6649794_26                   GABRIEL AVILA CERVANTES                 00000000000000000022115AGENCIA TRAVEL BENEFITS000000000000000000000000000000000000000
02000030230010000000000373950000000000000000000000000000000051202407051274000127180013967840591MANUEL GARCIA BALTAZAR                  opt205988__6650831_18                   MANUEL GARCIA BALTAZAR                  00000000000000000022115AGENCIA TRAVEL BENEFITS000000000000000000000000000000000000000
02000030330010000000000373950000000000000000000000000000000051202407051274000127180013967840591MANUEL GARCIA BALTAZAR                  opt205988__6650832_19                   MANUEL GARCIA BALTAZAR                  00000000000000000022115AGENCIA TRAVEL BENEFITS000000000000000000000000000000000000000
02000030430010000000000383000000000000000000000000000000000051202407051270300004027665783133441JUAN ISAAC CENTENO ROJAS                opt206044__6652934_21                   JUAN ISAAC CENTENO ROJAS                00000000000000000022115AGENCIA TRAVEL BENEFITS000000000000000000000000000000000000000
02000030530010000000000383000000000000000000000000000000000051202407051270300004027665783133441JUAN ISAAC CENTENO ROJAS                opt206044__6652935_22                   JUAN ISAAC CENTENO ROJAS                00000000000000000022115AGENCIA TRAVEL BENEFITS000000000000000000000000000000000000000
02000030630010000000000383000000000000000000000000000000000051202407051270300004027665783133441JUAN ISAAC CENTENO ROJAS                opt206045__6652971_21                   JUAN ISAAC CENTENO ROJAS                00000000000000000022115AGENCIA TRAVEL BENEFITS000000000000000000000000000000000000000
02000030730010000000000383000000000000000000000000000000000051202407051270300004027665783133441JUAN ISAAC CENTENO ROJAS                opt206045__6652972_22                   JUAN ISAAC CENTENO ROJAS                00000000000000000022115AGENCIA TRAVEL BENEFITS000000000000000000000000000000000000000
02000030830010000000000219000000000000000000000000000000000051202407051270300004027665828208208ANA KAREN AVILA BARRAZA                 opt206046__6653009_22                   ANA KAREN AVILA BARRAZA                 00000000000000000022115AGENCIA TRAVEL BENEFITS000000000000000000000000000000000000000
02000030930010000000000219000000000000000000000000000000000051202407051270300004027665828208208ANA KAREN AVILA BARRAZA                 opt206046__6653010_23                   ANA KAREN AVILA BARRAZA                 00000000000000000022115AGENCIA TRAVEL BENEFITS000000000000000000000000000000000000000
02000031030010000000000219000000000000000000000000000000000051202407051270300004027665828208208ANA KAREN AVILA BARRAZA                 opt206047__6653046_22                   ANA KAREN AVILA BARRAZA                 00000000000000000022115AGENCIA TRAVEL BENEFITS000000000000000000000000000000000000000
02000031130010000000000219000000000000000000000000000000000051202407051270300004027665828208208ANA KAREN AVILA BARRAZA                 opt206047__6653047_23                   ANA KAREN AVILA BARRAZA                 00000000000000000022115AGENCIA TRAVEL BENEFITS000000000000000000000000000000000000000
02000031230010000000000219000000000000000000000000000000000051202407051270300004027665828208208ANA KAREN AVILA BARRAZA                 opt206049__6653083_22                   ANA KAREN AVILA BARRAZA                 00000000000000000022115AGENCIA TRAVEL BENEFITS000000000000000000000000000000000000000
02000031330010000000000219000000000000000000000000000000000051202407051270300004027665828208208ANA KAREN AVILA BARRAZA                 opt206049__6653084_23                   ANA KAREN AVILA BARRAZA                 00000000000000000022115AGENCIA TRAVEL BENEFITS000000000000000000000000000000000000000
02000031430010000000000277000000000000000000000000000000000051202407051270300004027665770255207ARTURO LOPEZ BARROSO                    opt206070__6654110_25                   ARTURO LOPEZ BARROSO                    00000000000000000022115AGENCIA TRAVEL BENEFITS000000000000000000000000000000000000000
02000031530010000000000277000000000000000000000000000000000051202407051270300004027665770255207ARTURO LOPEZ BARROSO                    opt206070__6654111_26                   ARTURO LOPEZ BARROSO                    00000000000000000022115AGENCIA TRAVEL BENEFITS000000000000000000000000000000000000000
02000031630010000000000193000000000000000000000000000000000051202407051270300004027665721499375MA ESTHELA NAVARRETE LEON               opt206119__6656025_25                   MA ESTHELA NAVARRETE LEON               00000000000000000022115AGENCIA TRAVEL BENEFITS000000000000000000000000000000000000000
02000031730010000000000277000000000000000000000000000000000051202407051274000127180017017174414ALBERTO NAVA ENCISO                     opt206164__6657553_23                   ALBERTO NAVA ENCISO                     00000000000000000022115AGENCIA TRAVEL BENEFITS000000000000000000000000000000000000000
02000031830010000000000277000000000000000000000000000000000051202407051274000127180017017174414ALBERTO NAVA ENCISO                     opt206164__6657554_24                   ALBERTO NAVA ENCISO                     00000000000000000022115AGENCIA TRAVEL BENEFITS000000000000000000000000000000000000000
02000031930010000000000277000000000000000000000000000000000051202407051270300004027665824817937VERONICA RUBIO SANCHEZ                  opt206174__6657997_21                   VERONICA RUBIO SANCHEZ                  00000000000000000022115AGENCIA TRAVEL BENEFITS000000000000000000000000000000000000000
02000032030010000000000277000000000000000000000000000000000051202407051270300004027665824817937VERONICA RUBIO SANCHEZ                  opt206174__6657998_22                   VERONICA RUBIO SANCHEZ                  00000000000000000022115AGENCIA TRAVEL BENEFITS000000000000000000000000000000000000000
02000032130010000000000225500000000000000000000000000000000051202407051270300004027665858211080SERGIO MAURICIO PEREZ CANALES           opt206222__6659774_21                   SERGIO MAURICIO PEREZ CANALES           00000000000000000022115AGENCIA TRAVEL BENEFITS000000000000000000000000000000000000000
02000032230010000000000225500000000000000000000000000000000051202407051270300004027665858211080SERGIO MAURICIO PEREZ CANALES           opt206222__6659775_22                   SERGIO MAURICIO PEREZ CANALES           00000000000000000022115AGENCIA TRAVEL BENEFITS000000000000000000000000000000000000000
02000032330010000000000219000000000000000000000000000000000051202407051270300004027665736555229ELIZABETH MONTOYA JAUREGUI              opt206297__6662528_22                   ELIZABETH MONTOYA JAUREGUI              00000000000000000022115AGENCIA TRAVEL BENEFITS000000000000000000000000000000000000000
02000032430010000000000219000000000000000000000000000000000051202407051270300004027665736555229ELIZABETH MONTOYA JAUREGUI              opt206297__6662529_23                   ELIZABETH MONTOYA JAUREGUI              00000000000000000022115AGENCIA TRAVEL BENEFITS000000000000000000000000000000000000000
02000032530010000000000193000000000000000000000000000000000051202407051270300004027665787255141SUSANA GINES ZEFERINO                   opt206369__6665200_23                   SUSANA GINES ZEFERINO                   00000000000000000022115AGENCIA TRAVEL BENEFITS000000000000000000000000000000000000000
02000032630010000000000193000000000000000000000000000000000051202407051270300004027665787255141SUSANA GINES ZEFERINO                   opt206369__6665201_24                   SUSANA GINES ZEFERINO                   00000000000000000022115AGENCIA TRAVEL BENEFITS000000000000000000000000000000000000000
02000032730010000000000193000000000000000000000000000000000051202407051270300004027665787255141SUSANA GINES ZEFERINO                   opt206370__6665237_23                   SUSANA GINES ZEFERINO                   00000000000000000022115AGENCIA TRAVEL BENEFITS000000000000000000000000000000000000000
02000032830010000000000193000000000000000000000000000000000051202407051270300004027665787255141SUSANA GINES ZEFERINO                   opt206370__6665238_24                   SUSANA GINES ZEFERINO                   00000000000000000022115AGENCIA TRAVEL BENEFITS000000000000000000000000000000000000000
02000032930010000000000193000000000000000000000000000000000051202407051274000127650001269696273JOSE IVAN AGUIRRE CABRERA               opt206428__6667490_23                   JOSE IVAN AGUIRRE CABRERA               00000000000000000022115AGENCIA TRAVEL BENEFITS000000000000000000000000000000000000000
02000033030010000000000193000000000000000000000000000000000051202407051274000127650001269696273JOSE IVAN AGUIRRE CABRERA               opt206428__6667491_24                   JOSE IVAN AGUIRRE CABRERA               00000000000000000022115AGENCIA TRAVEL BENEFITS000000000000000000000000000000000000000
02000033130010000000000193000000000000000000000000000000000051202407051274000127180001327268518ESLIE DANAHE LOZANO GARCIA              opt206456__6668654_24                   ESLIE DANAHE LOZANO GARCIA              00000000000000000022115AGENCIA TRAVEL BENEFITS000000000000000000000000000000000000000
02000033230010000000000193000000000000000000000000000000000051202407051274000127180001327268518ESLIE DANAHE LOZANO GARCIA              opt206457__6668690_23                   ESLIE DANAHE LOZANO GARCIA              00000000000000000022115AGENCIA TRAVEL BENEFITS000000000000000000000000000000000000000
