01000000130014E200000012024071101000000000000000000000000000OPTU TRAVEL BENEFITSOTB201104EU3      00000000000000000000000000000000000000000000000000000000000000000000000000000000000000000000000000000000000000000000000000000000000000000000000000000000000000000000000000000000000000
02000000230010000000000365000000000000000000000000000000000051202407111270300004027665780138179FLORENTINO VALLE SOTO                   opt154977__6976375_49                   FLORENTINO VALLE SOTO                   00000000000000000022155AGENCIA TRAVEL BENEFITS000000000000000000000000000000000000000
02000000330010000000000286830000000000000000000000000000000051202407111274000127180016105019220HUGO ALFONSO COTA MADRIGAL              opt186452__7163331_27                   HUGO ALFONSO COTA MADRIGAL              00000000000000000022155AGENCIA TRAVEL BENEFITS000000000000000000000000000000000000000
02000000430010000000000286830000000000000000000000000000000051202407111274000127180016105019220HUGO ALFONSO COTA MADRIGAL              opt186452__7163332_28                   HUGO ALFONSO COTA MADRIGAL              00000000000000000022155AGENCIA TRAVEL BENEFITS000000000000000000000000000000000000000
02000000530010000000000293600000000000000000000000000000000051202407111274000127180016105019220HUGO ALFONSO COTA MADRIGAL              opt186453__7163337_27                   HUGO ALFONSO COTA MADRIGAL              00000000000000000022155AGENCIA TRAVEL BENEFITS000000000000000000000000000000000000000
02000000630010000000000293600000000000000000000000000000000051202407111274000127180016105019220HUGO ALFONSO COTA MADRIGAL              opt186453__7163338_28                   HUGO ALFONSO COTA MADRIGAL              00000000000000000022155AGENCIA TRAVEL BENEFITS000000000000000000000000000000000000000
02000000730010000000000109500000000000000000000000000000000051202407111270300005512382420864979LISSETH SALAZAR MENDOZA                 opt197040__6452986_47                   LISSETH SALAZAR MENDOZA                 00000000000000000022155AGENCIA TRAVEL BENEFITS000000000000000000000000000000000000000
02000000830010000000000109500000000000000000000000000000000051202407111270300005512382420864979LISSETH SALAZAR MENDOZA                 opt197040__6452987_48                   LISSETH SALAZAR MENDOZA                 00000000000000000022155AGENCIA TRAVEL BENEFITS000000000000000000000000000000000000000
02000000930010000000000109500000000000000000000000000000000051202407111270300005512382420864979LISSETH SALAZAR MENDOZA                 opt197040__6940736_49                   LISSETH SALAZAR MENDOZA                 00000000000000000022155AGENCIA TRAVEL BENEFITS000000000000000000000000000000000000000
02000001030010000000000219000000000000000000000000000000000051202407111270300005512382420530646JULIO CESAR MORALES GOMEZ               opt198491__6348312_35                   JULIO CESAR MORALES GOMEZ               00000000000000000022155AGENCIA TRAVEL BENEFITS000000000000000000000000000000000000000
02000001130010000000000277000000000000000000000000000000000051202407111274000127180013676704038ALEXIS FLORES ROJAS                     opt198881__6365367_35                   ALEXIS FLORES ROJAS                     00000000000000000022155AGENCIA TRAVEL BENEFITS000000000000000000000000000000000000000
02000001230010000000000277000000000000000000000000000000000051202407111274000127180013371641519DIANA BERENICE CORTES RAMIREZ           opt198897__6366368_36                   DIANA BERENICE CORTES RAMIREZ           00000000000000000022155AGENCIA TRAVEL BENEFITS000000000000000000000000000000000000000
02000001330010000000000219000000000000000000000000000000000051202407111270300004027665858211080SERGIO MAURICIO PEREZ CANALES           opt198951__6367857_36                   SERGIO MAURICIO PEREZ CANALES           00000000000000000022155AGENCIA TRAVEL BENEFITS000000000000000000000000000000000000000
02000001430010000000000219000000000000000000000000000000000051202407111270300004027665858211080SERGIO MAURICIO PEREZ CANALES           opt198952__7169502_30                   SERGIO MAURICIO PEREZ CANALES           00000000000000000022155AGENCIA TRAVEL BENEFITS000000000000000000000000000000000000000
02000001530010000000000219000000000000000000000000000000000051202407111270300004027665858211080SERGIO MAURICIO PEREZ CANALES           opt198954__6367968_36                   SERGIO MAURICIO PEREZ CANALES           00000000000000000022155AGENCIA TRAVEL BENEFITS000000000000000000000000000000000000000
02000001630010000000000193000000000000000000000000000000000051202407111274000127180001128927980OLGAAA LIDIA RODRIGUEZ DE LOS SANTOS    opt199012__6372364_31                   OLGAAA LIDIA RODRIGUEZ DE LOS SANTOS    00000000000000000022155AGENCIA TRAVEL BENEFITS000000000000000000000000000000000000000
02000001730010000000000193000000000000000000000000000000000051202407111270300004027665308627653BRAYAN JESúS LUNA CORREA               opt199090__6377132_33                   BRAYAN JESúS LUNA CORREA               00000000000000000022155AGENCIA TRAVEL BENEFITS000000000000000000000000000000000000000
02000001830010000000000193000000000000000000000000000000000051202407111270300004027665308627653BRAYAN JESúS LUNA CORREA               opt199126__6376871_32                   BRAYAN JESúS LUNA CORREA               00000000000000000022155AGENCIA TRAVEL BENEFITS000000000000000000000000000000000000000
02000001930010000000000193000000000000000000000000000000000051202407111270300004027665805409043CéSAR HIDALGO ALCANTARA                opt199202__6380380_36                   CéSAR HIDALGO ALCANTARA                00000000000000000022155AGENCIA TRAVEL BENEFITS000000000000000000000000000000000000000
02000002030010000000000277000000000000000000000000000000000051202407111270300004027665760961418DAVID MARTINEZ                          opt199269__6383006_36                   DAVID MARTINEZ                          00000000000000000022155AGENCIA TRAVEL BENEFITS000000000000000000000000000000000000000
02000002130010000000000193000000000000000000000000000000000051202407111270300005512382399436718CESAR PATINO PEREZ                      opt199532__6397022_34                   CESAR PATINO PEREZ                      00000000000000000022155AGENCIA TRAVEL BENEFITS000000000000000000000000000000000000000
02000002230010000000000277000000000000000000000000000000000051202407111274000127180012054331150PAMELA MARLENE SALINAS LOPEZ            opt199586__6397951_35                   PAMELA MARLENE SALINAS LOPEZ            00000000000000000022155AGENCIA TRAVEL BENEFITS000000000000000000000000000000000000000
02000002330010000000000219000000000000000000000000000000000051202407111274000127180012121476003JUAN ANDRES SANCHEZ LOERA               opt199744__6404814_31                   JUAN ANDRES SANCHEZ LOERA               00000000000000000022155AGENCIA TRAVEL BENEFITS000000000000000000000000000000000000000
02000002430010000000000219000000000000000000000000000000000051202407111274000127180012121476003JUAN ANDRES SANCHEZ LOERA               opt199745__6404851_31                   JUAN ANDRES SANCHEZ LOERA               00000000000000000022155AGENCIA TRAVEL BENEFITS000000000000000000000000000000000000000
02000002530010000000000252000000000000000000000000000000000051202407111270300005263540121104117RICARDO HERNáNDEZ ROBLES               opt199747__6404930_35                   RICARDO HERNáNDEZ ROBLES               00000000000000000022155AGENCIA TRAVEL BENEFITS000000000000000000000000000000000000000
02000002630010000000000252000000000000000000000000000000000051202407111270300005263540121104117RICARDO HERNáNDEZ ROBLES               opt199748__6404967_35                   RICARDO HERNáNDEZ ROBLES               00000000000000000022155AGENCIA TRAVEL BENEFITS000000000000000000000000000000000000000
02000002730010000000000193000000000000000000000000000000000051202407111270300004027665778401811ABRAHAM ALFREDO GUILLEN CHAVEZ          opt199788__6406381_35                   ABRAHAM ALFREDO GUILLEN CHAVEZ          00000000000000000022155AGENCIA TRAVEL BENEFITS000000000000000000000000000000000000000
02000002830010000000000193000000000000000000000000000000000051202407111270300004027665778401811ABRAHAM ALFREDO GUILLEN CHAVEZ          opt199789__6406418_35                   ABRAHAM ALFREDO GUILLEN CHAVEZ          00000000000000000022155AGENCIA TRAVEL BENEFITS000000000000000000000000000000000000000
02000002930010000000000277000000000000000000000000000000000051202407111270300004027665779061754AYDE CORONA MENDEZ                      opt200012__6415873_33                   AYDE CORONA MENDEZ                      00000000000000000022155AGENCIA TRAVEL BENEFITS000000000000000000000000000000000000000
02000003030010000000000277000000000000000000000000000000000051202407111274000127180001863547900VICTOR JAVIER ALVAREZ ESPINOSA          opt200088__6419724_34                   VICTOR JAVIER ALVAREZ ESPINOSA          00000000000000000022155AGENCIA TRAVEL BENEFITS000000000000000000000000000000000000000
02000003130010000000000277000000000000000000000000000000000051202407111274000127180001863547900VICTOR JAVIER ALVAREZ ESPINOSA          opt200089__6419761_34                   VICTOR JAVIER ALVAREZ ESPINOSA          00000000000000000022155AGENCIA TRAVEL BENEFITS000000000000000000000000000000000000000
02000003230010000000000277000000000000000000000000000000000051202407111274000127320013809317272GUILLLERMO RIVAS FERNANDEZ              opt200159__6424553_33                   GUILLLERMO RIVAS FERNANDEZ              00000000000000000022155AGENCIA TRAVEL BENEFITS000000000000000000000000000000000000000
02000003330010000000000277000000000000000000000000000000000051202407111274000127320013809317272GUILLLERMO RIVAS FERNANDEZ              opt200160__6424590_33                   GUILLLERMO RIVAS FERNANDEZ              00000000000000000022155AGENCIA TRAVEL BENEFITS000000000000000000000000000000000000000
02000003430010000000000277000000000000000000000000000000000051202407111270300004027665781809323JOSE LUIS GONZALEZ                      opt200220__6426705_32                   JOSE LUIS GONZALEZ                      00000000000000000022155AGENCIA TRAVEL BENEFITS000000000000000000000000000000000000000
02000003530010000000000383000000000000000000000000000000000051202407111270300004831120604103534JORGE LUIS PATINO GUTIERREZ             opt200273__6428077_32                   JORGE LUIS PATINO GUTIERREZ             00000000000000000022155AGENCIA TRAVEL BENEFITS000000000000000000000000000000000000000
02000003630010000000000383000000000000000000000000000000000051202407111270300004027665307753609JUAN CARLOS SILVA ASCENCIO              opt200354__6430735_34                   JUAN CARLOS SILVA ASCENCIO              00000000000000000022155AGENCIA TRAVEL BENEFITS000000000000000000000000000000000000000
02000003730010000000000383000000000000000000000000000000000051202407111270300004027665307753609JUAN CARLOS SILVA ASCENCIO              opt200355__6430772_34                   JUAN CARLOS SILVA ASCENCIO              00000000000000000022155AGENCIA TRAVEL BENEFITS000000000000000000000000000000000000000
02000003830010000000000193000000000000000000000000000000000051202407111270300005512382357017104ALEJANDRA HINOJOSA MEJIA                opt200431__6434631_34                   ALEJANDRA HINOJOSA MEJIA                00000000000000000022155AGENCIA TRAVEL BENEFITS000000000000000000000000000000000000000
02000003930010000000000193000000000000000000000000000000000051202407111270300004027666100378883JUAN CARLOS DE DIOS FLORES              opt200505__6437130_34                   JUAN CARLOS DE DIOS FLORES              00000000000000000022155AGENCIA TRAVEL BENEFITS000000000000000000000000000000000000000
02000004030010000000000277000000000000000000000000000000000051202407111274000127130001106322191JAIRO JOEL SANCHEZ LAYNEZ               opt200512__6437564_34                   JAIRO JOEL SANCHEZ LAYNEZ               00000000000000000022155AGENCIA TRAVEL BENEFITS000000000000000000000000000000000000000
02000004130010000000000219000000000000000000000000000000000051202407111274000127180016235740618SILVIA DURAN GUTIéRREZ                 opt200592__6441625_34                   SILVIA DURAN GUTIéRREZ                 00000000000000000022155AGENCIA TRAVEL BENEFITS000000000000000000000000000000000000000
02000004230010000000000219000000000000000000000000000000000051202407111274000127180016235740618SILVIA DURAN GUTIéRREZ                 opt200593__6441662_34                   SILVIA DURAN GUTIéRREZ                 00000000000000000022155AGENCIA TRAVEL BENEFITS000000000000000000000000000000000000000
02000004330010000000000277000000000000000000000000000000000051202407111274000127180016011877815MARIANA ISHEL GOMEZ CRUZ                opt200608__6442003_34                   MARIANA ISHEL GOMEZ CRUZ                00000000000000000022155AGENCIA TRAVEL BENEFITS000000000000000000000000000000000000000
02000004430010000000000383000000000000000000000000000000000051202407111270300005263540129638033MARIA DEL ROCIO GARCIA VILLEDA          opt200793__6452753_33                   MARIA DEL ROCIO GARCIA VILLEDA          00000000000000000022155AGENCIA TRAVEL BENEFITS000000000000000000000000000000000000000
02000004530010000000000277000000000000000000000000000000000051202407111270300005512382374136838DIANA ARMENTA RUIZ                      opt200815__6450751_20                   DIANA ARMENTA RUIZ                      00000000000000000022155AGENCIA TRAVEL BENEFITS000000000000000000000000000000000000000
02000004630010000000000193000000000000000000000000000000000051202407111270300005512382346532502BEATRIZ ANGELICA WENCE RODRIGUEZ        opt200873__6454875_30                   BEATRIZ ANGELICA WENCE RODRIGUEZ        00000000000000000022155AGENCIA TRAVEL BENEFITS000000000000000000000000000000000000000
02000004730010000000000290820000000000000000000000000000000051202407111270300004027665827457053MONICA JAZMIN PICHARDO REBOLLAR         opt200876__7185055_26                   MONICA JAZMIN PICHARDO REBOLLAR         00000000000000000022155AGENCIA TRAVEL BENEFITS000000000000000000000000000000000000000
02000004830010000000000193000000000000000000000000000000000051202407111270300004027665778501404LUIS MANUEL OCHOA JIMENEZ               opt200911__6454203_33                   LUIS MANUEL OCHOA JIMENEZ               00000000000000000022155AGENCIA TRAVEL BENEFITS000000000000000000000000000000000000000
02000004930010000000000383000000000000000000000000000000000051202407111270300004027665002266253GONZALEZ ZUNIGA MAYRA EDITH             opt200976__6459794_28                   GONZALEZ ZUNIGA MAYRA EDITH             00000000000000000022155AGENCIA TRAVEL BENEFITS000000000000000000000000000000000000000
02000005030010000000000277000000000000000000000000000000000051202407111270300005512382374136838DIANA ARMENTA RUIZ                      opt201004__6459424_20                   DIANA ARMENTA RUIZ                      00000000000000000022155AGENCIA TRAVEL BENEFITS000000000000000000000000000000000000000
02000005130010000000000219000000000000000000000000000000000051202407111274000127790001107134113MARIA DEL CARMEN GALAN CANO             opt201046__6477606_31                   MARIA DEL CARMEN GALAN CANO             00000000000000000022155AGENCIA TRAVEL BENEFITS000000000000000000000000000000000000000
02000005230010000000000219000000000000000000000000000000000051202407111274000127790001107134113MARIA DEL CARMEN GALAN CANO             opt201047__6477533_31                   MARIA DEL CARMEN GALAN CANO             00000000000000000022155AGENCIA TRAVEL BENEFITS000000000000000000000000000000000000000
02000005330010000000000193000000000000000000000000000000000051202407111270300004027665004577467ALEJANDRO BUSTOS JIMéNEZ               opt201119__6462779_33                   ALEJANDRO BUSTOS JIMéNEZ               00000000000000000022155AGENCIA TRAVEL BENEFITS000000000000000000000000000000000000000
02000005430010000000000219000000000000000000000000000000000051202407111270300004027665828208208ANA KAREN AVILA BARRAZA                 opt201130__6463232_30                   ANA KAREN AVILA BARRAZA                 00000000000000000022155AGENCIA TRAVEL BENEFITS000000000000000000000000000000000000000
02000005530010000000000277000000000000000000000000000000000051202407111274000127180013612403937ANDY GUILLERMO DANIEL GONZALEZ          opt201188__6467648_26                   ANDY GUILLERMO DANIEL GONZALEZ          00000000000000000022155AGENCIA TRAVEL BENEFITS000000000000000000000000000000000000000
02000005630010000000000277000000000000000000000000000000000051202407111274000127180013612403937ANDY GUILLERMO DANIEL GONZALEZ          opt201189__6467685_26                   ANDY GUILLERMO DANIEL GONZALEZ          00000000000000000022155AGENCIA TRAVEL BENEFITS000000000000000000000000000000000000000
02000005730010000000000277000000000000000000000000000000000051202407111270300005263540122874288MARIA SUSANA GOROSTIETA LEGORRETA       opt201240__6468486_31                   MARIA SUSANA GOROSTIETA LEGORRETA       00000000000000000022155AGENCIA TRAVEL BENEFITS000000000000000000000000000000000000000
02000005830010000000000277000000000000000000000000000000000051202407111270300005263540122874288MARIA SUSANA GOROSTIETA LEGORRETA       opt201241__6468523_31                   MARIA SUSANA GOROSTIETA LEGORRETA       00000000000000000022155AGENCIA TRAVEL BENEFITS000000000000000000000000000000000000000
02000005930010000000000193000000000000000000000000000000000051202407111270300004027665787397091JOAN JESúS PéREZ MARTíNEZ            opt201254__6470551_31                   JOAN JESúS PéREZ MARTíNEZ            00000000000000000022155AGENCIA TRAVEL BENEFITS000000000000000000000000000000000000000
02000006030010000000000193000000000000000000000000000000000051202407111270300004027665787397091JOAN JESúS PéREZ MARTíNEZ            opt201255__6470636_31                   JOAN JESúS PéREZ MARTíNEZ            00000000000000000022155AGENCIA TRAVEL BENEFITS000000000000000000000000000000000000000
02000006130010000000000383000000000000000000000000000000000051202407111270300005263540120422791ANDREA LORY MOLINA RAMíREZ             opt201372__6473547_33                   ANDREA LORY MOLINA RAMíREZ             00000000000000000022155AGENCIA TRAVEL BENEFITS000000000000000000000000000000000000000
02000006230010000000000193000000000000000000000000000000000051202407111270300004027665781869319DULCE JHOANA RAMIREZ RIVERA             opt201381__6474124_32                   DULCE JHOANA RAMIREZ RIVERA             00000000000000000022155AGENCIA TRAVEL BENEFITS000000000000000000000000000000000000000
02000006330010000000000193000000000000000000000000000000000051202407111270300004027665781869319DULCE JHOANA RAMIREZ RIVERA             opt201382__6474161_32                   DULCE JHOANA RAMIREZ RIVERA             00000000000000000022155AGENCIA TRAVEL BENEFITS000000000000000000000000000000000000000
02000006430010000000000277000000000000000000000000000000000051202407111270300004027665768590169CESAR URIEL ESPINOSA OVIEDO             opt201442__6475940_30                   CESAR URIEL ESPINOSA OVIEDO             00000000000000000022155AGENCIA TRAVEL BENEFITS000000000000000000000000000000000000000
02000006530010000000000193000000000000000000000000000000000051202407111270300004027665775774699ARIADNA LUNA SEVILLA                    opt201461__6477188_32                   ARIADNA LUNA SEVILLA                    00000000000000000022155AGENCIA TRAVEL BENEFITS000000000000000000000000000000000000000
02000006630010000000000193000000000000000000000000000000000051202407111270300004027665775774699ARIADNA LUNA SEVILLA                    opt201462__6477225_32                   ARIADNA LUNA SEVILLA                    00000000000000000022155AGENCIA TRAVEL BENEFITS000000000000000000000000000000000000000
02000006730010000000000383000000000000000000000000000000000051202407111274000127233001152469044EVA GEORGINA CRUZ FRIAS                 opt201536__6481019_29                   EVA GEORGINA CRUZ FRIAS                 00000000000000000022155AGENCIA TRAVEL BENEFITS000000000000000000000000000000000000000
02000006830010000000000383000000000000000000000000000000000051202407111274000127233001152469044EVA GEORGINA CRUZ FRIAS                 opt201537__6481056_29                   EVA GEORGINA CRUZ FRIAS                 00000000000000000022155AGENCIA TRAVEL BENEFITS000000000000000000000000000000000000000
02000006930010000000000383000000000000000000000000000000000051202407111274000127233001152469044EVA GEORGINA CRUZ FRIAS                 opt201538__6481093_29                   EVA GEORGINA CRUZ FRIAS                 00000000000000000022155AGENCIA TRAVEL BENEFITS000000000000000000000000000000000000000
02000007030010000000000187770000000000000000000000000000000051202407111274000127180001218225039SONIA ALEJANDRA NARANJO GOMEZ           opt201643__6484261_30                   SONIA ALEJANDRA NARANJO GOMEZ           00000000000000000022155AGENCIA TRAVEL BENEFITS000000000000000000000000000000000000000
02000007130010000000000383000000000000000000000000000000000051202407111270300005512382353475884MARIA MAGDALENA MORAN ESTRADA           opt201656__6484876_32                   MARIA MAGDALENA MORAN ESTRADA           00000000000000000022155AGENCIA TRAVEL BENEFITS000000000000000000000000000000000000000
02000007230010000000000383000000000000000000000000000000000051202407111270300005512382353475884MARIA MAGDALENA MORAN ESTRADA           opt201657__6484913_32                   MARIA MAGDALENA MORAN ESTRADA           00000000000000000022155AGENCIA TRAVEL BENEFITS000000000000000000000000000000000000000
02000007330010000000000383000000000000000000000000000000000051202407111270300005512382353475884MARIA MAGDALENA MORAN ESTRADA           opt201658__6484950_32                   MARIA MAGDALENA MORAN ESTRADA           00000000000000000022155AGENCIA TRAVEL BENEFITS000000000000000000000000000000000000000
02000007430010000000000383000000000000000000000000000000000051202407111270300005512382353475884MARIA MAGDALENA MORAN ESTRADA           opt201659__6484987_32                   MARIA MAGDALENA MORAN ESTRADA           00000000000000000022155AGENCIA TRAVEL BENEFITS000000000000000000000000000000000000000
02000007530010000000000384420000000000000000000000000000000051202407111270300005512382353475884MARIA MAGDALENA MORAN ESTRADA           opt201660__6485024_32                   MARIA MAGDALENA MORAN ESTRADA           00000000000000000022155AGENCIA TRAVEL BENEFITS000000000000000000000000000000000000000
02000007630010000000000383000000000000000000000000000000000051202407111270300005512382353475884MARIA MAGDALENA MORAN ESTRADA           opt201661__6485061_32                   MARIA MAGDALENA MORAN ESTRADA           00000000000000000022155AGENCIA TRAVEL BENEFITS000000000000000000000000000000000000000
02000007730010000000000384420000000000000000000000000000000051202407111270300005512382353475884MARIA MAGDALENA MORAN ESTRADA           opt201662__6485098_32                   MARIA MAGDALENA MORAN ESTRADA           00000000000000000022155AGENCIA TRAVEL BENEFITS000000000000000000000000000000000000000
02000007830010000000000383000000000000000000000000000000000051202407111270300005512382353475884MARIA MAGDALENA MORAN ESTRADA           opt201663__6485135_32                   MARIA MAGDALENA MORAN ESTRADA           00000000000000000022155AGENCIA TRAVEL BENEFITS000000000000000000000000000000000000000
02000007930010000000000383000000000000000000000000000000000051202407111270300005512382353475884MARIA MAGDALENA MORAN ESTRADA           opt201664__6485172_32                   MARIA MAGDALENA MORAN ESTRADA           00000000000000000022155AGENCIA TRAVEL BENEFITS000000000000000000000000000000000000000
02000008030010000000000383000000000000000000000000000000000051202407111270300005512382353475884MARIA MAGDALENA MORAN ESTRADA           opt201665__6485209_32                   MARIA MAGDALENA MORAN ESTRADA           00000000000000000022155AGENCIA TRAVEL BENEFITS000000000000000000000000000000000000000
02000008130010000000000219000000000000000000000000000000000051202407111274000127420001616295392AARGELIA ACOSTA ANDRES                  opt201849__6490854_31                   AARGELIA ACOSTA ANDRES                  00000000000000000022155AGENCIA TRAVEL BENEFITS000000000000000000000000000000000000000
02000008230010000000000219000000000000000000000000000000000051202407111274000127420001616295392AARGELIA ACOSTA ANDRES                  opt201850__6490891_31                   AARGELIA ACOSTA ANDRES                  00000000000000000022155AGENCIA TRAVEL BENEFITS000000000000000000000000000000000000000
02000008330010000000000193000000000000000000000000000000000051202407111270300004027665796687219SAUL CRUZ TAPIA                         opt201916__6493644_31                   SAUL CRUZ TAPIA                         00000000000000000022155AGENCIA TRAVEL BENEFITS000000000000000000000000000000000000000
02000008430010000000000277000000000000000000000000000000000051202407111270300004027665739076264MARIA GUADALUPE RICO HERNANDEZ          opt201942__6494656_25                   MARIA GUADALUPE RICO HERNANDEZ          00000000000000000022155AGENCIA TRAVEL BENEFITS000000000000000000000000000000000000000
02000008530010000000000193000000000000000000000000000000000051202407111270300004027665005240669IVAN AYALA PINEDA                       opt202033__6497881_32                   IVAN AYALA PINEDA                       00000000000000000022155AGENCIA TRAVEL BENEFITS000000000000000000000000000000000000000
02000008630010000000000193000000000000000000000000000000000051202407111270300004027665005240669IVAN AYALA PINEDA                       opt202034__6497918_32                   IVAN AYALA PINEDA                       00000000000000000022155AGENCIA TRAVEL BENEFITS000000000000000000000000000000000000000
02000008730010000000000277000000000000000000000000000000000051202407111270300004027665818433501ROSALBA ISABEL GARCIA JUAREZ            opt202158__6502669_31                   ROSALBA ISABEL GARCIA JUAREZ            00000000000000000022155AGENCIA TRAVEL BENEFITS000000000000000000000000000000000000000
02000008830010000000000277000000000000000000000000000000000051202407111270300004027665818433501ROSALBA ISABEL GARCIA JUAREZ            opt202159__6502706_31                   ROSALBA ISABEL GARCIA JUAREZ            00000000000000000022155AGENCIA TRAVEL BENEFITS000000000000000000000000000000000000000
02000008930010000000000249300000000000000000000000000000000051202407111270300005512382395474499ERICK CHRISTIAN VELAZQUEZ MORALES       opt202176__6503979_26                   ERICK CHRISTIAN VELAZQUEZ MORALES       00000000000000000022155AGENCIA TRAVEL BENEFITS000000000000000000000000000000000000000
02000009030010000000000277000000000000000000000000000000000051202407111274000127180001249716986VIRGILIO DE JESUS TOBILLA ESTRADA       opt202181__6504306_35                   VIRGILIO DE JESUS TOBILLA ESTRADA       00000000000000000022155AGENCIA TRAVEL BENEFITS000000000000000000000000000000000000000
02000009130010000000000277000000000000000000000000000000000051202407111274000127180001249716986VIRGILIO DE JESUS TOBILLA ESTRADA       opt202182__6504343_35                   VIRGILIO DE JESUS TOBILLA ESTRADA       00000000000000000022155AGENCIA TRAVEL BENEFITS000000000000000000000000000000000000000
02000009230010000000000277000000000000000000000000000000000051202407111274000127180001249716986VIRGILIO DE JESUS TOBILLA ESTRADA       opt202183__6504380_35                   VIRGILIO DE JESUS TOBILLA ESTRADA       00000000000000000022155AGENCIA TRAVEL BENEFITS000000000000000000000000000000000000000
02000009330010000000000096500000000000000000000000000000000051202407111270300004027665308725333RAYMUNDO PEREZ GARCIA                   opt202191__6504816_66                   RAYMUNDO PEREZ GARCIA                   00000000000000000022155AGENCIA TRAVEL BENEFITS000000000000000000000000000000000000000
02000009430010000000000096500000000000000000000000000000000051202407111270300004027665308725333RAYMUNDO PEREZ GARCIA                   opt202191__6504817_67                   RAYMUNDO PEREZ GARCIA                   00000000000000000022155AGENCIA TRAVEL BENEFITS000000000000000000000000000000000000000
02000009530010000000000219000000000000000000000000000000000051202407111274000127180016620724786LUDWIG ENRIQUE BUENTELLO HUANOSTA       opt202215__6505776_31                   LUDWIG ENRIQUE BUENTELLO HUANOSTA       00000000000000000022155AGENCIA TRAVEL BENEFITS000000000000000000000000000000000000000
02000009630010000000000193000000000000000000000000000000000051202407111274000127180001414619591JUAN ANTONIO GONZALEZ HERNANDEZ         opt202344__6512261_13                   JUAN ANTONIO GONZALEZ HERNANDEZ         00000000000000000022155AGENCIA TRAVEL BENEFITS000000000000000000000000000000000000000
02000009730010000000000277000000000000000000000000000000000051202407111274000127650013294690504RICARDO JESUS GONZALEZ CHANTRES         opt202602__6520995_27                   RICARDO JESUS GONZALEZ CHANTRES         00000000000000000022155AGENCIA TRAVEL BENEFITS000000000000000000000000000000000000000
02000009830010000000000277000000000000000000000000000000000051202407111274000127650013294690504RICARDO JESUS GONZALEZ CHANTRES         opt202603__6521032_27                   RICARDO JESUS GONZALEZ CHANTRES         00000000000000000022155AGENCIA TRAVEL BENEFITS000000000000000000000000000000000000000
02000009930010000000000096500000000000000000000000000000000051202407111270300004027665002712124ALBA MARTINEZ MARTINEZ                  opt202627__6524856_64                   ALBA MARTINEZ MARTINEZ                  00000000000000000022155AGENCIA TRAVEL BENEFITS000000000000000000000000000000000000000
02000010030010000000000096500000000000000000000000000000000051202407111270300004027665002712124ALBA MARTINEZ MARTINEZ                  opt202627__6524857_65                   ALBA MARTINEZ MARTINEZ                  00000000000000000022155AGENCIA TRAVEL BENEFITS000000000000000000000000000000000000000
02000010130010000000000096500000000000000000000000000000000051202407111270300004027665002712124ALBA MARTINEZ MARTINEZ                  opt202627__6524858_66                   ALBA MARTINEZ MARTINEZ                  00000000000000000022155AGENCIA TRAVEL BENEFITS000000000000000000000000000000000000000
02000010230010000000000096500000000000000000000000000000000051202407111270300004027665002712124ALBA MARTINEZ MARTINEZ                  opt202723__6526821_64                   ALBA MARTINEZ MARTINEZ                  00000000000000000022155AGENCIA TRAVEL BENEFITS000000000000000000000000000000000000000
02000010330010000000000096500000000000000000000000000000000051202407111270300004027665002712124ALBA MARTINEZ MARTINEZ                  opt202723__6526822_65                   ALBA MARTINEZ MARTINEZ                  00000000000000000022155AGENCIA TRAVEL BENEFITS000000000000000000000000000000000000000
02000010430010000000000096500000000000000000000000000000000051202407111270300004027665002712124ALBA MARTINEZ MARTINEZ                  opt202723__6526823_66                   ALBA MARTINEZ MARTINEZ                  00000000000000000022155AGENCIA TRAVEL BENEFITS000000000000000000000000000000000000000
02000010530010000000000193000000000000000000000000000000000051202407111274000127180013321615346CESAR ARTURO MORALES VIDAL              opt203110__6540699_17                   CESAR ARTURO MORALES VIDAL              00000000000000000022155AGENCIA TRAVEL BENEFITS000000000000000000000000000000000000000
02000010630010000000000193000000000000000000000000000000000051202407111274000127180016455465838VICTOR HUGO RIVERA RIVERA               opt203146__6541711_30                   VICTOR HUGO RIVERA RIVERA               00000000000000000022155AGENCIA TRAVEL BENEFITS000000000000000000000000000000000000000
02000010730010000000000277000000000000000000000000000000000051202407111274000127180013708895572SORAYA MARTINEZ CADENA                  opt203346__6549757_27                   SORAYA MARTINEZ CADENA                  00000000000000000022155AGENCIA TRAVEL BENEFITS000000000000000000000000000000000000000
02000010830010000000000277000000000000000000000000000000000051202407111274000127180013708895572SORAYA MARTINEZ CADENA                  opt203347__6549720_27                   SORAYA MARTINEZ CADENA                  00000000000000000022155AGENCIA TRAVEL BENEFITS000000000000000000000000000000000000000
02000010930010000000000383000000000000000000000000000000000051202407111274000127320013211302710JORGE ALBERTO MONTERO RUELAS            opt203376__6550525_28                   JORGE ALBERTO MONTERO RUELAS            00000000000000000022155AGENCIA TRAVEL BENEFITS000000000000000000000000000000000000000
02000011030010000000000383000000000000000000000000000000000051202407111274000127320013211302710JORGE ALBERTO MONTERO RUELAS            opt203377__6550562_28                   JORGE ALBERTO MONTERO RUELAS            00000000000000000022155AGENCIA TRAVEL BENEFITS000000000000000000000000000000000000000
02000011130010000000000277000000000000000000000000000000000051202407111274000127180016656019410TANIA HAMARA BUSTILLOS GUTIERREZ        opt203402__6551490_28                   TANIA HAMARA BUSTILLOS GUTIERREZ        00000000000000000022155AGENCIA TRAVEL BENEFITS000000000000000000000000000000000000000
02000011230010000000000252000000000000000000000000000000000051202407111270300005512382411603386GERARDO GONZALEZ PALMA                  opt203465__6554028_29                   GERARDO GONZALEZ PALMA                  00000000000000000022155AGENCIA TRAVEL BENEFITS000000000000000000000000000000000000000
02000011330010000000000252000000000000000000000000000000000051202407111270300005512382411603386GERARDO GONZALEZ PALMA                  opt203467__6553954_29                   GERARDO GONZALEZ PALMA                  00000000000000000022155AGENCIA TRAVEL BENEFITS000000000000000000000000000000000000000
02000011430010000000000138500000000000000000000000000000000051202407111270300005263540143961072ARTURO LOPEZ MONTES                     opt203613__6653566_56                   ARTURO LOPEZ MONTES                     00000000000000000022155AGENCIA TRAVEL BENEFITS000000000000000000000000000000000000000
02000011530010000000000138500000000000000000000000000000000051202407111270300005263540143961072ARTURO LOPEZ MONTES                     opt203613__6653567_57                   ARTURO LOPEZ MONTES                     00000000000000000022155AGENCIA TRAVEL BENEFITS000000000000000000000000000000000000000
02000011630010000000000138500000000000000000000000000000000051202407111270300005263540143961072ARTURO LOPEZ MONTES                     opt203614__6653600_56                   ARTURO LOPEZ MONTES                     00000000000000000022155AGENCIA TRAVEL BENEFITS000000000000000000000000000000000000000
02000011730010000000000138500000000000000000000000000000000051202407111270300005263540143961072ARTURO LOPEZ MONTES                     opt203614__6653601_57                   ARTURO LOPEZ MONTES                     00000000000000000022155AGENCIA TRAVEL BENEFITS000000000000000000000000000000000000000
02000011830010000000000277000000000000000000000000000000000051202407111274000127180013784412461VICTOR DANIEL BERNAL RAMIREZ            opt203717__6563779_27                   VICTOR DANIEL BERNAL RAMIREZ            00000000000000000022155AGENCIA TRAVEL BENEFITS000000000000000000000000000000000000000
02000011930010000000000277000000000000000000000000000000000051202407111274000127180013784412461VICTOR DANIEL BERNAL RAMIREZ            opt203718__6563816_27                   VICTOR DANIEL BERNAL RAMIREZ            00000000000000000022155AGENCIA TRAVEL BENEFITS000000000000000000000000000000000000000
02000012030010000000000383000000000000000000000000000000000051202407111270300004027665311987003RICARDO RUIZ CRUZ                       opt204186__6581726_28                   RICARDO RUIZ CRUZ                       00000000000000000022155AGENCIA TRAVEL BENEFITS000000000000000000000000000000000000000
02000012130010000000000277000000000000000000000000000000000051202407111274000127150001296167864MARIA DE LOS ANGELES BUITIMEA ENRIQUEZ  opt204203__6582878_23                   MARIA DE LOS ANGELES BUITIMEA ENRIQUEZ  00000000000000000022155AGENCIA TRAVEL BENEFITS000000000000000000000000000000000000000
02000012230010000000000193000000000000000000000000000000000051202407111270300005512382380625451GONZALEZ MARTINEZ KATYA                 opt204253__6584241_20                   GONZALEZ MARTINEZ KATYA                 00000000000000000022155AGENCIA TRAVEL BENEFITS000000000000000000000000000000000000000
02000012330010000000000260550000000000000000000000000000000051202407111270300004198220311281206MONICA MONTSERRAT VALLEJO VELAQUEZ      opt204273__6585270_23                   MONICA MONTSERRAT VALLEJO VELAQUEZ      00000000000000000022155AGENCIA TRAVEL BENEFITS000000000000000000000000000000000000000
02000012430010000000000260550000000000000000000000000000000051202407111270300004198220311281206MONICA MONTSERRAT VALLEJO VELAQUEZ      opt204274__6585220_23                   MONICA MONTSERRAT VALLEJO VELAQUEZ      00000000000000000022155AGENCIA TRAVEL BENEFITS000000000000000000000000000000000000000
02000012530010000000000193000000000000000000000000000000000051202407111270300004027665711098187ANA LUISA SANTOYO MUñOZ                opt204282__6584745_28                   ANA LUISA SANTOYO MUñOZ                00000000000000000022155AGENCIA TRAVEL BENEFITS000000000000000000000000000000000000000
02000012630010000000000193000000000000000000000000000000000051202407111270300004027665711098187ANA LUISA SANTOYO MUñOZ                opt204284__6584708_28                   ANA LUISA SANTOYO MUñOZ                00000000000000000022155AGENCIA TRAVEL BENEFITS000000000000000000000000000000000000000
02000012730010000000000193000000000000000000000000000000000051202407111270300004027665711098187ANA LUISA SANTOYO MUñOZ                opt204285__6584671_28                   ANA LUISA SANTOYO MUñOZ                00000000000000000022155AGENCIA TRAVEL BENEFITS000000000000000000000000000000000000000
02000012830010000000000260550000000000000000000000000000000051202407111270300004198220311281206MONICA MONTSERRAT VALLEJO VELAQUEZ      opt204286__6585245_23                   MONICA MONTSERRAT VALLEJO VELAQUEZ      00000000000000000022155AGENCIA TRAVEL BENEFITS000000000000000000000000000000000000000
02000012930010000000000193000000000000000000000000000000000051202407111270300005512382392834117GUADALUPE ELENA AMBROSIO LOPEZ          opt204314__6586534_28                   GUADALUPE ELENA AMBROSIO LOPEZ          00000000000000000022155AGENCIA TRAVEL BENEFITS000000000000000000000000000000000000000
02000013030010000000000277000000000000000000000000000000000051202407111274000127308013011971952PAULINA FRIAS NAVA                      opt204399__6590490_26                   PAULINA FRIAS NAVA                      00000000000000000022155AGENCIA TRAVEL BENEFITS000000000000000000000000000000000000000
02000013130010000000000277000000000000000000000000000000000051202407111270300004198220034302198CHRISTIAN ERNESTO SAUCEDO RAMIREZ       opt204491__6593489_26                   CHRISTIAN ERNESTO SAUCEDO RAMIREZ       00000000000000000022155AGENCIA TRAVEL BENEFITS000000000000000000000000000000000000000
02000013230010000000000193000000000000000000000000000000000051202407111274000127164013092123659JAVIER GONZALEZ VALDEZ                  opt204760__6603402_27                   JAVIER GONZALEZ VALDEZ                  00000000000000000022155AGENCIA TRAVEL BENEFITS000000000000000000000000000000000000000
02000013330010000000000219000000000000000000000000000000000051202407111270300004027665758500798DULCE IRENE MENDEZ CORTEZ               opt204766__6603598_24                   DULCE IRENE MENDEZ CORTEZ               00000000000000000022155AGENCIA TRAVEL BENEFITS000000000000000000000000000000000000000
02000013430010000000000277000000000000000000000000000000000051202407111270300004027665793940421ANGELA CAROLINA ARREOLA VARGAS          opt204771__6604161_27                   ANGELA CAROLINA ARREOLA VARGAS          00000000000000000022155AGENCIA TRAVEL BENEFITS000000000000000000000000000000000000000
02000013530010000000000277000000000000000000000000000000000051202407111270300004027665793940421ANGELA CAROLINA ARREOLA VARGAS          opt204772__6604198_27                   ANGELA CAROLINA ARREOLA VARGAS          00000000000000000022155AGENCIA TRAVEL BENEFITS000000000000000000000000000000000000000
02000013630010000000000277000000000000000000000000000000000051202407111274000127180001149408187EDUARDO CAYETANO MARCELO                opt204776__6604011_25                   EDUARDO CAYETANO MARCELO                00000000000000000022155AGENCIA TRAVEL BENEFITS000000000000000000000000000000000000000
02000013730010000000000277000000000000000000000000000000000051202407111270300004027665309411461DAYANARA LIZBET HUERTA VIDAL            opt204780__6603865_27                   DAYANARA LIZBET HUERTA VIDAL            00000000000000000022155AGENCIA TRAVEL BENEFITS000000000000000000000000000000000000000
02000013830010000000000219000000000000000000000000000000000051202407111274000127095013738867885MAYRA SELENE HERMOSILLO FLORIAN         opt204828__6606300_28                   MAYRA SELENE HERMOSILLO FLORIAN         00000000000000000022155AGENCIA TRAVEL BENEFITS000000000000000000000000000000000000000
02000013930010000000000219000000000000000000000000000000000051202407111274000127095013738867885MAYRA SELENE HERMOSILLO FLORIAN         opt204829__6606262_28                   MAYRA SELENE HERMOSILLO FLORIAN         00000000000000000022155AGENCIA TRAVEL BENEFITS000000000000000000000000000000000000000
02000014030010000000000219000000000000000000000000000000000051202407111274000127095013738867885MAYRA SELENE HERMOSILLO FLORIAN         opt204831__6606225_28                   MAYRA SELENE HERMOSILLO FLORIAN         00000000000000000022155AGENCIA TRAVEL BENEFITS000000000000000000000000000000000000000
02000014130010000000000277000000000000000000000000000000000051202407111274000127180016536064080VIRIDIANA DEL CARMEN RUIZ RODRIGUEZ     opt205009__6612969_26                   VIRIDIANA DEL CARMEN RUIZ RODRIGUEZ     00000000000000000022155AGENCIA TRAVEL BENEFITS000000000000000000000000000000000000000
02000014230010000000000252000000000000000000000000000000000051202407111270300004027665807488151ALEJANDRO GUZMAN CHAVEZ                 opt205080__6615953_27                   ALEJANDRO GUZMAN CHAVEZ                 00000000000000000022155AGENCIA TRAVEL BENEFITS000000000000000000000000000000000000000
02000014330010000000000252000000000000000000000000000000000051202407111270300004027665807488151ALEJANDRO GUZMAN CHAVEZ                 opt205081__6615916_27                   ALEJANDRO GUZMAN CHAVEZ                 00000000000000000022155AGENCIA TRAVEL BENEFITS000000000000000000000000000000000000000
02000014430010000000000277000000000000000000000000000000000051202407111274000127180013328267768IGNACIO LARA MENDEZ                     opt205240__6621691_26                   IGNACIO LARA MENDEZ                     00000000000000000022155AGENCIA TRAVEL BENEFITS000000000000000000000000000000000000000
02000014530010000000000373950000000000000000000000000000000051202407111274000127180013894719290ESLI MONTALVO GALINDO                   opt205247__6621949_24                   ESLI MONTALVO GALINDO                   00000000000000000022155AGENCIA TRAVEL BENEFITS000000000000000000000000000000000000000
02000014630010000000000277000000000000000000000000000000000051202407111270300004027665849917647FERNANDO CRISTOBAL LARA                 opt205260__6622200_26                   FERNANDO CRISTOBAL LARA                 00000000000000000022155AGENCIA TRAVEL BENEFITS000000000000000000000000000000000000000
02000014730010000000000193000000000000000000000000000000000051202407111270300005263540115526200ADRIAN CALDERON SANCHEZ                 opt205355__6626324_27                   ADRIAN CALDERON SANCHEZ                 00000000000000000022155AGENCIA TRAVEL BENEFITS000000000000000000000000000000000000000
02000014830010000000000193000000000000000000000000000000000051202407111270300005263540115526200ADRIAN CALDERON SANCHEZ                 opt205356__6626361_27                   ADRIAN CALDERON SANCHEZ                 00000000000000000022155AGENCIA TRAVEL BENEFITS000000000000000000000000000000000000000
02000014930010000000000277000000000000000000000000000000000051202407111274000127180001574067229EVELYN MUNOZ OLVERA                     opt205444__6629620_26                   EVELYN MUNOZ OLVERA                     00000000000000000022155AGENCIA TRAVEL BENEFITS000000000000000000000000000000000000000
02000015030010000000000277000000000000000000000000000000000051202407111270300004027665809403265MARIBEL GARCIA GUEVARA                  opt205466__6630106_26                   MARIBEL GARCIA GUEVARA                  00000000000000000022155AGENCIA TRAVEL BENEFITS000000000000000000000000000000000000000
02000015130010000000000277000000000000000000000000000000000051202407111270300004027665809403265MARIBEL GARCIA GUEVARA                  opt205467__6630069_26                   MARIBEL GARCIA GUEVARA                  00000000000000000022155AGENCIA TRAVEL BENEFITS000000000000000000000000000000000000000
02000015230010000000000277000000000000000000000000000000000051202407111270300004027665810875147MONICA EUGENIA VILLA GARCIA             opt205510__6632007_25                   MONICA EUGENIA VILLA GARCIA             00000000000000000022155AGENCIA TRAVEL BENEFITS000000000000000000000000000000000000000
02000015330010000000000277000000000000000000000000000000000051202407111270300004027664173271945MIRIAM FABIOLA MARTINEZ GONZALEZ        opt205610__6635977_21                   MIRIAM FABIOLA MARTINEZ GONZALEZ        00000000000000000022155AGENCIA TRAVEL BENEFITS000000000000000000000000000000000000000
02000015430010000000000219000000000000000000000000000000000051202407111270300005263540133694329DOMINGUEZ LOPEZ MARITZA OLGA            opt205664__6638084_24                   DOMINGUEZ LOPEZ MARITZA OLGA            00000000000000000022155AGENCIA TRAVEL BENEFITS000000000000000000000000000000000000000
02000015530010000000000193000000000000000000000000000000000051202407111270300004027665733096599MARIA DE LOS ANGELES AHUMADA GONZALEZ   opt205750__6641540_16                   MARIA DE LOS ANGELES AHUMADA GONZALEZ   00000000000000000022155AGENCIA TRAVEL BENEFITS000000000000000000000000000000000000000
02000015630010000000000193000000000000000000000000000000000051202407111270300004027665733096599MARIA DE LOS ANGELES AHUMADA GONZALEZ   opt205751__6641584_23                   MARIA DE LOS ANGELES AHUMADA GONZALEZ   00000000000000000022155AGENCIA TRAVEL BENEFITS000000000000000000000000000000000000000
02000015730010000000000193000000000000000000000000000000000051202407111270300005512382404042394OSCAR IVAN GARCIA GUERRERO              opt205752__6641623_25                   OSCAR IVAN GARCIA GUERRERO              00000000000000000022155AGENCIA TRAVEL BENEFITS000000000000000000000000000000000000000
02000015830010000000000260550000000000000000000000000000000051202407111274000127420013269494428ISAAC EDUARDO MERCADO PEREZ             opt205778__6642803_24                   ISAAC EDUARDO MERCADO PEREZ             00000000000000000022155AGENCIA TRAVEL BENEFITS000000000000000000000000000000000000000
02000015930010000000000260550000000000000000000000000000000051202407111274000127420013269494428ISAAC EDUARDO MERCADO PEREZ             opt205780__6642865_24                   ISAAC EDUARDO MERCADO PEREZ             00000000000000000022155AGENCIA TRAVEL BENEFITS000000000000000000000000000000000000000
02000016030010000000000096500000000000000000000000000000000051202407111270300004027665003490845GLADYSS BORBON ARGUELLES                opt205938__6648827_54                   GLADYSS BORBON ARGUELLES                00000000000000000022155AGENCIA TRAVEL BENEFITS000000000000000000000000000000000000000
02000016130010000000000096500000000000000000000000000000000051202407111270300004027665003490845GLADYSS BORBON ARGUELLES                opt205938__6648828_55                   GLADYSS BORBON ARGUELLES                00000000000000000022155AGENCIA TRAVEL BENEFITS000000000000000000000000000000000000000
02000016230010000000000096500000000000000000000000000000000051202407111270300004027665003490845GLADYSS BORBON ARGUELLES                opt205938__6648829_56                   GLADYSS BORBON ARGUELLES                00000000000000000022155AGENCIA TRAVEL BENEFITS000000000000000000000000000000000000000
02000016330010000000000373950000000000000000000000000000000051202407111274000127180001499038595CLAUDIA JAQUELINE VALENZUELA SUáREZ    opt205963__6650507_23                   CLAUDIA JAQUELINE VALENZUELA SUáREZ    00000000000000000022155AGENCIA TRAVEL BENEFITS000000000000000000000000000000000000000
02000016430010000000000517050000000000000000000000000000000051202407111270300005263540116520384DIANA LAURA GALLEGOS VALERIO            opt205971__6650310_24                   DIANA LAURA GALLEGOS VALERIO            00000000000000000022155AGENCIA TRAVEL BENEFITS000000000000000000000000000000000000000
02000016530010000000000193000000000000000000000000000000000051202407111270300004027665777130791GABRIEL AVILA CERVANTES                 opt205984__6649794_26                   GABRIEL AVILA CERVANTES                 00000000000000000022155AGENCIA TRAVEL BENEFITS000000000000000000000000000000000000000
02000016630010000000000373950000000000000000000000000000000051202407111274000127180013967840591MANUEL GARCIA BALTAZAR                  opt205988__6650832_19                   MANUEL GARCIA BALTAZAR                  00000000000000000022155AGENCIA TRAVEL BENEFITS000000000000000000000000000000000000000
02000016730010000000000383000000000000000000000000000000000051202407111270300004027665783133441JUAN ISAAC CENTENO ROJAS                opt206044__6652935_22                   JUAN ISAAC CENTENO ROJAS                00000000000000000022155AGENCIA TRAVEL BENEFITS000000000000000000000000000000000000000
02000016830010000000000383000000000000000000000000000000000051202407111270300004027665783133441JUAN ISAAC CENTENO ROJAS                opt206045__6652972_22                   JUAN ISAAC CENTENO ROJAS                00000000000000000022155AGENCIA TRAVEL BENEFITS000000000000000000000000000000000000000
02000016930010000000000219000000000000000000000000000000000051202407111270300004027665828208208ANA KAREN AVILA BARRAZA                 opt206046__6653010_23                   ANA KAREN AVILA BARRAZA                 00000000000000000022155AGENCIA TRAVEL BENEFITS000000000000000000000000000000000000000
02000017030010000000000219000000000000000000000000000000000051202407111270300004027665828208208ANA KAREN AVILA BARRAZA                 opt206047__6653047_23                   ANA KAREN AVILA BARRAZA                 00000000000000000022155AGENCIA TRAVEL BENEFITS000000000000000000000000000000000000000
02000017130010000000000219000000000000000000000000000000000051202407111270300004027665828208208ANA KAREN AVILA BARRAZA                 opt206049__6653084_23                   ANA KAREN AVILA BARRAZA                 00000000000000000022155AGENCIA TRAVEL BENEFITS000000000000000000000000000000000000000
02000017230010000000000277000000000000000000000000000000000051202407111270300004027665770255207ARTURO LOPEZ BARROSO                    opt206070__6654111_26                   ARTURO LOPEZ BARROSO                    00000000000000000022155AGENCIA TRAVEL BENEFITS000000000000000000000000000000000000000
02000017330010000000000193000000000000000000000000000000000051202407111270300004027665721499375MA. ESTHELA NAVARRETE LEON              opt206119__6656025_25                   MA. ESTHELA NAVARRETE LEON              00000000000000000022155AGENCIA TRAVEL BENEFITS000000000000000000000000000000000000000
02000017430010000000000277000000000000000000000000000000000051202407111274000127180017017174414ALBERTO NAVA ENCISO                     opt206164__6657554_24                   ALBERTO NAVA ENCISO                     00000000000000000022155AGENCIA TRAVEL BENEFITS000000000000000000000000000000000000000
02000017530010000000000277000000000000000000000000000000000051202407111270300004027665824817937VERONICA RUBIO SANCHEZ                  opt206174__6657998_22                   VERONICA RUBIO SANCHEZ                  00000000000000000022155AGENCIA TRAVEL BENEFITS000000000000000000000000000000000000000
02000017630010000000000225500000000000000000000000000000000051202407111270300004027665858211080SERGIO MAURICIO PEREZ CANALES           opt206222__6659775_22                   SERGIO MAURICIO PEREZ CANALES           00000000000000000022155AGENCIA TRAVEL BENEFITS000000000000000000000000000000000000000
02000017730010000000000219000000000000000000000000000000000051202407111270300004027665736555229ELIZABETH MONTOYA JAUREGUI              opt206297__6662529_23                   ELIZABETH MONTOYA JAUREGUI              00000000000000000022155AGENCIA TRAVEL BENEFITS000000000000000000000000000000000000000
02000017830010000000000193000000000000000000000000000000000051202407111270300004027665787255141SUSANA GINES ZEFERINO                   opt206369__6665201_24                   SUSANA GINES ZEFERINO                   00000000000000000022155AGENCIA TRAVEL BENEFITS000000000000000000000000000000000000000
02000017930010000000000193000000000000000000000000000000000051202407111270300004027665787255141SUSANA GINES ZEFERINO                   opt206370__6665238_24                   SUSANA GINES ZEFERINO                   00000000000000000022155AGENCIA TRAVEL BENEFITS000000000000000000000000000000000000000
02000018030010000000000193000000000000000000000000000000000051202407111274000127650001269696273JOSE IVAN AGUIRRE CABRERA               opt206428__6667491_24                   JOSE IVAN AGUIRRE CABRERA               00000000000000000022155AGENCIA TRAVEL BENEFITS000000000000000000000000000000000000000
02000018130010000000000193000000000000000000000000000000000051202407111274000127180001327268518ESLIE DANAHE LOZANO GARCIA              opt206456__6668654_24                   ESLIE DANAHE LOZANO GARCIA              00000000000000000022155AGENCIA TRAVEL BENEFITS000000000000000000000000000000000000000
02000018230010000000000193000000000000000000000000000000000051202407111274000127180001327268518ESLIE DANAHE LOZANO GARCIA              opt206457__6668691_24                   ESLIE DANAHE LOZANO GARCIA              00000000000000000022155AGENCIA TRAVEL BENEFITS000000000000000000000000000000000000000
02000018330010000000000219000000000000000000000000000000000051202407111270300004027665002266253GONZALEZ ZUNIGA MAYRA EDITH             opt206572__6673102_22                   GONZALEZ ZUNIGA MAYRA EDITH             00000000000000000022155AGENCIA TRAVEL BENEFITS000000000000000000000000000000000000000
02000018430010000000000383000000000000000000000000000000000051202407111270300004027665797617371LOURDES OZNAYA HERNàNDEZ               opt206574__6673029_23                   LOURDES OZNAYA HERNàNDEZ               00000000000000000022155AGENCIA TRAVEL BENEFITS000000000000000000000000000000000000000
02000018530010000000000373950000000000000000000000000000000051202407111270300005512382421076821NESTOR MAURICIO PALOMINO ARENA          opt206582__6672741_21                   NESTOR MAURICIO PALOMINO ARENA          00000000000000000022155AGENCIA TRAVEL BENEFITS000000000000000000000000000000000000000
02000018630010000000000193000000000000000000000000000000000051202407111270300004027665757091278JOSE MARTIN GAMEZ GAMI                  opt206869__6684139_19                   JOSE MARTIN GAMEZ GAMI                  00000000000000000022155AGENCIA TRAVEL BENEFITS000000000000000000000000000000000000000
02000018730010000000000193000000000000000000000000000000000051202407111270300004027664189194982EDUARDO ATENTO MAYA                     opt206896__6685133_24                   EDUARDO ATENTO MAYA                     00000000000000000022155AGENCIA TRAVEL BENEFITS000000000000000000000000000000000000000
02000018830010000000000193000000000000000000000000000000000051202407111270300004027664189194982EDUARDO ATENTO MAYA                     opt206897__6685170_24                   EDUARDO ATENTO MAYA                     00000000000000000022155AGENCIA TRAVEL BENEFITS000000000000000000000000000000000000000
02000018930010000000000219000000000000000000000000000000000051202407111274000127180001016577002IRAM GIOVANNI ELíAS BAUTISTA           opt206911__6685745_22                   IRAM GIOVANNI ELíAS BAUTISTA           00000000000000000022155AGENCIA TRAVEL BENEFITS000000000000000000000000000000000000000
02000019030010000000000219000000000000000000000000000000000051202407111274000127180001016577002IRAM GIOVANNI ELíAS BAUTISTA           opt206912__6685782_22                   IRAM GIOVANNI ELíAS BAUTISTA           00000000000000000022155AGENCIA TRAVEL BENEFITS000000000000000000000000000000000000000
02000019130010000000000277000000000000000000000000000000000051202407111270300005263540107034171ELVIA BECERRA CRUZ                      opt206940__6686689_21                   ELVIA BECERRA CRUZ                      00000000000000000022155AGENCIA TRAVEL BENEFITS000000000000000000000000000000000000000
02000019230010000000000219000000000000000000000000000000000051202407111270300005512382420915912BERTHA VALENCIA ANRUBIO                 opt206963__6687557_24                   BERTHA VALENCIA ANRUBIO                 00000000000000000022155AGENCIA TRAVEL BENEFITS000000000000000000000000000000000000000
02000019330010000000000517050000000000000000000000000000000051202407111274000127180001257344874ZURISADAI MARTINEZ NOVELO               opt206966__6687716_23                   ZURISADAI MARTINEZ NOVELO               00000000000000000022155AGENCIA TRAVEL BENEFITS000000000000000000000000000000000000000
02000019430010000000000517050000000000000000000000000000000051202407111274000127180001257344874ZURISADAI MARTINEZ NOVELO               opt206967__6687741_23                   ZURISADAI MARTINEZ NOVELO               00000000000000000022155AGENCIA TRAVEL BENEFITS000000000000000000000000000000000000000
02000019530010000000000277000000000000000000000000000000000051202407111270300005263540112833682ZELEN ESTRELLA MENDOZA GODINEZ          opt207018__6689824_22                   ZELEN ESTRELLA MENDOZA GODINEZ          00000000000000000022155AGENCIA TRAVEL BENEFITS000000000000000000000000000000000000000
02000019630010000000000277000000000000000000000000000000000051202407111274000127180013910327919ERIKA DENISS PERRUSQUIA ESPINDOLA       opt207026__6689495_24                   ERIKA DENISS PERRUSQUIA ESPINDOLA       00000000000000000022155AGENCIA TRAVEL BENEFITS000000000000000000000000000000000000000
02000019730010000000000277000000000000000000000000000000000051202407111274000127180013910327919ERIKA DENISS PERRUSQUIA ESPINDOLA       opt207027__6689458_24                   ERIKA DENISS PERRUSQUIA ESPINDOLA       00000000000000000022155AGENCIA TRAVEL BENEFITS000000000000000000000000000000000000000
02000019830010000000000277000000000000000000000000000000000051202407111274000127180001506642308LUIS ANTONIO MUñOZ MORALES             opt207114__6693531_19                   LUIS ANTONIO MUñOZ MORALES             00000000000000000022155AGENCIA TRAVEL BENEFITS000000000000000000000000000000000000000
02000019930010000000000219000000000000000000000000000000000051202407111274000127180016052169472ROCIO MARISOL MORA CABRERO              opt207128__6693988_23                   ROCIO MARISOL MORA CABRERO              00000000000000000022155AGENCIA TRAVEL BENEFITS000000000000000000000000000000000000000
02000020030010000000000277000000000000000000000000000000000051202407111270300004027665798452372JORGE IGNACIO VEGA LOZANO               opt207511__6709126_21                   JORGE IGNACIO VEGA LOZANO               00000000000000000022155AGENCIA TRAVEL BENEFITS000000000000000000000000000000000000000
02000020130010000000000193000000000000000000000000000000000051202407111270300004198220040153627EDUARDO GONZALEZ BRISENO                opt207523__6709552_23                   EDUARDO GONZALEZ BRISENO                00000000000000000022155AGENCIA TRAVEL BENEFITS000000000000000000000000000000000000000
02000020230010000000000295650000000000000000000000000000000051202407111274000127180012026323905GEORGINA ARAUJO AGUILAR                 opt207620__6713954_21                   GEORGINA ARAUJO AGUILAR                 00000000000000000022155AGENCIA TRAVEL BENEFITS000000000000000000000000000000000000000
02000020330010000000000295650000000000000000000000000000000051202407111274000127180012026323905GEORGINA ARAUJO AGUILAR                 opt207622__6713892_21                   GEORGINA ARAUJO AGUILAR                 00000000000000000022155AGENCIA TRAVEL BENEFITS000000000000000000000000000000000000000
02000020430010000000000193000000000000000000000000000000000051202407111270300005512382421271828DIEGO ARAMIS GONZALEZ ANGUIANO          opt207625__6713801_23                   DIEGO ARAMIS GONZALEZ ANGUIANO          00000000000000000022155AGENCIA TRAVEL BENEFITS000000000000000000000000000000000000000
02000020530010000000000193000000000000000000000000000000000051202407111270300005512382421271828DIEGO ARAMIS GONZALEZ ANGUIANO          opt207626__6713764_23                   DIEGO ARAMIS GONZALEZ ANGUIANO          00000000000000000022155AGENCIA TRAVEL BENEFITS000000000000000000000000000000000000000
02000020630010000000000193000000000000000000000000000000000051202407111270300005512382421271828DIEGO ARAMIS GONZALEZ ANGUIANO          opt207627__6713727_23                   DIEGO ARAMIS GONZALEZ ANGUIANO          00000000000000000022155AGENCIA TRAVEL BENEFITS000000000000000000000000000000000000000
02000020730010000000000193000000000000000000000000000000000051202407111270300005512382421271828DIEGO ARAMIS GONZALEZ ANGUIANO          opt207628__6713690_23                   DIEGO ARAMIS GONZALEZ ANGUIANO          00000000000000000022155AGENCIA TRAVEL BENEFITS000000000000000000000000000000000000000
02000020830010000000000295650000000000000000000000000000000051202407111270300004198220025671981FERNANDO MORALES TAPIA                  opt207787__6719663_19                   FERNANDO MORALES TAPIA                  00000000000000000022155AGENCIA TRAVEL BENEFITS000000000000000000000000000000000000000
02000020930010000000000295650000000000000000000000000000000051202407111270300004198220025671981FERNANDO MORALES TAPIA                  opt207788__6719638_19                   FERNANDO MORALES TAPIA                  00000000000000000022155AGENCIA TRAVEL BENEFITS000000000000000000000000000000000000000
02000021030010000000000219000000000000000000000000000000000051202407111274000127320001491733425ANA MARIA CASILLAS CARRILLO             opt207919__6724544_22                   ANA MARIA CASILLAS CARRILLO             00000000000000000022155AGENCIA TRAVEL BENEFITS000000000000000000000000000000000000000
02000021130010000000000219000000000000000000000000000000000051202407111274000127320001491733425ANA MARIA CASILLAS CARRILLO             opt207920__6724581_22                   ANA MARIA CASILLAS CARRILLO             00000000000000000022155AGENCIA TRAVEL BENEFITS000000000000000000000000000000000000000
02000021230010000000000383000000000000000000000000000000000051202407111270300005263540133426953ESTEBAN ALVAREZ DEL CASTILLO            opt207932__6725005_23                   ESTEBAN ALVAREZ DEL CASTILLO            00000000000000000022155AGENCIA TRAVEL BENEFITS000000000000000000000000000000000000000
02000021330010000000000373950000000000000000000000000000000051202407111270300004198220016864462OSMARA ITZEL GUZMáN MORGA              opt207960__6725958_19                   OSMARA ITZEL GUZMáN MORGA              00000000000000000022155AGENCIA TRAVEL BENEFITS000000000000000000000000000000000000000
02000021430010000000000138500000000000000000000000000000000051202407111270300004027665820525898JEZABEL MARTíNEZ GALLEGOS              opt207984__6878281_38                   JEZABEL MARTíNEZ GALLEGOS              00000000000000000022155AGENCIA TRAVEL BENEFITS000000000000000000000000000000000000000
02000021530010000000000138500000000000000000000000000000000051202407111270300004027665820525898JEZABEL MARTíNEZ GALLEGOS              opt207984__6878282_39                   JEZABEL MARTíNEZ GALLEGOS              00000000000000000022155AGENCIA TRAVEL BENEFITS000000000000000000000000000000000000000
02000021630010000000000138500000000000000000000000000000000051202407111270300004027665820525898JEZABEL MARTíNEZ GALLEGOS              opt207985__6726999_35                   JEZABEL MARTíNEZ GALLEGOS              00000000000000000022155AGENCIA TRAVEL BENEFITS000000000000000000000000000000000000000
02000021730010000000000138500000000000000000000000000000000051202407111270300004027665820525898JEZABEL MARTíNEZ GALLEGOS              opt207985__6727000_36                   JEZABEL MARTíNEZ GALLEGOS              00000000000000000022155AGENCIA TRAVEL BENEFITS000000000000000000000000000000000000000
02000021830010000000000138500000000000000000000000000000000051202407111270300004027665820525898JEZABEL MARTíNEZ GALLEGOS              opt207985__6878314_37                   JEZABEL MARTíNEZ GALLEGOS              00000000000000000022155AGENCIA TRAVEL BENEFITS000000000000000000000000000000000000000
02000021930010000000000258530000000000000000000000000000000051202407111274000127180001227947243LEORNARDO TAPIA DíAZ                   opt208075__6835966_40                   LEORNARDO TAPIA DíAZ                   00000000000000000022155AGENCIA TRAVEL BENEFITS000000000000000000000000000000000000000
02000022030010000000000258530000000000000000000000000000000051202407111274000127180001227947243LEORNARDO TAPIA DíAZ                   opt208075__6835967_41                   LEORNARDO TAPIA DíAZ                   00000000000000000022155AGENCIA TRAVEL BENEFITS000000000000000000000000000000000000000
02000022130010000000000277000000000000000000000000000000000051202407111270300004027665005607289HEIDI AGUILAR CLEMENTE                  opt208078__6730579_20                   HEIDI AGUILAR CLEMENTE                  00000000000000000022155AGENCIA TRAVEL BENEFITS000000000000000000000000000000000000000
02000022230010000000000277000000000000000000000000000000000051202407111270300004027665005607289HEIDI AGUILAR CLEMENTE                  opt208080__6730653_20                   HEIDI AGUILAR CLEMENTE                  00000000000000000022155AGENCIA TRAVEL BENEFITS000000000000000000000000000000000000000
02000022330010000000000260550000000000000000000000000000000051202407111270300005263540128680069JOSé ARMANDO GUERRERO OLVERA           opt208088__6730948_19                   JOSé ARMANDO GUERRERO OLVERA           00000000000000000022155AGENCIA TRAVEL BENEFITS000000000000000000000000000000000000000
02000022430010000000000260550000000000000000000000000000000051202407111270300005263540128680069JOSé ARMANDO GUERRERO OLVERA           opt208089__6730973_19                   JOSé ARMANDO GUERRERO OLVERA           00000000000000000022155AGENCIA TRAVEL BENEFITS000000000000000000000000000000000000000
02000022530010000000000277000000000000000000000000000000000051202407111274000127180016613056225LAURA YOLANDA RODRIGUEZ JUAREZ          opt208133__6732614_19                   LAURA YOLANDA RODRIGUEZ JUAREZ          00000000000000000022155AGENCIA TRAVEL BENEFITS000000000000000000000000000000000000000
02000022630010000000000193000000000000000000000000000000000051202407111274000127180016164835403JORGE LUIS SANCHEZ VERGARA              opt208186__6735495_22                   JORGE LUIS SANCHEZ VERGARA              00000000000000000022155AGENCIA TRAVEL BENEFITS000000000000000000000000000000000000000
02000022730010000000000193000000000000000000000000000000000051202407111274000127180016164835403JORGE LUIS SANCHEZ VERGARA              opt208187__6735532_22                   JORGE LUIS SANCHEZ VERGARA              00000000000000000022155AGENCIA TRAVEL BENEFITS000000000000000000000000000000000000000
02000022830010000000000277000000000000000000000000000000000051202407111270300004027665004208725ROBERTO LENIN GRANADO REYES             opt208334__6743055_22                   ROBERTO LENIN GRANADO REYES             00000000000000000022155AGENCIA TRAVEL BENEFITS000000000000000000000000000000000000000
02000022930010000000000277000000000000000000000000000000000051202407111270300004027665796551712JOSE LUIS HERNANDEZ MORA                opt208354__6743778_21                   JOSE LUIS HERNANDEZ MORA                00000000000000000022155AGENCIA TRAVEL BENEFITS000000000000000000000000000000000000000
02000023030010000000000147830000000000000000000000000000000051202407111270300005512382379645379LUIS ALBERTO HERNáNDE CRUZ             opt208397__6746120_46                   LUIS ALBERTO HERNáNDE CRUZ             00000000000000000022155AGENCIA TRAVEL BENEFITS000000000000000000000000000000000000000
02000023130010000000000147830000000000000000000000000000000051202407111270300005512382379645379LUIS ALBERTO HERNáNDE CRUZ             opt208397__6746121_47                   LUIS ALBERTO HERNáNDE CRUZ             00000000000000000022155AGENCIA TRAVEL BENEFITS000000000000000000000000000000000000000
02000023230010000000000147830000000000000000000000000000000051202407111270300005512382379645379LUIS ALBERTO HERNáNDE CRUZ             opt208397__6746122_48                   LUIS ALBERTO HERNáNDE CRUZ             00000000000000000022155AGENCIA TRAVEL BENEFITS000000000000000000000000000000000000000
02000023330010000000000260550000000000000000000000000000000051202407111270300004027665803295048DANTE ADRIAN CERON BARRANCO             opt208483__6749542_21                   DANTE ADRIAN CERON BARRANCO             00000000000000000022155AGENCIA TRAVEL BENEFITS000000000000000000000000000000000000000
02000023430010000000000260550000000000000000000000000000000051202407111270300004027665830215894MARTIN ALVAREZ HERBERT                  opt208503__6750340_18                   MARTIN ALVAREZ HERBERT                  00000000000000000022155AGENCIA TRAVEL BENEFITS000000000000000000000000000000000000000
02000023530010000000000260550000000000000000000000000000000051202407111270300004027665830215894MARTIN ALVAREZ HERBERT                  opt208504__6750366_18                   MARTIN ALVAREZ HERBERT                  00000000000000000022155AGENCIA TRAVEL BENEFITS000000000000000000000000000000000000000
02000023630010000000000258520000000000000000000000000000000051202407111270300004027665809143564ZADQUIEL RANGEL BALDERAS                opt208622__6755036_42                   ZADQUIEL RANGEL BALDERAS                00000000000000000022155AGENCIA TRAVEL BENEFITS000000000000000000000000000000000000000
02000023730010000000000258520000000000000000000000000000000051202407111270300004027665809143564ZADQUIEL RANGEL BALDERAS                opt208622__6755037_43                   ZADQUIEL RANGEL BALDERAS                00000000000000000022155AGENCIA TRAVEL BENEFITS000000000000000000000000000000000000000
02000023830010000000000258520000000000000000000000000000000051202407111270300004027665809143564ZADQUIEL RANGEL BALDERAS                opt208622__6755038_44                   ZADQUIEL RANGEL BALDERAS                00000000000000000022155AGENCIA TRAVEL BENEFITS000000000000000000000000000000000000000
02000023930010000000000193000000000000000000000000000000000051202407111270300004027665837758102TOMAS ORTEGA DAVALOS                    opt208634__6755506_20                   TOMAS ORTEGA DAVALOS                    00000000000000000022155AGENCIA TRAVEL BENEFITS000000000000000000000000000000000000000
02000024030010000000000517050000000000000000000000000000000051202407111274000127045013035190276ANA BEATRIZ SILVA AGUILAR               opt208656__6756328_22                   ANA BEATRIZ SILVA AGUILAR               00000000000000000022155AGENCIA TRAVEL BENEFITS000000000000000000000000000000000000000
02000024130010000000000277000000000000000000000000000000000051202407111274000127180013054690256MONICA DIAZ MARTINEZ                    opt208657__6756387_19                   MONICA DIAZ MARTINEZ                    00000000000000000022155AGENCIA TRAVEL BENEFITS000000000000000000000000000000000000000
02000024230010000000000219000000000000000000000000000000000051202407111270300005263540122633536JOSE QUIRINO REYES MARTINEZ             opt208664__6756761_22                   JOSE QUIRINO REYES MARTINEZ             00000000000000000022155AGENCIA TRAVEL BENEFITS000000000000000000000000000000000000000
02000024330010000000000219000000000000000000000000000000000051202407111270300005263540122633536JOSE QUIRINO REYES MARTINEZ             opt208665__6756798_22                   JOSE QUIRINO REYES MARTINEZ             00000000000000000022155AGENCIA TRAVEL BENEFITS000000000000000000000000000000000000000
02000024430010000000000277000000000000000000000000000000000051202407111270300004027665853801604EDUARDO ESPINOZA VEGA                   opt208764__6760878_15                   EDUARDO ESPINOZA VEGA                   00000000000000000022155AGENCIA TRAVEL BENEFITS000000000000000000000000000000000000000
02000024530010000000000277000000000000000000000000000000000051202407111270300004027665853801604EDUARDO ESPINOZA VEGA                   opt208765__6760915_15                   EDUARDO ESPINOZA VEGA                   00000000000000000022155AGENCIA TRAVEL BENEFITS000000000000000000000000000000000000000
02000024630010000000000193000000000000000000000000000000000051202407111274000127180013359318013LORENA CARRANCO NúñEZ                 opt208780__6761530_21                   LORENA CARRANCO NúñEZ                 00000000000000000022155AGENCIA TRAVEL BENEFITS000000000000000000000000000000000000000
02000024730010000000000277000000000000000000000000000000000051202407111270300004027665815442133CARLOS JESúS PéREZ CRUZ               opt208814__6762464_17                   CARLOS JESúS PéREZ CRUZ               00000000000000000022155AGENCIA TRAVEL BENEFITS000000000000000000000000000000000000000
02000024830010000000000193000000000000000000000000000000000051202407111270300004027665003307015LUIS HORACIO LUNA MEDIA                 opt208874__6765478_20                   LUIS HORACIO LUNA MEDIA                 00000000000000000022155AGENCIA TRAVEL BENEFITS000000000000000000000000000000000000000
02000024930010000000000193000000000000000000000000000000000051202407111270300004027665003307015LUIS HORACIO LUNA MEDIA                 opt208876__6765441_20                   LUIS HORACIO LUNA MEDIA                 00000000000000000022155AGENCIA TRAVEL BENEFITS000000000000000000000000000000000000000
02000025030010000000000147820000000000000000000000000000000051202407111274000127180001589100715YARI JAZMIN CHOPERENA MALDONADO         opt208882__6765091_37                   YARI JAZMIN CHOPERENA MALDONADO         00000000000000000022155AGENCIA TRAVEL BENEFITS000000000000000000000000000000000000000
02000025130010000000000147820000000000000000000000000000000051202407111274000127180001589100715YARI JAZMIN CHOPERENA MALDONADO         opt208882__6878474_38                   YARI JAZMIN CHOPERENA MALDONADO         00000000000000000022155AGENCIA TRAVEL BENEFITS000000000000000000000000000000000000000
02000025230010000000000147820000000000000000000000000000000051202407111274000127180001589100715YARI JAZMIN CHOPERENA MALDONADO         opt208882__6878475_39                   YARI JAZMIN CHOPERENA MALDONADO         00000000000000000022155AGENCIA TRAVEL BENEFITS000000000000000000000000000000000000000
02000025330010000000000147820000000000000000000000000000000051202407111274000127180001589100715YARI JAZMIN CHOPERENA MALDONADO         opt208883__6765140_37                   YARI JAZMIN CHOPERENA MALDONADO         00000000000000000022155AGENCIA TRAVEL BENEFITS000000000000000000000000000000000000000
02000025430010000000000147820000000000000000000000000000000051202407111274000127180001589100715YARI JAZMIN CHOPERENA MALDONADO         opt208883__6765141_38                   YARI JAZMIN CHOPERENA MALDONADO         00000000000000000022155AGENCIA TRAVEL BENEFITS000000000000000000000000000000000000000
02000025530010000000000147820000000000000000000000000000000051202407111274000127180001589100715YARI JAZMIN CHOPERENA MALDONADO         opt208883__6765142_39                   YARI JAZMIN CHOPERENA MALDONADO         00000000000000000022155AGENCIA TRAVEL BENEFITS000000000000000000000000000000000000000
02000025630010000000000193000000000000000000000000000000000051202407111274000127180001267118676FRANCISCO JAVIER DIAZ VAZQUEZ           opt208895__6766218_20                   FRANCISCO JAVIER DIAZ VAZQUEZ           00000000000000000022155AGENCIA TRAVEL BENEFITS000000000000000000000000000000000000000
02000025730010000000000219000000000000000000000000000000000051202407111274000127180016235740618SILVIA DURAN GUTIéRREZ                 opt208953__6768873_17                   SILVIA DURAN GUTIéRREZ                 00000000000000000022155AGENCIA TRAVEL BENEFITS000000000000000000000000000000000000000
02000025830010000000000277000000000000000000000000000000000051202407111270300004027665842024847MARICELA CONTRERAS ROMERO               opt209058__6773396_21                   MARICELA CONTRERAS ROMERO               00000000000000000022155AGENCIA TRAVEL BENEFITS000000000000000000000000000000000000000
02000025930010000000000252330000000000000000000000000000000051202407111270300004027665001070565ANGELICA ESPINOZA AGUILAR               opt209083__6774187_21                   ANGELICA ESPINOZA AGUILAR               00000000000000000022155AGENCIA TRAVEL BENEFITS000000000000000000000000000000000000000
02000026030010000000000252330000000000000000000000000000000051202407111270300004027665001070565ANGELICA ESPINOZA AGUILAR               opt209084__6774212_21                   ANGELICA ESPINOZA AGUILAR               00000000000000000022155AGENCIA TRAVEL BENEFITS000000000000000000000000000000000000000
02000026130010000000000252330000000000000000000000000000000051202407111270300004027665001070565ANGELICA ESPINOZA AGUILAR               opt209085__6774237_21                   ANGELICA ESPINOZA AGUILAR               00000000000000000022155AGENCIA TRAVEL BENEFITS000000000000000000000000000000000000000
02000026230010000000000252330000000000000000000000000000000051202407111270300004027665001070565ANGELICA ESPINOZA AGUILAR               opt209086__6774262_21                   ANGELICA ESPINOZA AGUILAR               00000000000000000022155AGENCIA TRAVEL BENEFITS000000000000000000000000000000000000000
02000026330010000000000277000000000000000000000000000000000051202407111274000127180012000451165ITABEHE GóMEZ TORRES                   opt209179__6777454_19                   ITABEHE GóMEZ TORRES                   00000000000000000022155AGENCIA TRAVEL BENEFITS000000000000000000000000000000000000000
02000026430010000000000277000000000000000000000000000000000051202407111274000127180012000451165ITABEHE GóMEZ TORRES                   opt209180__6777491_19                   ITABEHE GóMEZ TORRES                   00000000000000000022155AGENCIA TRAVEL BENEFITS000000000000000000000000000000000000000
02000026530010000000000193000000000000000000000000000000000051202407111270300005512382420123814OLGA LIDIA RODRIGUEZ DE LOS SANTOS      opt209211__6778732_21                   OLGA LIDIA RODRIGUEZ DE LOS SANTOS      00000000000000000022155AGENCIA TRAVEL BENEFITS000000000000000000000000000000000000000
02000026630010000000000295650000000000000000000000000000000051202407111274000127150001688825578GUILLERMO QUEZADA LOPEZ                 opt209231__6779480_20                   GUILLERMO QUEZADA LOPEZ                 00000000000000000022155AGENCIA TRAVEL BENEFITS000000000000000000000000000000000000000
02000026730010000000000295650000000000000000000000000000000051202407111274000127150001688825578GUILLERMO QUEZADA LOPEZ                 opt209232__6779505_20                   GUILLERMO QUEZADA LOPEZ                 00000000000000000022155AGENCIA TRAVEL BENEFITS000000000000000000000000000000000000000
02000026830010000000000109500000000000000000000000000000000051202407111270300005512382420864979LISSETH SALAZAR MENDOZA                 opt209279__6781391_29                   LISSETH SALAZAR MENDOZA                 00000000000000000022155AGENCIA TRAVEL BENEFITS000000000000000000000000000000000000000
02000026930010000000000109500000000000000000000000000000000051202407111270300005512382420864979LISSETH SALAZAR MENDOZA                 opt209279__6781392_30                   LISSETH SALAZAR MENDOZA                 00000000000000000022155AGENCIA TRAVEL BENEFITS000000000000000000000000000000000000000
02000027030010000000000109500000000000000000000000000000000051202407111270300005512382420864979LISSETH SALAZAR MENDOZA                 opt209279__6781393_31                   LISSETH SALAZAR MENDOZA                 00000000000000000022155AGENCIA TRAVEL BENEFITS000000000000000000000000000000000000000
02000027130010000000000109500000000000000000000000000000000051202407111270300005512382420864979LISSETH SALAZAR MENDOZA                 opt209282__6781514_29                   LISSETH SALAZAR MENDOZA                 00000000000000000022155AGENCIA TRAVEL BENEFITS000000000000000000000000000000000000000
02000027230010000000000109500000000000000000000000000000000051202407111270300005512382420864979LISSETH SALAZAR MENDOZA                 opt209282__6781515_30                   LISSETH SALAZAR MENDOZA                 00000000000000000022155AGENCIA TRAVEL BENEFITS000000000000000000000000000000000000000
02000027330010000000000109500000000000000000000000000000000051202407111270300005512382420864979LISSETH SALAZAR MENDOZA                 opt209282__6781516_31                   LISSETH SALAZAR MENDOZA                 00000000000000000022155AGENCIA TRAVEL BENEFITS000000000000000000000000000000000000000
02000027430010000000000373950000000000000000000000000000000051202407111270300005512382365047770SILVIA ARIADNA AVILA ORTEGA             opt209299__6782235_18                   SILVIA ARIADNA AVILA ORTEGA             00000000000000000022155AGENCIA TRAVEL BENEFITS000000000000000000000000000000000000000
02000027530010000000000373950000000000000000000000000000000051202407111270300005512382365047770SILVIA ARIADNA AVILA ORTEGA             opt209300__6782268_18                   SILVIA ARIADNA AVILA ORTEGA             00000000000000000022155AGENCIA TRAVEL BENEFITS000000000000000000000000000000000000000
02000027630010000000000219000000000000000000000000000000000051202407111270300004831120602014956MONTSERRAT VENTURA TAPIA                opt209347__6784138_18                   MONTSERRAT VENTURA TAPIA                00000000000000000022155AGENCIA TRAVEL BENEFITS000000000000000000000000000000000000000
02000027730010000000000219000000000000000000000000000000000051202407111270300004831120602014956MONTSERRAT VENTURA TAPIA                opt209348__6784175_18                   MONTSERRAT VENTURA TAPIA                00000000000000000022155AGENCIA TRAVEL BENEFITS000000000000000000000000000000000000000
02000027830010000000000277000000000000000000000000000000000051202407111274000127180001028410186MARTINEZ MARTINEZ FRANCISCO JAVIER      opt209486__6789541_17                   MARTINEZ MARTINEZ FRANCISCO JAVIER      00000000000000000022155AGENCIA TRAVEL BENEFITS000000000000000000000000000000000000000
02000027930010000000000373950000000000000000000000000000000051202407111270300005512382421076821NESTOR MAURICIO PALOMINO ARENA          opt209496__6789879_11                   NESTOR MAURICIO PALOMINO ARENA          00000000000000000022155AGENCIA TRAVEL BENEFITS000000000000000000000000000000000000000
02000028030010000000000193000000000000000000000000000000000051202407111270300004027665746572222MARIA MANUELA ALONSO PATLANI            opt209543__6791428_18                   MARIA MANUELA ALONSO PATLANI            00000000000000000022155AGENCIA TRAVEL BENEFITS000000000000000000000000000000000000000
02000028130010000000000193000000000000000000000000000000000051202407111270300004027665746572222MARIA MANUELA ALONSO PATLANI            opt209544__6791465_18                   MARIA MANUELA ALONSO PATLANI            00000000000000000022155AGENCIA TRAVEL BENEFITS000000000000000000000000000000000000000
02000028230010000000000193000000000000000000000000000000000051202407111270300004027665746572222MARIA MANUELA ALONSO PATLANI            opt209545__6791502_18                   MARIA MANUELA ALONSO PATLANI            00000000000000000022155AGENCIA TRAVEL BENEFITS000000000000000000000000000000000000000
02000028330010000000000277000000000000000000000000000000000051202407111274000127180001506642308LUIS ANTONIO MUñOZ MORALES             opt209550__6791671_18                   LUIS ANTONIO MUñOZ MORALES             00000000000000000022155AGENCIA TRAVEL BENEFITS000000000000000000000000000000000000000
02000028430010000000000193000000000000000000000000000000000051202407111270300004027665775774251JOSE ANGEL LOPEZ TRINIDAD               opt209656__6795638_7                    JOSE ANGEL LOPEZ TRINIDAD               00000000000000000022155AGENCIA TRAVEL BENEFITS000000000000000000000000000000000000000
02000028530010000000000193000000000000000000000000000000000051202407111270300004027665775774251JOSE ANGEL LOPEZ TRINIDAD               opt209657__6795673_5                    JOSE ANGEL LOPEZ TRINIDAD               00000000000000000022155AGENCIA TRAVEL BENEFITS000000000000000000000000000000000000000
02000028630010000000000193000000000000000000000000000000000051202407111274000127180013057693784HAYDEE MARGARITA ROMERO ORDOñEZ        opt209668__6796005_14                   HAYDEE MARGARITA ROMERO ORDOñEZ        00000000000000000022155AGENCIA TRAVEL BENEFITS000000000000000000000000000000000000000
02000028730010000000000219000000000000000000000000000000000051202407111274000127180013801761558YUDID CALIXTO SIMON                     opt209690__6796695_20                   YUDID CALIXTO SIMON                     00000000000000000022155AGENCIA TRAVEL BENEFITS000000000000000000000000000000000000000
02000028830010000000000193000000000000000000000000000000000051202407111270300004027665722311835LAURA VILLEGAS DOMINGUEZ                opt209691__6796620_20                   LAURA VILLEGAS DOMINGUEZ                00000000000000000022155AGENCIA TRAVEL BENEFITS000000000000000000000000000000000000000
02000028930010000000000295650000000000000000000000000000000051202407111274000127180013253344536MONTSERRAT GARCIA LAZCANO               opt209802__6801093_18                   MONTSERRAT GARCIA LAZCANO               00000000000000000022155AGENCIA TRAVEL BENEFITS000000000000000000000000000000000000000
02000029030010000000000295650000000000000000000000000000000051202407111274000127180013253344536MONTSERRAT GARCIA LAZCANO               opt209803__6801118_18                   MONTSERRAT GARCIA LAZCANO               00000000000000000022155AGENCIA TRAVEL BENEFITS000000000000000000000000000000000000000
02000029130010000000000193000000000000000000000000000000000051202407111270300005263540136866056LUIS ALBERTO LINARES SANCHEZ            opt209898__6804575_18                   LUIS ALBERTO LINARES SANCHEZ            00000000000000000022155AGENCIA TRAVEL BENEFITS000000000000000000000000000000000000000
02000029230010000000000193000000000000000000000000000000000051202407111270300005263540136866056LUIS ALBERTO LINARES SANCHEZ            opt209899__6804612_18                   LUIS ALBERTO LINARES SANCHEZ            00000000000000000022155AGENCIA TRAVEL BENEFITS000000000000000000000000000000000000000
02000029330010000000000219000000000000000000000000000000000051202407111270300004027665777908907BENJAMíN MENDEZ ARMENTA                opt209904__6804875_18                   BENJAMíN MENDEZ ARMENTA                00000000000000000022155AGENCIA TRAVEL BENEFITS000000000000000000000000000000000000000
02000029430010000000000383000000000000000000000000000000000051202407111270300004027665777908907BENJAMíN MENDEZ ARMENTA                opt209906__6804801_18                   BENJAMíN MENDEZ ARMENTA                00000000000000000022155AGENCIA TRAVEL BENEFITS000000000000000000000000000000000000000
02000029530010000000000373950000000000000000000000000000000051202407111270300004027665836749235DARIO VICTOR HERNANDEZ RAMIREZ          opt209912__6805177_21                   DARIO VICTOR HERNANDEZ RAMIREZ          00000000000000000022155AGENCIA TRAVEL BENEFITS000000000000000000000000000000000000000
02000029630010000000000193000000000000000000000000000000000051202407111270300004198220026584175LLUVIA ALMENDRA HERNANDEZ HERNANDEZ     opt209923__6805577_19                   LLUVIA ALMENDRA HERNANDEZ HERNANDEZ     00000000000000000022155AGENCIA TRAVEL BENEFITS000000000000000000000000000000000000000
02000029730010000000000747900000000000000000000000000000000051202407111270300005512382398782153SALVADOR MORENO ZALDIVAR                opt209941__6806158_9                    SALVADOR MORENO ZALDIVAR                00000000000000000022155AGENCIA TRAVEL BENEFITS000000000000000000000000000000000000000
02000029830010000000000747900000000000000000000000000000000051202407111270300005512382398782153SALVADOR MORENO ZALDIVAR                opt209942__6806171_9                    SALVADOR MORENO ZALDIVAR                00000000000000000022155AGENCIA TRAVEL BENEFITS000000000000000000000000000000000000000
02000029930010000000000277000000000000000000000000000000000051202407111270300004198220035853348MARIANA NAPOLES PALENCIA                opt210004__6808803_17                   MARIANA NAPOLES PALENCIA                00000000000000000022155AGENCIA TRAVEL BENEFITS000000000000000000000000000000000000000
02000030030010000000000517050000000000000000000000000000000051202407111270300004027665760406729BRENDA NALLELY VARGAS MARTíNEZ         opt210022__6809494_11                   BRENDA NALLELY VARGAS MARTíNEZ         00000000000000000022155AGENCIA TRAVEL BENEFITS000000000000000000000000000000000000000
02000030130010000000000373950000000000000000000000000000000051202407111270300004027665717652763SONIA TERRAZAS TEZA                     opt210057__6810553_14                   SONIA TERRAZAS TEZA                     00000000000000000022155AGENCIA TRAVEL BENEFITS000000000000000000000000000000000000000
02000030230010000000000373950000000000000000000000000000000051202407111270300005263540129828550VERANIA NAVARRO GARCIA                  opt210087__6812248_18                   VERANIA NAVARRO GARCIA                  00000000000000000022155AGENCIA TRAVEL BENEFITS000000000000000000000000000000000000000
02000030330010000000000383000000000000000000000000000000000051202407111274000127233001152469044EVA GEORGINA CRUZ FRIAS                 opt210157__6814533_18                   EVA GEORGINA CRUZ FRIAS                 00000000000000000022155AGENCIA TRAVEL BENEFITS000000000000000000000000000000000000000
02000030430010000000000193000000000000000000000000000000000051202407111270300004027665768135957RICARDO ALVARADO DE JESUS               opt210183__6814972_6                    RICARDO ALVARADO DE JESUS               00000000000000000022155AGENCIA TRAVEL BENEFITS000000000000000000000000000000000000000
02000030530010000000000277000000000000000000000000000000000051202407111274000127420001725167722JUSTINE HIVETH ESQUIVEL SANTILLAN       opt210282__6818914_16                   JUSTINE HIVETH ESQUIVEL SANTILLAN       00000000000000000022155AGENCIA TRAVEL BENEFITS000000000000000000000000000000000000000
02000030630010000000000277000000000000000000000000000000000051202407111274000127420001725167722JUSTINE HIVETH ESQUIVEL SANTILLAN       opt210283__6818951_16                   JUSTINE HIVETH ESQUIVEL SANTILLAN       00000000000000000022155AGENCIA TRAVEL BENEFITS000000000000000000000000000000000000000
02000030730010000000000219000000000000000000000000000000000051202407111274000127180012004803492ESTRELLITA DEL CARMEN IGLESIAS ORTIZ    opt210334__6820981_18                   ESTRELLITA DEL CARMEN IGLESIAS ORTIZ    00000000000000000022155AGENCIA TRAVEL BENEFITS000000000000000000000000000000000000000
02000030830010000000000219000000000000000000000000000000000051202407111274000127180012004803492ESTRELLITA DEL CARMEN IGLESIAS ORTIZ    opt210335__6821018_18                   ESTRELLITA DEL CARMEN IGLESIAS ORTIZ    00000000000000000022155AGENCIA TRAVEL BENEFITS000000000000000000000000000000000000000
02000030930010000000000295650000000000000000000000000000000051202407111270300004027665312984041ULISES AVENDANO RANGEL                  opt210368__6822242_17                   ULISES AVENDANO RANGEL                  00000000000000000022155AGENCIA TRAVEL BENEFITS000000000000000000000000000000000000000
02000031030010000000000260550000000000000000000000000000000051202407111270300005263540129471450JULIA JASMIN CASTAñEDA HERNáNDEZ      opt210385__6822838_19                   JULIA JASMIN CASTAñEDA HERNáNDEZ      00000000000000000022155AGENCIA TRAVEL BENEFITS000000000000000000000000000000000000000
02000031130010000000000219000000000000000000000000000000000051202407111270300005512382323391096CRISTIAN JOVANI HERNANDEZ JACUINDE      opt210445__6825218_17                   CRISTIAN JOVANI HERNANDEZ JACUINDE      00000000000000000022155AGENCIA TRAVEL BENEFITS000000000000000000000000000000000000000
02000031230010000000000219000000000000000000000000000000000051202407111270300005512382323391096CRISTIAN JOVANI HERNANDEZ JACUINDE      opt210446__6825255_17                   CRISTIAN JOVANI HERNANDEZ JACUINDE      00000000000000000022155AGENCIA TRAVEL BENEFITS000000000000000000000000000000000000000
02000031330010000000000193000000000000000000000000000000000051202407111274000127180016048931876EDITH MENDOZA GONZALEZ                  opt210521__6828312_18                   EDITH MENDOZA GONZALEZ                  00000000000000000022155AGENCIA TRAVEL BENEFITS000000000000000000000000000000000000000
02000031430010000000000277000000000000000000000000000000000051202407111274000127180013969002777JOSE LUIS MELENDEZ MENDOZA              opt210544__6829831_8                    JOSE LUIS MELENDEZ MENDOZA              00000000000000000022155AGENCIA TRAVEL BENEFITS000000000000000000000000000000000000000
02000031530010000000000295650000000000000000000000000000000051202407111270300005512382408647917ROSA EVELIN AGUIRRE VELASCO             opt210550__6829629_17                   ROSA EVELIN AGUIRRE VELASCO             00000000000000000022155AGENCIA TRAVEL BENEFITS000000000000000000000000000000000000000
02000031630010000000000295650000000000000000000000000000000051202407111270300005512382408647917ROSA EVELIN AGUIRRE VELASCO             opt210552__6829567_17                   ROSA EVELIN AGUIRRE VELASCO             00000000000000000022155AGENCIA TRAVEL BENEFITS000000000000000000000000000000000000000
02000031730010000000000147830000000000000000000000000000000051202407111274000127180001227947243LEORNARDO TAPIA DíAZ                   opt210557__6829417_40                   LEORNARDO TAPIA DíAZ                   00000000000000000022155AGENCIA TRAVEL BENEFITS000000000000000000000000000000000000000
02000031830010000000000147830000000000000000000000000000000051202407111274000127180001227947243LEORNARDO TAPIA DíAZ                   opt210557__6829418_41                   LEORNARDO TAPIA DíAZ                   00000000000000000022155AGENCIA TRAVEL BENEFITS000000000000000000000000000000000000000
02000031930010000000000277000000000000000000000000000000000051202407111274000127180013969002777JOSE LUIS MELENDEZ MENDOZA              opt210566__6829868_8                    JOSE LUIS MELENDEZ MENDOZA              00000000000000000022155AGENCIA TRAVEL BENEFITS000000000000000000000000000000000000000
02000032030010000000000193000000000000000000000000000000000051202407111274000127113001121507248VERONICA IVETTE ROBLERO PEREZ           opt210627__6832022_15                   VERONICA IVETTE ROBLERO PEREZ           00000000000000000022155AGENCIA TRAVEL BENEFITS000000000000000000000000000000000000000
02000032130010000000000191500000000000000000000000000000000051202407111270300005263540115985802DANIEL CORONEL                          opt210649__6832708_37                   DANIEL CORONEL                          00000000000000000022155AGENCIA TRAVEL BENEFITS000000000000000000000000000000000000000
02000032230010000000000109500000000000000000000000000000000051202407111270300005263540115985802DANIEL CORONEL                          opt210650__6832782_38                   DANIEL CORONEL                          00000000000000000022155AGENCIA TRAVEL BENEFITS000000000000000000000000000000000000000
02000032330010000000000219000000000000000000000000000000000051202407111270300004027665822769916DIANA ARCE RAMíREZ                     opt210679__6834364_19                   DIANA ARCE RAMíREZ                     00000000000000000022155AGENCIA TRAVEL BENEFITS000000000000000000000000000000000000000
02000032430010000000000277000000000000000000000000000000000051202407111270300005512382381995697HUGO ASTORGA HUACHO                     opt210845__6840623_18                   HUGO ASTORGA HUACHO                     00000000000000000022155AGENCIA TRAVEL BENEFITS000000000000000000000000000000000000000
02000032530010000000000277000000000000000000000000000000000051202407111270300005512382381995697HUGO ASTORGA HUACHO                     opt210846__6840660_18                   HUGO ASTORGA HUACHO                     00000000000000000022155AGENCIA TRAVEL BENEFITS000000000000000000000000000000000000000
02000032630010000000000277000000000000000000000000000000000051202407111270300004027665739076264MARIA GUADALUPE RICO HERNANDEZ          opt210884__6841553_15                   MARIA GUADALUPE RICO HERNANDEZ          00000000000000000022155AGENCIA TRAVEL BENEFITS000000000000000000000000000000000000000
02000032730010000000000277000000000000000000000000000000000051202407111270300005512382374007377ALEJANDRA MARTINEZ ANGELES              opt210919__6843653_18                   ALEJANDRA MARTINEZ ANGELES              00000000000000000022155AGENCIA TRAVEL BENEFITS000000000000000000000000000000000000000
02000032830010000000000277000000000000000000000000000000000051202407111270300005512382374007377ALEJANDRA MARTINEZ ANGELES              opt210920__6843690_18                   ALEJANDRA MARTINEZ ANGELES              00000000000000000022155AGENCIA TRAVEL BENEFITS000000000000000000000000000000000000000
02000032930010000000000277000000000000000000000000000000000051202407111270300005263540129440844ANA CINTIA MANCILLA MATEOS              opt211039__6848475_18                   ANA CINTIA MANCILLA MATEOS              00000000000000000022155AGENCIA TRAVEL BENEFITS000000000000000000000000000000000000000
02000033030010000000000383000000000000000000000000000000000051202407111274000127180001533179967ZEA RUíZ CANDIDA JAZMIN                opt211046__6848806_18                   ZEA RUíZ CANDIDA JAZMIN                00000000000000000022155AGENCIA TRAVEL BENEFITS000000000000000000000000000000000000000
02000033130010000000000383000000000000000000000000000000000051202407111274000127180001533179967ZEA RUíZ CANDIDA JAZMIN                opt211047__6848843_18                   ZEA RUíZ CANDIDA JAZMIN                00000000000000000022155AGENCIA TRAVEL BENEFITS000000000000000000000000000000000000000
02000033230010000000000383000000000000000000000000000000000051202407111274000127180001533179967ZEA RUíZ CANDIDA JAZMIN                opt211048__6848880_18                   ZEA RUíZ CANDIDA JAZMIN                00000000000000000022155AGENCIA TRAVEL BENEFITS000000000000000000000000000000000000000
